{"contracts/NitrilityAuction.sol":{"NitrilityAuction":{"abi":[{"inputs":[],"stateMutability":"nonpayable","type":"constructor"},{"inputs":[{"internalType":"address","name":"owner","type":"address"}],"name":"OwnableInvalidOwner","type":"error"},{"inputs":[{"internalType":"address","name":"account","type":"address"}],"name":"OwnableUnauthorizedAccount","type":"error"},{"inputs":[],"name":"ReentrancyGuardReentrantCall","type":"error"},{"anonymous":false,"inputs":[{"indexed":false,"internalType":"uint256","name":"offerId","type":"uint256"},{"indexed":false,"internalType":"uint256","name":"offerPrice","type":"uint256"},{"indexed":false,"internalType":"uint256","name":"offerDuration","type":"uint256"},{"indexed":false,"internalType":"enum NitrilityCommon.EventTypes","name":"eventType","type":"uint8"},{"indexed":false,"internalType":"bool","name":"isSeller","type":"bool"}],"name":"OfferEvent","type":"event"},{"anonymous":false,"inputs":[{"indexed":true,"internalType":"address","name":"previousOwner","type":"address"},{"indexed":true,"internalType":"address","name":"newOwner","type":"address"}],"name":"OwnershipTransferred","type":"event"},{"inputs":[{"internalType":"uint256","name":"offerId","type":"uint256"},{"internalType":"string","name":"sellerId","type":"string"},{"components":[{"internalType":"uint256","name":"fPrice","type":"uint256"},{"internalType":"uint256","name":"sPrice","type":"uint256"},{"internalType":"uint256","name":"tPrice","type":"uint256"},{"internalType":"enum NitrilityCommon.ListingType","name":"listingFormatValue","type":"uint8"},{"internalType":"uint256","name":"totalSupply","type":"uint256"},{"internalType":"bool","name":"infiniteSupply","type":"bool"},{"internalType":"bool","name":"infiniteListingDuration","type":"bool"},{"internalType":"bool","name":"infiniteExclusiveDuration","type":"bool"},{"internalType":"enum NitrilityCommon.Exclusivity","name":"exclusivity","type":"uint8"},{"internalType":"uint256","name":"listingStartTime","type":"uint256"},{"internalType":"uint256","name":"listingEndTime","type":"uint256"},{"internalType":"uint256","name":"exclusiveEndTime","type":"uint256"},{"components":[{"internalType":"string","name":"name","type":"string"},{"internalType":"string","name":"code","type":"string"},{"internalType":"enum NitrilityCommon.DiscountType","name":"discountType","type":"uint8"},{"internalType":"uint256","name":"percentage","type":"uint256"},{"internalType":"uint256","name":"fixedAmount","type":"uint256"},{"internalType":"bool","name":"infinite","type":"bool"},{"internalType":"uint256","name":"endTime","type":"uint256"},{"internalType":"bool","name":"actived","type":"bool"}],"internalType":"struct NitrilityCommon.DiscountCode","name":"discountCode","type":"tuple"},{"internalType":"enum NitrilityCommon.ListingStatus","name":"listed","type":"uint8"},{"internalType":"bytes","name":"signature","type":"bytes"}],"internalType":"struct NitrilityCommon.TemplateType","name":"templateData","type":"tuple"},{"components":[{"internalType":"string","name":"sellerId","type":"string"},{"internalType":"string","name":"sellerName","type":"string"},{"internalType":"uint256","name":"percentage","type":"uint256"},{"internalType":"bool","name":"isAdmin","type":"bool"},{"internalType":"enum NitrilityCommon.ReviewStatus","name":"status","type":"uint8"}],"internalType":"struct NitrilityCommon.ArtistRevenue[]","name":"artistRevenues","type":"tuple[]"}],"name":"acceptOffer","outputs":[],"stateMutability":"payable","type":"function"},{"inputs":[{"components":[{"internalType":"string","name":"discountCode","type":"string"},{"internalType":"string","name":"newTokenURI","type":"string"},{"internalType":"string","name":"trackId","type":"string"},{"internalType":"uint256","name":"offerPrice","type":"uint256"},{"internalType":"uint256","name":"offerDuration","type":"uint256"},{"internalType":"uint256","name":"counts","type":"uint256"},{"internalType":"enum NitrilityCommon.LicensingType","name":"licensingType","type":"uint8"},{"internalType":"enum NitrilityCommon.Exclusivity","name":"exclusivity","type":"uint8"},{"components":[{"internalType":"uint256","name":"fPrice","type":"uint256"},{"internalType":"uint256","name":"sPrice","type":"uint256"},{"internalType":"uint256","name":"tPrice","type":"uint256"},{"internalType":"enum NitrilityCommon.ListingType","name":"listingFormatValue","type":"uint8"},{"internalType":"uint256","name":"totalSupply","type":"uint256"},{"internalType":"bool","name":"infiniteSupply","type":"bool"},{"internalType":"bool","name":"infiniteListingDuration","type":"bool"},{"internalType":"bool","name":"infiniteExclusiveDuration","type":"bool"},{"internalType":"enum NitrilityCommon.Exclusivity","name":"exclusivity","type":"uint8"},{"internalType":"uint256","name":"listingStartTime","type":"uint256"},{"internalType":"uint256","name":"listingEndTime","type":"uint256"},{"internalType":"uint256","name":"exclusiveEndTime","type":"uint256"},{"components":[{"internalType":"string","name":"name","type":"string"},{"internalType":"string","name":"code","type":"string"},{"internalType":"enum NitrilityCommon.DiscountType","name":"discountType","type":"uint8"},{"internalType":"uint256","name":"percentage","type":"uint256"},{"internalType":"uint256","name":"fixedAmount","type":"uint256"},{"internalType":"bool","name":"infinite","type":"bool"},{"internalType":"uint256","name":"endTime","type":"uint256"},{"internalType":"bool","name":"actived","type":"bool"}],"internalType":"struct NitrilityCommon.DiscountCode","name":"discountCode","type":"tuple"},{"internalType":"enum NitrilityCommon.ListingStatus","name":"listed","type":"uint8"},{"internalType":"bytes","name":"signature","type":"bytes"}],"internalType":"struct NitrilityCommon.TemplateType","name":"templateData","type":"tuple"},{"components":[{"internalType":"enum NitrilityAuction.PurchaseType","name":"purchaseType","type":"uint8"},{"internalType":"uint256","name":"exclusiveTime","type":"uint256"},{"internalType":"string","name":"governingLaw","type":"string"},{"internalType":"string","name":"sellerId","type":"string"},{"internalType":"string","name":"usageNotes","type":"string"},{"internalType":"string","name":"advertisementTitle","type":"string"},{"internalType":"string","name":"productDescription","type":"string"},{"internalType":"string","name":"contentDescription","type":"string"},{"internalType":"string","name":"intendedPlatforms","type":"string"},{"internalType":"string","name":"additionalInfo","type":"string"}],"internalType":"struct NitrilityAuction.Metadata","name":"metadata","type":"tuple"}],"internalType":"struct NitrilityAuction.LicensesData[]","name":"licenseDatas","type":"tuple[]"}],"name":"calculateTotalPrice","outputs":[{"internalType":"uint256","name":"","type":"uint256"}],"stateMutability":"pure","type":"function"},{"inputs":[{"internalType":"string","name":"trackId","type":"string"},{"internalType":"uint256","name":"offerDuration","type":"uint256"},{"internalType":"string","name":"tokenURI","type":"string"},{"internalType":"enum NitrilityCommon.LicensingType","name":"licensingType","type":"uint8"},{"internalType":"enum NitrilityCommon.Exclusivity","name":"exclusivity","type":"uint8"},{"internalType":"address","name":"buyerAddr","type":"address"},{"internalType":"uint256","name":"offerPrice","type":"uint256"},{"internalType":"uint256","name":"counts","type":"uint256"},{"components":[{"internalType":"enum NitrilityAuction.PurchaseType","name":"purchaseType","type":"uint8"},{"internalType":"uint256","name":"exclusiveTime","type":"uint256"},{"internalType":"string","name":"governingLaw","type":"string"},{"internalType":"string","name":"sellerId","type":"string"},{"internalType":"string","name":"usageNotes","type":"string"},{"internalType":"string","name":"advertisementTitle","type":"string"},{"internalType":"string","name":"productDescription","type":"string"},{"internalType":"string","name":"contentDescription","type":"string"},{"internalType":"string","name":"intendedPlatforms","type":"string"},{"internalType":"string","name":"additionalInfo","type":"string"}],"internalType":"struct NitrilityAuction.Metadata","name":"metadata","type":"tuple"}],"name":"createOfferData","outputs":[],"stateMutability":"nonpayable","type":"function"},{"inputs":[{"internalType":"uint256","name":"offerId","type":"uint256"},{"internalType":"uint256","name":"offerPrice","type":"uint256"},{"internalType":"uint256","name":"offerDuration","type":"uint256"},{"internalType":"enum NitrilityCommon.EventTypes","name":"eventType","type":"uint8"}],"name":"editOffer","outputs":[],"stateMutability":"payable","type":"function"},{"inputs":[{"internalType":"uint256","name":"offerId","type":"uint256"}],"name":"fetchCurrentOfferPrice","outputs":[{"internalType":"uint256","name":"","type":"uint256"}],"stateMutability":"view","type":"function"},{"inputs":[],"name":"marketOwner","outputs":[{"internalType":"address","name":"","type":"address"}],"stateMutability":"view","type":"function"},{"inputs":[],"name":"nitrilityFactory","outputs":[{"internalType":"address","name":"","type":"address"}],"stateMutability":"view","type":"function"},{"inputs":[],"name":"owner","outputs":[{"internalType":"address","name":"","type":"address"}],"stateMutability":"view","type":"function"},{"inputs":[{"internalType":"string","name":"trackId","type":"string"},{"internalType":"uint256","name":"offerDuration","type":"uint256"},{"internalType":"string","name":"tokenURI","type":"string"},{"internalType":"enum NitrilityCommon.LicensingType","name":"licensingType","type":"uint8"},{"internalType":"enum NitrilityCommon.Exclusivity","name":"exclusivity","type":"uint8"},{"components":[{"internalType":"enum NitrilityAuction.PurchaseType","name":"purchaseType","type":"uint8"},{"internalType":"uint256","name":"exclusiveTime","type":"uint256"},{"internalType":"string","name":"governingLaw","type":"string"},{"internalType":"string","name":"sellerId","type":"string"},{"internalType":"string","name":"usageNotes","type":"string"},{"internalType":"string","name":"advertisementTitle","type":"string"},{"internalType":"string","name":"productDescription","type":"string"},{"internalType":"string","name":"contentDescription","type":"string"},{"internalType":"string","name":"intendedPlatforms","type":"string"},{"internalType":"string","name":"additionalInfo","type":"string"}],"internalType":"struct NitrilityAuction.Metadata","name":"metadata","type":"tuple"}],"name":"placeOffer","outputs":[],"stateMutability":"payable","type":"function"},{"inputs":[{"components":[{"internalType":"string","name":"discountCode","type":"string"},{"internalType":"string","name":"newTokenURI","type":"string"},{"internalType":"string","name":"trackId","type":"string"},{"internalType":"uint256","name":"offerPrice","type":"uint256"},{"internalType":"uint256","name":"offerDuration","type":"uint256"},{"internalType":"uint256","name":"counts","type":"uint256"},{"internalType":"enum NitrilityCommon.LicensingType","name":"licensingType","type":"uint8"},{"internalType":"enum NitrilityCommon.Exclusivity","name":"exclusivity","type":"uint8"},{"components":[{"internalType":"uint256","name":"fPrice","type":"uint256"},{"internalType":"uint256","name":"sPrice","type":"uint256"},{"internalType":"uint256","name":"tPrice","type":"uint256"},{"internalType":"enum NitrilityCommon.ListingType","name":"listingFormatValue","type":"uint8"},{"internalType":"uint256","name":"totalSupply","type":"uint256"},{"internalType":"bool","name":"infiniteSupply","type":"bool"},{"internalType":"bool","name":"infiniteListingDuration","type":"bool"},{"internalType":"bool","name":"infiniteExclusiveDuration","type":"bool"},{"internalType":"enum NitrilityCommon.Exclusivity","name":"exclusivity","type":"uint8"},{"internalType":"uint256","name":"listingStartTime","type":"uint256"},{"internalType":"uint256","name":"listingEndTime","type":"uint256"},{"internalType":"uint256","name":"exclusiveEndTime","type":"uint256"},{"components":[{"internalType":"string","name":"name","type":"string"},{"internalType":"string","name":"code","type":"string"},{"internalType":"enum NitrilityCommon.DiscountType","name":"discountType","type":"uint8"},{"internalType":"uint256","name":"percentage","type":"uint256"},{"internalType":"uint256","name":"fixedAmount","type":"uint256"},{"internalType":"bool","name":"infinite","type":"bool"},{"internalType":"uint256","name":"endTime","type":"uint256"},{"internalType":"bool","name":"actived","type":"bool"}],"internalType":"struct NitrilityCommon.DiscountCode","name":"discountCode","type":"tuple"},{"internalType":"enum NitrilityCommon.ListingStatus","name":"listed","type":"uint8"},{"internalType":"bytes","name":"signature","type":"bytes"}],"internalType":"struct NitrilityCommon.TemplateType","name":"templateData","type":"tuple"},{"components":[{"internalType":"enum NitrilityAuction.PurchaseType","name":"purchaseType","type":"uint8"},{"internalType":"uint256","name":"exclusiveTime","type":"uint256"},{"internalType":"string","name":"governingLaw","type":"string"},{"internalType":"string","name":"sellerId","type":"string"},{"internalType":"string","name":"usageNotes","type":"string"},{"internalType":"string","name":"advertisementTitle","type":"string"},{"internalType":"string","name":"productDescription","type":"string"},{"internalType":"string","name":"contentDescription","type":"string"},{"internalType":"string","name":"intendedPlatforms","type":"string"},{"internalType":"string","name":"additionalInfo","type":"string"}],"internalType":"struct NitrilityAuction.Metadata","name":"metadata","type":"tuple"}],"internalType":"struct NitrilityAuction.LicensesData[]","name":"licenseDatas","type":"tuple[]"}],"name":"purchaseLicenses","outputs":[],"stateMutability":"payable","type":"function"},{"inputs":[{"internalType":"uint256","name":"offerId","type":"uint256"}],"name":"rejectOffer","outputs":[],"stateMutability":"nonpayable","type":"function"},{"inputs":[],"name":"renounceOwnership","outputs":[],"stateMutability":"nonpayable","type":"function"},{"inputs":[{"internalType":"address","name":"_nitrilityFactory","type":"address"}],"name":"setFactory","outputs":[],"stateMutability":"nonpayable","type":"function"},{"inputs":[{"internalType":"address","name":"_marketOwner","type":"address"}],"name":"setMarketOwner","outputs":[],"stateMutability":"nonpayable","type":"function"},{"inputs":[{"internalType":"address","name":"newOwner","type":"address"}],"name":"transferOwnership","outputs":[],"stateMutability":"nonpayable","type":"function"}],"evm":{"bytecode":{"linkReferences":{},"object":"60806040523480156200001157600080fd5b5033806200003957604051631e4fbdf760e01b81526000600482015260240160405180910390fd5b620000448162000061565b5060018055600280546001600160a01b03191633179055620000b1565b600080546001600160a01b038381166001600160a01b0319831681178455604051919092169283917f8be0079c531659141344cd1fd0a4f28419497f9722a3daafe3b4186f6b6457e09190a35050565b6135a280620000c16000396000f3fe6080604052600436106100e85760003560e01c80636cdaa4211161008a5780638dc692c6116100595780638dc692c614610253578063a073827f14610266578063ee8e028c14610279578063f2fde38b1461029957600080fd5b80636cdaa421146101e0578063715018a61461020057806388b10c75146102155780638da5cb5b1461023557600080fd5b806347d90b5c116100c657806347d90b5c1461017a5780634f4e5de81461019a5780635bb47808146101ad5780636181236f146101cd57600080fd5b80630eba45d8146100ed5780632a355af91461010f5780632e70151014610142575b600080fd5b3480156100f957600080fd5b5061010d61010836600461254e565b6102b9565b005b34801561011b57600080fd5b5061012f61012a366004612677565b6106c8565b6040519081526020015b60405180910390f35b34801561014e57600080fd5b50600354610162906001600160a01b031681565b6040516001600160a01b039091168152602001610139565b34801561018657600080fd5b50600254610162906001600160a01b031681565b61010d6101a83660046126b8565b6109f6565b3480156101b957600080fd5b5061010d6101c83660046126fd565b610bfb565b61010d6101db366004612718565b610c82565b3480156101ec57600080fd5b5061010d6101fb3660046126fd565b610cda565b34801561020c57600080fd5b5061010d610d61565b34801561022157600080fd5b5061010d6102303660046127dc565b610d75565b34801561024157600080fd5b506000546001600160a01b0316610162565b61010d6102613660046127f5565b610f8a565b61010d610274366004612677565b611541565b34801561028557600080fd5b5061012f6102943660046127dc565b611926565b3480156102a557600080fd5b5061010d6102b43660046126fd565b61203e565b6102c58b8b888861207c565b156103235760405162461bcd60e51b8152602060048201526024808201527f416c726561647920706c61636564206120626964206f6e2074686973206c6963604482015263656e736560e01b60648201526084015b60405180910390fd5b610331600480546001019055565b600061033c60045490565b905061034960058261219d565b506040518061018001604052808281526020018d8d8080601f0160208091040260200160405190810160405280939291908181526020018383808284376000920191909152505050908252506001600160a01b0387166020808301919091526040808301889052606083018e90528051601f8d018390048302810183019091528b8152608090920191908c908c90819084018382808284376000920191909152505050908252506020016001815260200188600581111561040c5761040c61289b565b81526020018760038111156104235761042361289b565b81526020018481526020014281526020018361043e906129d1565b90526000828152600960209081526040909120825181559082015160018201906104689082612bc3565b5060408201516002820180546001600160a01b0319166001600160a01b03909216919091179055606082015160038201556080820151600482015560a082015160058201906104b79082612bc3565b5060c08201518160060160006101000a81548160ff021916908360068111156104e2576104e261289b565b021790555060e082015160068201805461ff00191661010083600581111561050c5761050c61289b565b021790555061010082015160068201805462ff00001916620100008360038111156105395761053961289b565b0217905550610120820151600782015561014082015160088201556101608201518051600983018054909190829060ff19166001838181111561057e5761057e61289b565b021790555060208201516001820155604082015160028201906105a19082612bc3565b50606082015160038201906105b69082612bc3565b50608082015160048201906105cb9082612bc3565b5060a082015160058201906105e09082612bc3565b5060c082015160068201906105f59082612bc3565b5060e0820151600782019061060a9082612bc3565b5061010082015160088201906106209082612bc3565b5061012082015160098201906106369082612bc3565b50505090505060008051602061354d83398151915281858c60016000604051610663959493929190612c96565b60405180910390a16106968160078e8e604051610681929190612cca565b9081526040519081900360200190209061219d565b506001600160a01b03851660009081526008602052604090206106b9908261219d565b50505050505050505050505050565b600080805b838110156109ec5760008060008787858181106106ec576106ec612cda565b90506020028101906106fe9190612cf0565b61070d90610100810190612d11565b61071690612e16565b905087878581811061072a5761072a612cda565b905060200281019061073c9190612cf0565b61074e9061010081019060e001612f3d565b600381111561075f5761075f61289b565b81610100015160038111156107765761077661289b565b14806107985750600281610100015160038111156107965761079661289b565b145b6107a157600080fd5b60008888868181106107b5576107b5612cda565b90506020028101906107c79190612cf0565b6107d89060e081019060c001612f5a565b60058111156107e9576107e961289b565b0361095357806101800151602001518051906020012088888681811061081157610811612cda565b90506020028101906108239190612cf0565b61082d9080612f75565b60405161083b929190612cca565b6040518091039020036108a4578061018001516060015192506064831061089c5760405162461bcd60e51b8152602060048201526015602482015274496e56616c696420446973636f756e7420436f646560581b604482015260640161031a565b5050506109ec565b6001816060015160028111156108bc576108bc61289b565b036109245760018888868181106108d5576108d5612cda565b90506020028101906108e79190612cf0565b6108f99061010081019060e001612f3d565b600381111561090a5761090a61289b565b0361091b578060200151915061097e565b8051915061097e565b87878581811061093657610936612cda565b90506020028101906109489190612cf0565b60600135915061097e565b87878581811061096557610965612cda565b90506020028101906109779190612cf0565b6060013591505b606488888681811061099257610992612cda565b90506020028101906109a49190612cf0565b60a001356109b3856064612fd1565b6109bd9085612fe4565b6109c79190612fe4565b6109d19190612ffb565b6109db908661301d565b945050600190920191506106cd9050565b5090505b92915050565b60008481526009602052604090206005826006811115610a1857610a1861289b565b1480610a3557506004826006811115610a3357610a3361289b565b145b610a915760405162461bcd60e51b815260206004820152602760248201527f596f752063616e206a7573742065646974206f72207769746864726177207468604482015266329037b33332b960c91b606482015260840161031a565b60028101546001600160a01b03163314610afd5760405162461bcd60e51b815260206004820152602760248201527f417574686f72697a6174696f6e3a20596f752063616e74206564697420746869604482015266399037b33332b960c91b606482015260840161031a565b80600301548410610bb757348160030154610b18919061301d565b841115610b7c5760405162461bcd60e51b815260206004820152602c60248201527f596f752073686f756c6420616464206d6f72652066756e647320746f2065646960448201526b3a103a3434b99037b33332b960a11b606482015260840161031a565b6003546040516001600160a01b03909116903480156108fc02916000818181858888f19350505050158015610bb5573d6000803e3d6000fd5b505b600381018490556004810183905560405160008051602061354d83398151915290610bec908790879087908790600090612c96565b60405180910390a15050505050565b6000546001600160a01b0316331480610c1e57506002546001600160a01b031633145b610c605760405162461bcd60e51b81526020600482015260136024820152722ab730baba3437b934bd32b21031b0b63632b960691b604482015260640161031a565b600380546001600160a01b0319166001600160a01b0392909216919091179055565b610c9688888888888888333460018b6102b9565b6003546040516001600160a01b03909116903480156108fc02916000818181858888f19350505050158015610ccf573d6000803e3d6000fd5b505050505050505050565b6000546001600160a01b0316331480610cfd57506002546001600160a01b031633145b610d3f5760405162461bcd60e51b81526020600482015260136024820152722ab730baba3437b934bd32b21031b0b63632b960691b604482015260640161031a565b600280546001600160a01b0319166001600160a01b0392909216919091179055565b610d696121b0565b610d7360006121dd565b565b600081815260096020526040812060028101546001600160a01b0316331480610da857506002546001600160a01b031633145b610e065760405162461bcd60e51b815260206004820152602960248201527f417574686f72697a6174696f6e3a20596f752063616e742072656a65637420746044820152683434b99037b33332b960b91b606482015260840161031a565b60028101546001600160a01b03163303610e235760009150610e28565b600191505b600360068083015460ff1690811115610e4357610e4361289b565b14158015610e6a5750600460068083015460ff1690811115610e6757610e6761289b565b14155b8015610e8f5750600260068083015460ff1690811115610e8c57610e8c61289b565b14155b610ecf5760405162461bcd60e51b8152602060048201526011602482015270496e76616c69642053616c65205479706560781b604482015260640161031a565b60068101805460ff1916600390811790915580820154600483015460405160008051602061354d83398151915292610f0c92889286908990612c96565b60405180910390a1600380546002840154918401546040516376ab956160e11b81526001600160a01b039384166004820152602481019190915291169063ed572ac290604401600060405180830381600087803b158015610f6c57600080fd5b505af1158015610f80573d6000803e3d6000fd5b5050505050505050565b600086815260096020526040902060028101546001600160a01b0316331480610fbd57506002546001600160a01b031633145b61101b5760405162461bcd60e51b815260206004820152602960248201527f417574686f72697a6174696f6e3a20596f752063616e742061636365707420746044820152683434b99037b33332b960b91b606482015260840161031a565b60028101546000906001600160a01b0316330361103a5750600061103e565b5060015b600360068084015460ff16908111156110595761105961289b565b141580156110805750600460068084015460ff169081111561107d5761107d61289b565b14155b80156110a55750600260068084015460ff16908111156110a2576110a261289b565b14155b6110e55760405162461bcd60e51b8152602060048201526011602482015270496e76616c69642053616c65205479706560781b604482015260640161031a565b600080600684015462010000900460ff1660038111156111075761110761289b565b036111145750843561111b565b5060208501355b82600301548110156111b15760038054908401546001600160a01b039091169063ed572ac290339061114e908590612fd1565b6040516001600160e01b031960e085901b1681526001600160a01b0390921660048301526024820152604401600060405180830381600087803b15801561119457600080fd5b505af11580156111a8573d6000803e3d6000fd5b50505050611262565b3483600301546111c1919061301d565b8111156112275760405162461bcd60e51b815260206004820152602e60248201527f596f752073686f756c6420616464206d6f72652066756e647320746f2061636360448201526d32b83a103a3434b99037b33332b960911b606482015260840161031a565b6003546040516001600160a01b03909116903480156108fc02916000818181858888f19350505050158015611260573d6000803e3d6000fd5b505b60068301805460ff191660021790556040805160e0810190915260018401805460009291829161129190612b3e565b80601f01602080910402602001604051908101604052809291908181526020018280546112bd90612b3e565b801561130a5780601f106112df5761010080835404028352916020019161130a565b820191906000526020600020905b8154815290600101906020018083116112ed57829003601f168201915b505050505081526020018a8a8080601f01602080910402602001604051908101604052809392919081815260200183838082843760009201919091525050509082525060058601805460209092019161136290612b3e565b80601f016020809104026020016040519081016040528092919081815260200182805461138e90612b3e565b80156113db5780601f106113b0576101008083540402835291602001916113db565b820191906000526020600020905b8154815290600101906020018083116113be57829003601f168201915b505050918352505060028601546001600160a01b0316602082015260400161140289612e16565b81526003808701546020830152600787015460409283015254600687015491516319ac33df60e31b81529293506001600160a01b03169163cd619ef89161146491859160ff610100820481169260029262010000900490911690600401613253565b600060405180830381600087803b15801561147e57600080fd5b505af1158015611492573d6000803e3d6000fd5b5050600380549087015460405163a7d70f8160e01b81526001600160a01b03909216935063a7d70f8192506114cd918a918a91600401613396565b600060405180830381600087803b1580156114e757600080fd5b505af11580156114fb573d6000803e3d6000fd5b5050505060008051602061354d8339815191528a8560030154866004015460028760405161152d959493929190612c96565b60405180910390a150505050505050505050565b600061154d83836106c8565b9050348111156115c7576040805162461bcd60e51b81526020600482015260248101919091527f546f74616c2050726963652073686f756c64206265206c61726765722074686160448201527f6e2074686520616d6f756e74206f6620746865206d61726b6574207072696365606482015260840161031a565b6003546040516001600160a01b03909116903480156108fc02916000818181858888f19350505050158015611600573d6000803e3d6000fd5b5060005b82811015611920573684848381811061161f5761161f612cda565b90506020028101906116319190612cf0565b905036611642610100830183612d11565b905061164d8161222d565b60008061166060e0850160c08601612f5a565b60058111156116715761167161289b565b036116e65760016116886080840160608501613485565b60028111156116995761169961289b565b036116db5760006116b1610100850160e08601612f3d565b60038111156116c2576116c261289b565b146116d15781602001356116d4565b81355b90506116ed565b5060608201356116ed565b5060608201355b60016116ff6080840160608501613485565b60028111156117105761171061289b565b036118bd5760006040518060e001604052808580604001906117329190612f75565b8080601f01602080910402602001604051908101604052809392919081815260200183838082843760009201919091525050509082525060200161177a610120870187612cf0565b611788906060810190612f75565b8080601f0160208091040260200160405190810160405280939291908181526020018383808284376000920191909152505050908252506020908101906117d190870187612f75565b8080601f01602080910402602001604051908101604052809392919081815260200183838082843760009201919091525050509082525033602082015260400161181a85612e16565b81526020810184905260a08601356040909101526003549091506001600160a01b031663cd619ef88261185360e0880160c08901612f5a565b60006118666101008a0160e08b01612f3d565b6040518563ffffffff1660e01b81526004016118859493929190613253565b600060405180830381600087803b15801561189f57600080fd5b505af11580156118b3573d6000803e3d6000fd5b5050505050611915565b6119156118cd6040850185612f75565b60808601356118df6020880188612f75565b6118ef60e08a0160c08b01612f5a565b6119006101008b0160e08c01612f3d565b338960a08d01356101086101208f018f612cf0565b505050600101611604565b50505050565b6000818152600960209081526040808320815161018081019092528054825260018101805485948401919061195a90612b3e565b80601f016020809104026020016040519081016040528092919081815260200182805461198690612b3e565b80156119d35780601f106119a8576101008083540402835291602001916119d3565b820191906000526020600020905b8154815290600101906020018083116119b657829003601f168201915b505050918352505060028201546001600160a01b031660208201526003820154604082015260048201546060820152600582018054608090920191611a1790612b3e565b80601f0160208091040260200160405190810160405280929190818152602001828054611a4390612b3e565b8015611a905780601f10611a6557610100808354040283529160200191611a90565b820191906000526020600020905b815481529060010190602001808311611a7357829003601f168201915b505050918352505060068281015460209092019160ff1690811115611ab757611ab761289b565b6006811115611ac857611ac861289b565b81526020016006820160019054906101000a900460ff166005811115611af057611af061289b565b6005811115611b0157611b0161289b565b81526020016006820160029054906101000a900460ff166003811115611b2957611b2961289b565b6003811115611b3a57611b3a61289b565b815260078201546020820152600882015460408083019190915280516101408101909152600983018054606090930192829060ff166001811115611b8057611b8061289b565b6001811115611b9157611b9161289b565b815260200160018201548152602001600282018054611baf90612b3e565b80601f0160208091040260200160405190810160405280929190818152602001828054611bdb90612b3e565b8015611c285780601f10611bfd57610100808354040283529160200191611c28565b820191906000526020600020905b815481529060010190602001808311611c0b57829003601f168201915b50505050508152602001600382018054611c4190612b3e565b80601f0160208091040260200160405190810160405280929190818152602001828054611c6d90612b3e565b8015611cba5780601f10611c8f57610100808354040283529160200191611cba565b820191906000526020600020905b815481529060010190602001808311611c9d57829003601f168201915b50505050508152602001600482018054611cd390612b3e565b80601f0160208091040260200160405190810160405280929190818152602001828054611cff90612b3e565b8015611d4c5780601f10611d2157610100808354040283529160200191611d4c565b820191906000526020600020905b815481529060010190602001808311611d2f57829003601f168201915b50505050508152602001600582018054611d6590612b3e565b80601f0160208091040260200160405190810160405280929190818152602001828054611d9190612b3e565b8015611dde5780601f10611db357610100808354040283529160200191611dde565b820191906000526020600020905b815481529060010190602001808311611dc157829003601f168201915b50505050508152602001600682018054611df790612b3e565b80601f0160208091040260200160405190810160405280929190818152602001828054611e2390612b3e565b8015611e705780601f10611e4557610100808354040283529160200191611e70565b820191906000526020600020905b815481529060010190602001808311611e5357829003601f168201915b50505050508152602001600782018054611e8990612b3e565b80601f0160208091040260200160405190810160405280929190818152602001828054611eb590612b3e565b8015611f025780601f10611ed757610100808354040283529160200191611f02565b820191906000526020600020905b815481529060010190602001808311611ee557829003601f168201915b50505050508152602001600882018054611f1b90612b3e565b80601f0160208091040260200160405190810160405280929190818152602001828054611f4790612b3e565b8015611f945780601f10611f6957610100808354040283529160200191611f94565b820191906000526020600020905b815481529060010190602001808311611f7757829003601f168201915b50505050508152602001600982018054611fad90612b3e565b80601f0160208091040260200160405190810160405280929190818152602001828054611fd990612b3e565b80156120265780601f10611ffb57610100808354040283529160200191612026565b820191906000526020600020905b81548152906001019060200180831161200957829003601f168201915b50505091909252505050905250606001519392505050565b6120466121b0565b6001600160a01b03811661207057604051631e4fbdf760e01b81526000600482015260240161031a565b612079816121dd565b50565b3360009081526008602052604081208190612096906123e1565b905060005b8181101561218e573360009081526008602052604081206120bc90836123eb565b60008181526009602052604090209091506120db600182018a8a6123f7565b80156120ff5750600160068083015460ff16908111156120fd576120fd61289b565b145b801561213857508660058111156121185761211861289b565b6006820154610100900460ff1660058111156121365761213661289b565b145b801561217257508560038111156121515761215161289b565b600682015462010000900460ff1660038111156121705761217061289b565b145b15612184576001945050505050612195565b505060010161209b565b5060009150505b949350505050565b60006121a98383612431565b9392505050565b6000546001600160a01b03163314610d735760405163118cdaa760e01b815233600482015260240161031a565b600080546001600160a01b038381166001600160a01b0319831681178455604051919092169283917f8be0079c531659141344cd1fd0a4f28419497f9722a3daafe3b4186f6b6457e09190a35050565b60016122416101c083016101a084016134a0565b60048111156122525761225261289b565b1461229f5760405162461bcd60e51b815260206004820152601760248201527f4c6963656e73652074797065206e6f74206c6973746564000000000000000000604482015260640161031a565b6122af60c0820160a083016134bb565b1580156122c0575060008160800135115b806122d657506122d660c0820160a083016134bb565b6123195760405162461bcd60e51b8152602060048201526014602482015273546f74616c20737570706c79206973207a65726f60601b604482015260640161031a565b61232960e0820160c083016134bb565b61207957600061233b426103e8612fe4565b90508082610120013511156123925760405162461bcd60e51b815260206004820152601b60248201527f4c6963656e736520686173206e6f742073746172746564207965740000000000604482015260640161031a565b8082610140013510156123dd5760405162461bcd60e51b8152602060048201526013602482015272131a58d95b9cd9481a185cc8195e1c1a5c9959606a1b604482015260640161031a565b5050565b60006109f0825490565b60006121a98383612480565b60008282604051612409929190612cca565b60405180910390208460405161241f91906134d6565b60405180910390201490509392505050565b6000818152600183016020526040812054612478575081546001818101845560008481526020808220909301849055845484825282860190935260409020919091556109f0565b5060006109f0565b600082600001828154811061249757612497612cda565b9060005260206000200154905092915050565b60008083601f8401126124bc57600080fd5b5081356001600160401b038111156124d357600080fd5b6020830191508360208285010111156124eb57600080fd5b9250929050565b80356006811061250157600080fd5b919050565b6004811061207957600080fd5b803561250181612506565b80356001600160a01b038116811461250157600080fd5b6000610140828403121561254857600080fd5b50919050565b60008060008060008060008060008060006101208c8e03121561257057600080fd5b6001600160401b03808d35111561258657600080fd5b6125938e8e358f016124aa565b909c509a5060208d0135995060408d01358110156125b057600080fd5b6125c08e60408f01358f016124aa565b90995097506125d160608e016124f2565b96506125df60808e01612513565b95506125ed60a08e0161251e565b945060c08d0135935060e08d01359250806101008e0135111561260f57600080fd5b506126218d6101008e01358e01612535565b90509295989b509295989b9093969950565b60008083601f84011261264557600080fd5b5081356001600160401b0381111561265c57600080fd5b6020830191508360208260051b85010111156124eb57600080fd5b6000806020838503121561268a57600080fd5b82356001600160401b038111156126a057600080fd5b6126ac85828601612633565b90969095509350505050565b600080600080608085870312156126ce57600080fd5b8435935060208501359250604085013591506060850135600781106126f257600080fd5b939692955090935050565b60006020828403121561270f57600080fd5b6121a98261251e565b60008060008060008060008060c0898b03121561273457600080fd5b88356001600160401b038082111561274b57600080fd5b6127578c838d016124aa565b909a50985060208b0135975060408b013591508082111561277757600080fd5b6127838c838d016124aa565b909750955085915061279760608c016124f2565b945060808b013591506127a982612506565b90925060a08a013590808211156127bf57600080fd5b506127cc8b828c01612535565b9150509295985092959890939650565b6000602082840312156127ee57600080fd5b5035919050565b6000806000806000806080878903121561280e57600080fd5b8635955060208701356001600160401b038082111561282c57600080fd5b6128388a838b016124aa565b9097509550604089013591508082111561285157600080fd5b908801906101e0828b03121561286657600080fd5b9093506060880135908082111561287c57600080fd5b5061288989828a01612633565b979a9699509497509295939492505050565b634e487b7160e01b600052602160045260246000fd5b634e487b7160e01b600052604160045260246000fd5b60405161014081016001600160401b03811182821017156128ea576128ea6128b1565b60405290565b60405161010081016001600160401b03811182821017156128ea576128ea6128b1565b6040516101e081016001600160401b03811182821017156128ea576128ea6128b1565b80356002811061250157600080fd5b600082601f83011261295657600080fd5b81356001600160401b0380821115612970576129706128b1565b604051601f8301601f19908116603f01168101908282118183101715612998576129986128b1565b816040528381528660208588010111156129b157600080fd5b836020870160208301376000602085830101528094505050505092915050565b600061014082360312156129e457600080fd5b6129ec6128c7565b6129f583612936565b81526020830135602082015260408301356001600160401b0380821115612a1b57600080fd5b612a2736838701612945565b60408401526060850135915080821115612a4057600080fd5b612a4c36838701612945565b60608401526080850135915080821115612a6557600080fd5b612a7136838701612945565b608084015260a0850135915080821115612a8a57600080fd5b612a9636838701612945565b60a084015260c0850135915080821115612aaf57600080fd5b612abb36838701612945565b60c084015260e0850135915080821115612ad457600080fd5b612ae036838701612945565b60e084015261010091508185013581811115612afb57600080fd5b612b0736828801612945565b838501525061012091508185013581811115612b2257600080fd5b612b2e36828801612945565b8385015250505080915050919050565b600181811c90821680612b5257607f821691505b60208210810361254857634e487b7160e01b600052602260045260246000fd5b601f821115612bbe576000816000526020600020601f850160051c81016020861015612b9b5750805b601f850160051c820191505b81811015612bba57828155600101612ba7565b5050505b505050565b81516001600160401b03811115612bdc57612bdc6128b1565b612bf081612bea8454612b3e565b84612b72565b602080601f831160018114612c255760008415612c0d5750858301515b600019600386901b1c1916600185901b178555612bba565b600085815260208120601f198616915b82811015612c5457888601518255948401946001909101908401612c35565b5085821015612c725787850151600019600388901b60f8161c191681555b5050505050600190811b01905550565b60078110612c9257612c9261289b565b9052565b858152602081018590526040810184905260a08101612cb86060830185612c82565b82151560808301529695505050505050565b8183823760009101908152919050565b634e487b7160e01b600052603260045260246000fd5b6000823561013e19833603018112612d0757600080fd5b9190910192915050565b600082356101de19833603018112612d0757600080fd5b80356003811061250157600080fd5b8035801515811461250157600080fd5b60006101008284031215612d5a57600080fd5b612d626128f0565b905081356001600160401b0380821115612d7b57600080fd5b612d8785838601612945565b83526020840135915080821115612d9d57600080fd5b50612daa84828501612945565b602083015250612dbc60408301612936565b60408201526060820135606082015260808201356080820152612de160a08301612d37565b60a082015260c082013560c0820152612dfc60e08301612d37565b60e082015292915050565b80356005811061250157600080fd5b60006101e08236031215612e2957600080fd5b612e31612913565b823581526020830135602082015260408301356040820152612e5560608401612d28565b606082015260808301356080820152612e7060a08401612d37565b60a0820152612e8160c08401612d37565b60c0820152612e9260e08401612d37565b60e0820152610100612ea5818501612513565b90820152610120838101359082015261014080840135908201526101608084013590820152610180808401356001600160401b0380821115612ee657600080fd5b612ef236838801612d47565b838501526101a09250612f06838701612e07565b838501526101c0925082860135915080821115612f2257600080fd5b50612f2f36828701612945565b918301919091525092915050565b600060208284031215612f4f57600080fd5b81356121a981612506565b600060208284031215612f6c57600080fd5b6121a9826124f2565b6000808335601e19843603018112612f8c57600080fd5b8301803591506001600160401b03821115612fa657600080fd5b6020019150368190038213156124eb57600080fd5b634e487b7160e01b600052601160045260246000fd5b818103818111156109f0576109f0612fbb565b80820281158282048414176109f0576109f0612fbb565b60008261301857634e487b7160e01b600052601260045260246000fd5b500490565b808201808211156109f0576109f0612fbb565b6000815180845260005b818110156130565760208185018101518683018201520161303a565b506000602082860101526020601f19601f83011685010191505092915050565b60038110612c9257612c9261289b565b600481106120795761207961289b565b612c9281613086565b600061010082518185526130b582860182613030565b915050602083015184820360208601526130cf8282613030565b9150506040830151600281106130e7576130e761289b565b80604086015250606083015160608501526080830151608085015260a083015161311560a086018215159052565b5060c083015160c085015260e08301516109ec60e086018215159052565b60058110612c9257612c9261289b565b60006101e082518452602083015160208501526040830151604085015260608301516131726060860182613076565b506080830151608085015260a083015161319060a086018215159052565b5060c08301516131a460c086018215159052565b5060e08301516131b860e086018215159052565b50610100808401516131cc82870182613096565b5050610120838101519085015261014080840151908501526101608084015190850152610180808401518186018390526132088387018261309f565b925050506101a08084015161321f82870182613133565b50506101c080840151858303828701526132398382613030565b9695505050505050565b60068110612c9257612c9261289b565b608081526000855160e06080840152613270610160840182613030565b90506020870151607f19808584030160a086015261328e8383613030565b925060408901519150808584030160c08601526132ab8383613030565b60608a01516001600160a01b031660e087015260808a0151868203909201610100870152925090506132dd8282613143565b60a089015161012086015260c089015161014086015292506133059150506020830186613243565b6133126040830185612c82565b61331f6060830184613096565b95945050505050565b6000808335601e1984360301811261333f57600080fd5b83016020810192503590506001600160401b0381111561335e57600080fd5b8036038213156124eb57600080fd5b81835281816020850137506000828201602090810191909152601f909101601f19169091010190565b60408082528181018490526000906060808401600587901b850182018885805b8a81101561346d57888403605f190185528235368d9003609e190181126133db578283fd5b8c0160a06133e98280613328565b8288526133f9838901828461336d565b92505050602061340b81840184613328565b888403838a015261341d84828461336d565b93505050898301358a880152613434898401612d37565b1515878a01526080928301359261344a84612506565b61345384613086565b9690960191909152948401949392909201916001016133b6565b50505080945050505050826020830152949350505050565b60006020828403121561349757600080fd5b6121a982612d28565b6000602082840312156134b257600080fd5b6121a982612e07565b6000602082840312156134cd57600080fd5b6121a982612d37565b60008083546134e481612b3e565b600182811680156134fc576001811461351157613540565b60ff1984168752821515830287019450613540565b8760005260208060002060005b858110156135375781548a82015290840190820161351e565b50505082870194505b5092969550505050505056fe665a17e15a1574e030de617ea82c2940fc9b62f64f5b5379d9eef1ed2979b379a26469706673582212209eba562c70108b72a99354b8c2bacbf80e113b9c8ed36f161e7b16f2e570fe4a64736f6c63430008170033","opcodes":"PUSH1 0x80 PUSH1 0x40 MSTORE CALLVALUE DUP1 ISZERO PUSH3 0x11 JUMPI PUSH1 0x0 DUP1 REVERT JUMPDEST POP CALLER DUP1 PUSH3 0x39 JUMPI PUSH1 0x40 MLOAD PUSH4 0x1E4FBDF7 PUSH1 0xE0 SHL DUP2 MSTORE PUSH1 0x0 PUSH1 0x4 DUP3 ADD MSTORE PUSH1 0x24 ADD PUSH1 0x40 MLOAD DUP1 SWAP2 SUB SWAP1 REVERT JUMPDEST PUSH3 0x44 DUP2 PUSH3 0x61 JUMP JUMPDEST POP PUSH1 0x1 DUP1 SSTORE PUSH1 0x2 DUP1 SLOAD PUSH1 0x1 PUSH1 0x1 PUSH1 0xA0 SHL SUB NOT AND CALLER OR SWAP1 SSTORE PUSH3 0xB1 JUMP JUMPDEST PUSH1 0x0 DUP1 SLOAD PUSH1 0x1 PUSH1 0x1 PUSH1 0xA0 SHL SUB DUP4 DUP2 AND PUSH1 0x1 PUSH1 0x1 PUSH1 0xA0 SHL SUB NOT DUP4 AND DUP2 OR DUP5 SSTORE PUSH1 0x40 MLOAD SWAP2 SWAP1 SWAP3 AND SWAP3 DUP4 SWAP2 PUSH32 0x8BE0079C531659141344CD1FD0A4F28419497F9722A3DAAFE3B4186F6B6457E0 SWAP2 SWAP1 LOG3 POP POP JUMP JUMPDEST PUSH2 0x35A2 DUP1 PUSH3 0xC1 PUSH1 0x0 CODECOPY PUSH1 0x0 RETURN INVALID PUSH1 0x80 PUSH1 0x40 MSTORE PUSH1 0x4 CALLDATASIZE LT PUSH2 0xE8 JUMPI PUSH1 0x0 CALLDATALOAD PUSH1 0xE0 SHR DUP1 PUSH4 0x6CDAA421 GT PUSH2 0x8A JUMPI DUP1 PUSH4 0x8DC692C6 GT PUSH2 0x59 JUMPI DUP1 PUSH4 0x8DC692C6 EQ PUSH2 0x253 JUMPI DUP1 PUSH4 0xA073827F EQ PUSH2 0x266 JUMPI DUP1 PUSH4 0xEE8E028C EQ PUSH2 0x279 JUMPI DUP1 PUSH4 0xF2FDE38B EQ PUSH2 0x299 JUMPI PUSH1 0x0 DUP1 REVERT JUMPDEST DUP1 PUSH4 0x6CDAA421 EQ PUSH2 0x1E0 JUMPI DUP1 PUSH4 0x715018A6 EQ PUSH2 0x200 JUMPI DUP1 PUSH4 0x88B10C75 EQ PUSH2 0x215 JUMPI DUP1 PUSH4 0x8DA5CB5B EQ PUSH2 0x235 JUMPI PUSH1 0x0 DUP1 REVERT JUMPDEST DUP1 PUSH4 0x47D90B5C GT PUSH2 0xC6 JUMPI DUP1 PUSH4 0x47D90B5C EQ PUSH2 0x17A JUMPI DUP1 PUSH4 0x4F4E5DE8 EQ PUSH2 0x19A JUMPI DUP1 PUSH4 0x5BB47808 EQ PUSH2 0x1AD JUMPI DUP1 PUSH4 0x6181236F EQ PUSH2 0x1CD JUMPI PUSH1 0x0 DUP1 REVERT JUMPDEST DUP1 PUSH4 0xEBA45D8 EQ PUSH2 0xED JUMPI DUP1 PUSH4 0x2A355AF9 EQ PUSH2 0x10F JUMPI DUP1 PUSH4 0x2E701510 EQ PUSH2 0x142 JUMPI JUMPDEST PUSH1 0x0 DUP1 REVERT JUMPDEST CALLVALUE DUP1 ISZERO PUSH2 0xF9 JUMPI PUSH1 0x0 DUP1 REVERT JUMPDEST POP PUSH2 0x10D PUSH2 0x108 CALLDATASIZE PUSH1 0x4 PUSH2 0x254E JUMP JUMPDEST PUSH2 0x2B9 JUMP JUMPDEST STOP JUMPDEST CALLVALUE DUP1 ISZERO PUSH2 0x11B JUMPI PUSH1 0x0 DUP1 REVERT JUMPDEST POP PUSH2 0x12F PUSH2 0x12A CALLDATASIZE PUSH1 0x4 PUSH2 0x2677 JUMP JUMPDEST PUSH2 0x6C8 JUMP JUMPDEST PUSH1 0x40 MLOAD SWAP1 DUP2 MSTORE PUSH1 0x20 ADD JUMPDEST PUSH1 0x40 MLOAD DUP1 SWAP2 SUB SWAP1 RETURN JUMPDEST CALLVALUE DUP1 ISZERO PUSH2 0x14E JUMPI PUSH1 0x0 DUP1 REVERT JUMPDEST POP PUSH1 0x3 SLOAD PUSH2 0x162 SWAP1 PUSH1 0x1 PUSH1 0x1 PUSH1 0xA0 SHL SUB AND DUP2 JUMP JUMPDEST PUSH1 0x40 MLOAD PUSH1 0x1 PUSH1 0x1 PUSH1 0xA0 SHL SUB SWAP1 SWAP2 AND DUP2 MSTORE PUSH1 0x20 ADD PUSH2 0x139 JUMP JUMPDEST CALLVALUE DUP1 ISZERO PUSH2 0x186 JUMPI PUSH1 0x0 DUP1 REVERT JUMPDEST POP PUSH1 0x2 SLOAD PUSH2 0x162 SWAP1 PUSH1 0x1 PUSH1 0x1 PUSH1 0xA0 SHL SUB AND DUP2 JUMP JUMPDEST PUSH2 0x10D PUSH2 0x1A8 CALLDATASIZE PUSH1 0x4 PUSH2 0x26B8 JUMP JUMPDEST PUSH2 0x9F6 JUMP JUMPDEST CALLVALUE DUP1 ISZERO PUSH2 0x1B9 JUMPI PUSH1 0x0 DUP1 REVERT JUMPDEST POP PUSH2 0x10D PUSH2 0x1C8 CALLDATASIZE PUSH1 0x4 PUSH2 0x26FD JUMP JUMPDEST PUSH2 0xBFB JUMP JUMPDEST PUSH2 0x10D PUSH2 0x1DB CALLDATASIZE PUSH1 0x4 PUSH2 0x2718 JUMP JUMPDEST PUSH2 0xC82 JUMP JUMPDEST CALLVALUE DUP1 ISZERO PUSH2 0x1EC JUMPI PUSH1 0x0 DUP1 REVERT JUMPDEST POP PUSH2 0x10D PUSH2 0x1FB CALLDATASIZE PUSH1 0x4 PUSH2 0x26FD JUMP JUMPDEST PUSH2 0xCDA JUMP JUMPDEST CALLVALUE DUP1 ISZERO PUSH2 0x20C JUMPI PUSH1 0x0 DUP1 REVERT JUMPDEST POP PUSH2 0x10D PUSH2 0xD61 JUMP JUMPDEST CALLVALUE DUP1 ISZERO PUSH2 0x221 JUMPI PUSH1 0x0 DUP1 REVERT JUMPDEST POP PUSH2 0x10D PUSH2 0x230 CALLDATASIZE PUSH1 0x4 PUSH2 0x27DC JUMP JUMPDEST PUSH2 0xD75 JUMP JUMPDEST CALLVALUE DUP1 ISZERO PUSH2 0x241 JUMPI PUSH1 0x0 DUP1 REVERT JUMPDEST POP PUSH1 0x0 SLOAD PUSH1 0x1 PUSH1 0x1 PUSH1 0xA0 SHL SUB AND PUSH2 0x162 JUMP JUMPDEST PUSH2 0x10D PUSH2 0x261 CALLDATASIZE PUSH1 0x4 PUSH2 0x27F5 JUMP JUMPDEST PUSH2 0xF8A JUMP JUMPDEST PUSH2 0x10D PUSH2 0x274 CALLDATASIZE PUSH1 0x4 PUSH2 0x2677 JUMP JUMPDEST PUSH2 0x1541 JUMP JUMPDEST CALLVALUE DUP1 ISZERO PUSH2 0x285 JUMPI PUSH1 0x0 DUP1 REVERT JUMPDEST POP PUSH2 0x12F PUSH2 0x294 CALLDATASIZE PUSH1 0x4 PUSH2 0x27DC JUMP JUMPDEST PUSH2 0x1926 JUMP JUMPDEST CALLVALUE DUP1 ISZERO PUSH2 0x2A5 JUMPI PUSH1 0x0 DUP1 REVERT JUMPDEST POP PUSH2 0x10D PUSH2 0x2B4 CALLDATASIZE PUSH1 0x4 PUSH2 0x26FD JUMP JUMPDEST PUSH2 0x203E JUMP JUMPDEST PUSH2 0x2C5 DUP12 DUP12 DUP9 DUP9 PUSH2 0x207C JUMP JUMPDEST ISZERO PUSH2 0x323 JUMPI PUSH1 0x40 MLOAD PUSH3 0x461BCD PUSH1 0xE5 SHL DUP2 MSTORE PUSH1 0x20 PUSH1 0x4 DUP3 ADD MSTORE PUSH1 0x24 DUP1 DUP3 ADD MSTORE PUSH32 0x416C726561647920706C61636564206120626964206F6E2074686973206C6963 PUSH1 0x44 DUP3 ADD MSTORE PUSH4 0x656E7365 PUSH1 0xE0 SHL PUSH1 0x64 DUP3 ADD MSTORE PUSH1 0x84 ADD JUMPDEST PUSH1 0x40 MLOAD DUP1 SWAP2 SUB SWAP1 REVERT JUMPDEST PUSH2 0x331 PUSH1 0x4 DUP1 SLOAD PUSH1 0x1 ADD SWAP1 SSTORE JUMP JUMPDEST PUSH1 0x0 PUSH2 0x33C PUSH1 0x4 SLOAD SWAP1 JUMP JUMPDEST SWAP1 POP PUSH2 0x349 PUSH1 0x5 DUP3 PUSH2 0x219D JUMP JUMPDEST POP PUSH1 0x40 MLOAD DUP1 PUSH2 0x180 ADD PUSH1 0x40 MSTORE DUP1 DUP3 DUP2 MSTORE PUSH1 0x20 ADD DUP14 DUP14 DUP1 DUP1 PUSH1 0x1F ADD PUSH1 0x20 DUP1 SWAP2 DIV MUL PUSH1 0x20 ADD PUSH1 0x40 MLOAD SWAP1 DUP2 ADD PUSH1 0x40 MSTORE DUP1 SWAP4 SWAP3 SWAP2 SWAP1 DUP2 DUP2 MSTORE PUSH1 0x20 ADD DUP4 DUP4 DUP1 DUP3 DUP5 CALLDATACOPY PUSH1 0x0 SWAP3 ADD SWAP2 SWAP1 SWAP2 MSTORE POP POP POP SWAP1 DUP3 MSTORE POP PUSH1 0x1 PUSH1 0x1 PUSH1 0xA0 SHL SUB DUP8 AND PUSH1 0x20 DUP1 DUP4 ADD SWAP2 SWAP1 SWAP2 MSTORE PUSH1 0x40 DUP1 DUP4 ADD DUP9 SWAP1 MSTORE PUSH1 0x60 DUP4 ADD DUP15 SWAP1 MSTORE DUP1 MLOAD PUSH1 0x1F DUP14 ADD DUP4 SWAP1 DIV DUP4 MUL DUP2 ADD DUP4 ADD SWAP1 SWAP2 MSTORE DUP12 DUP2 MSTORE PUSH1 0x80 SWAP1 SWAP3 ADD SWAP2 SWAP1 DUP13 SWAP1 DUP13 SWAP1 DUP2 SWAP1 DUP5 ADD DUP4 DUP3 DUP1 DUP3 DUP5 CALLDATACOPY PUSH1 0x0 SWAP3 ADD SWAP2 SWAP1 SWAP2 MSTORE POP POP POP SWAP1 DUP3 MSTORE POP PUSH1 0x20 ADD PUSH1 0x1 DUP2 MSTORE PUSH1 0x20 ADD DUP9 PUSH1 0x5 DUP2 GT ISZERO PUSH2 0x40C JUMPI PUSH2 0x40C PUSH2 0x289B JUMP JUMPDEST DUP2 MSTORE PUSH1 0x20 ADD DUP8 PUSH1 0x3 DUP2 GT ISZERO PUSH2 0x423 JUMPI PUSH2 0x423 PUSH2 0x289B JUMP JUMPDEST DUP2 MSTORE PUSH1 0x20 ADD DUP5 DUP2 MSTORE PUSH1 0x20 ADD TIMESTAMP DUP2 MSTORE PUSH1 0x20 ADD DUP4 PUSH2 0x43E SWAP1 PUSH2 0x29D1 JUMP JUMPDEST SWAP1 MSTORE PUSH1 0x0 DUP3 DUP2 MSTORE PUSH1 0x9 PUSH1 0x20 SWAP1 DUP2 MSTORE PUSH1 0x40 SWAP1 SWAP2 KECCAK256 DUP3 MLOAD DUP2 SSTORE SWAP1 DUP3 ADD MLOAD PUSH1 0x1 DUP3 ADD SWAP1 PUSH2 0x468 SWAP1 DUP3 PUSH2 0x2BC3 JUMP JUMPDEST POP PUSH1 0x40 DUP3 ADD MLOAD PUSH1 0x2 DUP3 ADD DUP1 SLOAD PUSH1 0x1 PUSH1 0x1 PUSH1 0xA0 SHL SUB NOT AND PUSH1 0x1 PUSH1 0x1 PUSH1 0xA0 SHL SUB SWAP1 SWAP3 AND SWAP2 SWAP1 SWAP2 OR SWAP1 SSTORE PUSH1 0x60 DUP3 ADD MLOAD PUSH1 0x3 DUP3 ADD SSTORE PUSH1 0x80 DUP3 ADD MLOAD PUSH1 0x4 DUP3 ADD SSTORE PUSH1 0xA0 DUP3 ADD MLOAD PUSH1 0x5 DUP3 ADD SWAP1 PUSH2 0x4B7 SWAP1 DUP3 PUSH2 0x2BC3 JUMP JUMPDEST POP PUSH1 0xC0 DUP3 ADD MLOAD DUP2 PUSH1 0x6 ADD PUSH1 0x0 PUSH2 0x100 EXP DUP2 SLOAD DUP2 PUSH1 0xFF MUL NOT AND SWAP1 DUP4 PUSH1 0x6 DUP2 GT ISZERO PUSH2 0x4E2 JUMPI PUSH2 0x4E2 PUSH2 0x289B JUMP JUMPDEST MUL OR SWAP1 SSTORE POP PUSH1 0xE0 DUP3 ADD MLOAD PUSH1 0x6 DUP3 ADD DUP1 SLOAD PUSH2 0xFF00 NOT AND PUSH2 0x100 DUP4 PUSH1 0x5 DUP2 GT ISZERO PUSH2 0x50C JUMPI PUSH2 0x50C PUSH2 0x289B JUMP JUMPDEST MUL OR SWAP1 SSTORE POP PUSH2 0x100 DUP3 ADD MLOAD PUSH1 0x6 DUP3 ADD DUP1 SLOAD PUSH3 0xFF0000 NOT AND PUSH3 0x10000 DUP4 PUSH1 0x3 DUP2 GT ISZERO PUSH2 0x539 JUMPI PUSH2 0x539 PUSH2 0x289B JUMP JUMPDEST MUL OR SWAP1 SSTORE POP PUSH2 0x120 DUP3 ADD MLOAD PUSH1 0x7 DUP3 ADD SSTORE PUSH2 0x140 DUP3 ADD MLOAD PUSH1 0x8 DUP3 ADD SSTORE PUSH2 0x160 DUP3 ADD MLOAD DUP1 MLOAD PUSH1 0x9 DUP4 ADD DUP1 SLOAD SWAP1 SWAP2 SWAP1 DUP3 SWAP1 PUSH1 0xFF NOT AND PUSH1 0x1 DUP4 DUP2 DUP2 GT ISZERO PUSH2 0x57E JUMPI PUSH2 0x57E PUSH2 0x289B JUMP JUMPDEST MUL OR SWAP1 SSTORE POP PUSH1 0x20 DUP3 ADD MLOAD PUSH1 0x1 DUP3 ADD SSTORE PUSH1 0x40 DUP3 ADD MLOAD PUSH1 0x2 DUP3 ADD SWAP1 PUSH2 0x5A1 SWAP1 DUP3 PUSH2 0x2BC3 JUMP JUMPDEST POP PUSH1 0x60 DUP3 ADD MLOAD PUSH1 0x3 DUP3 ADD SWAP1 PUSH2 0x5B6 SWAP1 DUP3 PUSH2 0x2BC3 JUMP JUMPDEST POP PUSH1 0x80 DUP3 ADD MLOAD PUSH1 0x4 DUP3 ADD SWAP1 PUSH2 0x5CB SWAP1 DUP3 PUSH2 0x2BC3 JUMP JUMPDEST POP PUSH1 0xA0 DUP3 ADD MLOAD PUSH1 0x5 DUP3 ADD SWAP1 PUSH2 0x5E0 SWAP1 DUP3 PUSH2 0x2BC3 JUMP JUMPDEST POP PUSH1 0xC0 DUP3 ADD MLOAD PUSH1 0x6 DUP3 ADD SWAP1 PUSH2 0x5F5 SWAP1 DUP3 PUSH2 0x2BC3 JUMP JUMPDEST POP PUSH1 0xE0 DUP3 ADD MLOAD PUSH1 0x7 DUP3 ADD SWAP1 PUSH2 0x60A SWAP1 DUP3 PUSH2 0x2BC3 JUMP JUMPDEST POP PUSH2 0x100 DUP3 ADD MLOAD PUSH1 0x8 DUP3 ADD SWAP1 PUSH2 0x620 SWAP1 DUP3 PUSH2 0x2BC3 JUMP JUMPDEST POP PUSH2 0x120 DUP3 ADD MLOAD PUSH1 0x9 DUP3 ADD SWAP1 PUSH2 0x636 SWAP1 DUP3 PUSH2 0x2BC3 JUMP JUMPDEST POP POP POP SWAP1 POP POP PUSH1 0x0 DUP1 MLOAD PUSH1 0x20 PUSH2 0x354D DUP4 CODECOPY DUP2 MLOAD SWAP2 MSTORE DUP2 DUP6 DUP13 PUSH1 0x1 PUSH1 0x0 PUSH1 0x40 MLOAD PUSH2 0x663 SWAP6 SWAP5 SWAP4 SWAP3 SWAP2 SWAP1 PUSH2 0x2C96 JUMP JUMPDEST PUSH1 0x40 MLOAD DUP1 SWAP2 SUB SWAP1 LOG1 PUSH2 0x696 DUP2 PUSH1 0x7 DUP15 DUP15 PUSH1 0x40 MLOAD PUSH2 0x681 SWAP3 SWAP2 SWAP1 PUSH2 0x2CCA JUMP JUMPDEST SWAP1 DUP2 MSTORE PUSH1 0x40 MLOAD SWAP1 DUP2 SWAP1 SUB PUSH1 0x20 ADD SWAP1 KECCAK256 SWAP1 PUSH2 0x219D JUMP JUMPDEST POP PUSH1 0x1 PUSH1 0x1 PUSH1 0xA0 SHL SUB DUP6 AND PUSH1 0x0 SWAP1 DUP2 MSTORE PUSH1 0x8 PUSH1 0x20 MSTORE PUSH1 0x40 SWAP1 KECCAK256 PUSH2 0x6B9 SWAP1 DUP3 PUSH2 0x219D JUMP JUMPDEST POP POP POP POP POP POP POP POP POP POP POP POP POP JUMP JUMPDEST PUSH1 0x0 DUP1 DUP1 JUMPDEST DUP4 DUP2 LT ISZERO PUSH2 0x9EC JUMPI PUSH1 0x0 DUP1 PUSH1 0x0 DUP8 DUP8 DUP6 DUP2 DUP2 LT PUSH2 0x6EC JUMPI PUSH2 0x6EC PUSH2 0x2CDA JUMP JUMPDEST SWAP1 POP PUSH1 0x20 MUL DUP2 ADD SWAP1 PUSH2 0x6FE SWAP2 SWAP1 PUSH2 0x2CF0 JUMP JUMPDEST PUSH2 0x70D SWAP1 PUSH2 0x100 DUP2 ADD SWAP1 PUSH2 0x2D11 JUMP JUMPDEST PUSH2 0x716 SWAP1 PUSH2 0x2E16 JUMP JUMPDEST SWAP1 POP DUP8 DUP8 DUP6 DUP2 DUP2 LT PUSH2 0x72A JUMPI PUSH2 0x72A PUSH2 0x2CDA JUMP JUMPDEST SWAP1 POP PUSH1 0x20 MUL DUP2 ADD SWAP1 PUSH2 0x73C SWAP2 SWAP1 PUSH2 0x2CF0 JUMP JUMPDEST PUSH2 0x74E SWAP1 PUSH2 0x100 DUP2 ADD SWAP1 PUSH1 0xE0 ADD PUSH2 0x2F3D JUMP JUMPDEST PUSH1 0x3 DUP2 GT ISZERO PUSH2 0x75F JUMPI PUSH2 0x75F PUSH2 0x289B JUMP JUMPDEST DUP2 PUSH2 0x100 ADD MLOAD PUSH1 0x3 DUP2 GT ISZERO PUSH2 0x776 JUMPI PUSH2 0x776 PUSH2 0x289B JUMP JUMPDEST EQ DUP1 PUSH2 0x798 JUMPI POP PUSH1 0x2 DUP2 PUSH2 0x100 ADD MLOAD PUSH1 0x3 DUP2 GT ISZERO PUSH2 0x796 JUMPI PUSH2 0x796 PUSH2 0x289B JUMP JUMPDEST EQ JUMPDEST PUSH2 0x7A1 JUMPI PUSH1 0x0 DUP1 REVERT JUMPDEST PUSH1 0x0 DUP9 DUP9 DUP7 DUP2 DUP2 LT PUSH2 0x7B5 JUMPI PUSH2 0x7B5 PUSH2 0x2CDA JUMP JUMPDEST SWAP1 POP PUSH1 0x20 MUL DUP2 ADD SWAP1 PUSH2 0x7C7 SWAP2 SWAP1 PUSH2 0x2CF0 JUMP JUMPDEST PUSH2 0x7D8 SWAP1 PUSH1 0xE0 DUP2 ADD SWAP1 PUSH1 0xC0 ADD PUSH2 0x2F5A JUMP JUMPDEST PUSH1 0x5 DUP2 GT ISZERO PUSH2 0x7E9 JUMPI PUSH2 0x7E9 PUSH2 0x289B JUMP JUMPDEST SUB PUSH2 0x953 JUMPI DUP1 PUSH2 0x180 ADD MLOAD PUSH1 0x20 ADD MLOAD DUP1 MLOAD SWAP1 PUSH1 0x20 ADD KECCAK256 DUP9 DUP9 DUP7 DUP2 DUP2 LT PUSH2 0x811 JUMPI PUSH2 0x811 PUSH2 0x2CDA JUMP JUMPDEST SWAP1 POP PUSH1 0x20 MUL DUP2 ADD SWAP1 PUSH2 0x823 SWAP2 SWAP1 PUSH2 0x2CF0 JUMP JUMPDEST PUSH2 0x82D SWAP1 DUP1 PUSH2 0x2F75 JUMP JUMPDEST PUSH1 0x40 MLOAD PUSH2 0x83B SWAP3 SWAP2 SWAP1 PUSH2 0x2CCA JUMP JUMPDEST PUSH1 0x40 MLOAD DUP1 SWAP2 SUB SWAP1 KECCAK256 SUB PUSH2 0x8A4 JUMPI DUP1 PUSH2 0x180 ADD MLOAD PUSH1 0x60 ADD MLOAD SWAP3 POP PUSH1 0x64 DUP4 LT PUSH2 0x89C JUMPI PUSH1 0x40 MLOAD PUSH3 0x461BCD PUSH1 0xE5 SHL DUP2 MSTORE PUSH1 0x20 PUSH1 0x4 DUP3 ADD MSTORE PUSH1 0x15 PUSH1 0x24 DUP3 ADD MSTORE PUSH21 0x496E56616C696420446973636F756E7420436F6465 PUSH1 0x58 SHL PUSH1 0x44 DUP3 ADD MSTORE PUSH1 0x64 ADD PUSH2 0x31A JUMP JUMPDEST POP POP POP PUSH2 0x9EC JUMP JUMPDEST PUSH1 0x1 DUP2 PUSH1 0x60 ADD MLOAD PUSH1 0x2 DUP2 GT ISZERO PUSH2 0x8BC JUMPI PUSH2 0x8BC PUSH2 0x289B JUMP JUMPDEST SUB PUSH2 0x924 JUMPI PUSH1 0x1 DUP9 DUP9 DUP7 DUP2 DUP2 LT PUSH2 0x8D5 JUMPI PUSH2 0x8D5 PUSH2 0x2CDA JUMP JUMPDEST SWAP1 POP PUSH1 0x20 MUL DUP2 ADD SWAP1 PUSH2 0x8E7 SWAP2 SWAP1 PUSH2 0x2CF0 JUMP JUMPDEST PUSH2 0x8F9 SWAP1 PUSH2 0x100 DUP2 ADD SWAP1 PUSH1 0xE0 ADD PUSH2 0x2F3D JUMP JUMPDEST PUSH1 0x3 DUP2 GT ISZERO PUSH2 0x90A JUMPI PUSH2 0x90A PUSH2 0x289B JUMP JUMPDEST SUB PUSH2 0x91B JUMPI DUP1 PUSH1 0x20 ADD MLOAD SWAP2 POP PUSH2 0x97E JUMP JUMPDEST DUP1 MLOAD SWAP2 POP PUSH2 0x97E JUMP JUMPDEST DUP8 DUP8 DUP6 DUP2 DUP2 LT PUSH2 0x936 JUMPI PUSH2 0x936 PUSH2 0x2CDA JUMP JUMPDEST SWAP1 POP PUSH1 0x20 MUL DUP2 ADD SWAP1 PUSH2 0x948 SWAP2 SWAP1 PUSH2 0x2CF0 JUMP JUMPDEST PUSH1 0x60 ADD CALLDATALOAD SWAP2 POP PUSH2 0x97E JUMP JUMPDEST DUP8 DUP8 DUP6 DUP2 DUP2 LT PUSH2 0x965 JUMPI PUSH2 0x965 PUSH2 0x2CDA JUMP JUMPDEST SWAP1 POP PUSH1 0x20 MUL DUP2 ADD SWAP1 PUSH2 0x977 SWAP2 SWAP1 PUSH2 0x2CF0 JUMP JUMPDEST PUSH1 0x60 ADD CALLDATALOAD SWAP2 POP JUMPDEST PUSH1 0x64 DUP9 DUP9 DUP7 DUP2 DUP2 LT PUSH2 0x992 JUMPI PUSH2 0x992 PUSH2 0x2CDA JUMP JUMPDEST SWAP1 POP PUSH1 0x20 MUL DUP2 ADD SWAP1 PUSH2 0x9A4 SWAP2 SWAP1 PUSH2 0x2CF0 JUMP JUMPDEST PUSH1 0xA0 ADD CALLDATALOAD PUSH2 0x9B3 DUP6 PUSH1 0x64 PUSH2 0x2FD1 JUMP JUMPDEST PUSH2 0x9BD SWAP1 DUP6 PUSH2 0x2FE4 JUMP JUMPDEST PUSH2 0x9C7 SWAP2 SWAP1 PUSH2 0x2FE4 JUMP JUMPDEST PUSH2 0x9D1 SWAP2 SWAP1 PUSH2 0x2FFB JUMP JUMPDEST PUSH2 0x9DB SWAP1 DUP7 PUSH2 0x301D JUMP JUMPDEST SWAP5 POP POP PUSH1 0x1 SWAP1 SWAP3 ADD SWAP2 POP PUSH2 0x6CD SWAP1 POP JUMP JUMPDEST POP SWAP1 POP JUMPDEST SWAP3 SWAP2 POP POP JUMP JUMPDEST PUSH1 0x0 DUP5 DUP2 MSTORE PUSH1 0x9 PUSH1 0x20 MSTORE PUSH1 0x40 SWAP1 KECCAK256 PUSH1 0x5 DUP3 PUSH1 0x6 DUP2 GT ISZERO PUSH2 0xA18 JUMPI PUSH2 0xA18 PUSH2 0x289B JUMP JUMPDEST EQ DUP1 PUSH2 0xA35 JUMPI POP PUSH1 0x4 DUP3 PUSH1 0x6 DUP2 GT ISZERO PUSH2 0xA33 JUMPI PUSH2 0xA33 PUSH2 0x289B JUMP JUMPDEST EQ JUMPDEST PUSH2 0xA91 JUMPI PUSH1 0x40 MLOAD PUSH3 0x461BCD PUSH1 0xE5 SHL DUP2 MSTORE PUSH1 0x20 PUSH1 0x4 DUP3 ADD MSTORE PUSH1 0x27 PUSH1 0x24 DUP3 ADD MSTORE PUSH32 0x596F752063616E206A7573742065646974206F72207769746864726177207468 PUSH1 0x44 DUP3 ADD MSTORE PUSH7 0x329037B33332B9 PUSH1 0xC9 SHL PUSH1 0x64 DUP3 ADD MSTORE PUSH1 0x84 ADD PUSH2 0x31A JUMP JUMPDEST PUSH1 0x2 DUP2 ADD SLOAD PUSH1 0x1 PUSH1 0x1 PUSH1 0xA0 SHL SUB AND CALLER EQ PUSH2 0xAFD JUMPI PUSH1 0x40 MLOAD PUSH3 0x461BCD PUSH1 0xE5 SHL DUP2 MSTORE PUSH1 0x20 PUSH1 0x4 DUP3 ADD MSTORE PUSH1 0x27 PUSH1 0x24 DUP3 ADD MSTORE PUSH32 0x417574686F72697A6174696F6E3A20596F752063616E74206564697420746869 PUSH1 0x44 DUP3 ADD MSTORE PUSH7 0x399037B33332B9 PUSH1 0xC9 SHL PUSH1 0x64 DUP3 ADD MSTORE PUSH1 0x84 ADD PUSH2 0x31A JUMP JUMPDEST DUP1 PUSH1 0x3 ADD SLOAD DUP5 LT PUSH2 0xBB7 JUMPI CALLVALUE DUP2 PUSH1 0x3 ADD SLOAD PUSH2 0xB18 SWAP2 SWAP1 PUSH2 0x301D JUMP JUMPDEST DUP5 GT ISZERO PUSH2 0xB7C JUMPI PUSH1 0x40 MLOAD PUSH3 0x461BCD PUSH1 0xE5 SHL DUP2 MSTORE PUSH1 0x20 PUSH1 0x4 DUP3 ADD MSTORE PUSH1 0x2C PUSH1 0x24 DUP3 ADD MSTORE PUSH32 0x596F752073686F756C6420616464206D6F72652066756E647320746F20656469 PUSH1 0x44 DUP3 ADD MSTORE PUSH12 0x3A103A3434B99037B33332B9 PUSH1 0xA1 SHL PUSH1 0x64 DUP3 ADD MSTORE PUSH1 0x84 ADD PUSH2 0x31A JUMP JUMPDEST PUSH1 0x3 SLOAD PUSH1 0x40 MLOAD PUSH1 0x1 PUSH1 0x1 PUSH1 0xA0 SHL SUB SWAP1 SWAP2 AND SWAP1 CALLVALUE DUP1 ISZERO PUSH2 0x8FC MUL SWAP2 PUSH1 0x0 DUP2 DUP2 DUP2 DUP6 DUP9 DUP9 CALL SWAP4 POP POP POP POP ISZERO DUP1 ISZERO PUSH2 0xBB5 JUMPI RETURNDATASIZE PUSH1 0x0 DUP1 RETURNDATACOPY RETURNDATASIZE PUSH1 0x0 REVERT JUMPDEST POP JUMPDEST PUSH1 0x3 DUP2 ADD DUP5 SWAP1 SSTORE PUSH1 0x4 DUP2 ADD DUP4 SWAP1 SSTORE PUSH1 0x40 MLOAD PUSH1 0x0 DUP1 MLOAD PUSH1 0x20 PUSH2 0x354D DUP4 CODECOPY DUP2 MLOAD SWAP2 MSTORE SWAP1 PUSH2 0xBEC SWAP1 DUP8 SWAP1 DUP8 SWAP1 DUP8 SWAP1 DUP8 SWAP1 PUSH1 0x0 SWAP1 PUSH2 0x2C96 JUMP JUMPDEST PUSH1 0x40 MLOAD DUP1 SWAP2 SUB SWAP1 LOG1 POP POP POP POP POP JUMP JUMPDEST PUSH1 0x0 SLOAD PUSH1 0x1 PUSH1 0x1 PUSH1 0xA0 SHL SUB AND CALLER EQ DUP1 PUSH2 0xC1E JUMPI POP PUSH1 0x2 SLOAD PUSH1 0x1 PUSH1 0x1 PUSH1 0xA0 SHL SUB AND CALLER EQ JUMPDEST PUSH2 0xC60 JUMPI PUSH1 0x40 MLOAD PUSH3 0x461BCD PUSH1 0xE5 SHL DUP2 MSTORE PUSH1 0x20 PUSH1 0x4 DUP3 ADD MSTORE PUSH1 0x13 PUSH1 0x24 DUP3 ADD MSTORE PUSH19 0x2AB730BABA3437B934BD32B21031B0B63632B9 PUSH1 0x69 SHL PUSH1 0x44 DUP3 ADD MSTORE PUSH1 0x64 ADD PUSH2 0x31A JUMP JUMPDEST PUSH1 0x3 DUP1 SLOAD PUSH1 0x1 PUSH1 0x1 PUSH1 0xA0 SHL SUB NOT AND PUSH1 0x1 PUSH1 0x1 PUSH1 0xA0 SHL SUB SWAP3 SWAP1 SWAP3 AND SWAP2 SWAP1 SWAP2 OR SWAP1 SSTORE JUMP JUMPDEST PUSH2 0xC96 DUP9 DUP9 DUP9 DUP9 DUP9 DUP9 DUP9 CALLER CALLVALUE PUSH1 0x1 DUP12 PUSH2 0x2B9 JUMP JUMPDEST PUSH1 0x3 SLOAD PUSH1 0x40 MLOAD PUSH1 0x1 PUSH1 0x1 PUSH1 0xA0 SHL SUB SWAP1 SWAP2 AND SWAP1 CALLVALUE DUP1 ISZERO PUSH2 0x8FC MUL SWAP2 PUSH1 0x0 DUP2 DUP2 DUP2 DUP6 DUP9 DUP9 CALL SWAP4 POP POP POP POP ISZERO DUP1 ISZERO PUSH2 0xCCF JUMPI RETURNDATASIZE PUSH1 0x0 DUP1 RETURNDATACOPY RETURNDATASIZE PUSH1 0x0 REVERT JUMPDEST POP POP POP POP POP POP POP POP POP JUMP JUMPDEST PUSH1 0x0 SLOAD PUSH1 0x1 PUSH1 0x1 PUSH1 0xA0 SHL SUB AND CALLER EQ DUP1 PUSH2 0xCFD JUMPI POP PUSH1 0x2 SLOAD PUSH1 0x1 PUSH1 0x1 PUSH1 0xA0 SHL SUB AND CALLER EQ JUMPDEST PUSH2 0xD3F JUMPI PUSH1 0x40 MLOAD PUSH3 0x461BCD PUSH1 0xE5 SHL DUP2 MSTORE PUSH1 0x20 PUSH1 0x4 DUP3 ADD MSTORE PUSH1 0x13 PUSH1 0x24 DUP3 ADD MSTORE PUSH19 0x2AB730BABA3437B934BD32B21031B0B63632B9 PUSH1 0x69 SHL PUSH1 0x44 DUP3 ADD MSTORE PUSH1 0x64 ADD PUSH2 0x31A JUMP JUMPDEST PUSH1 0x2 DUP1 SLOAD PUSH1 0x1 PUSH1 0x1 PUSH1 0xA0 SHL SUB NOT AND PUSH1 0x1 PUSH1 0x1 PUSH1 0xA0 SHL SUB SWAP3 SWAP1 SWAP3 AND SWAP2 SWAP1 SWAP2 OR SWAP1 SSTORE JUMP JUMPDEST PUSH2 0xD69 PUSH2 0x21B0 JUMP JUMPDEST PUSH2 0xD73 PUSH1 0x0 PUSH2 0x21DD JUMP JUMPDEST JUMP JUMPDEST PUSH1 0x0 DUP2 DUP2 MSTORE PUSH1 0x9 PUSH1 0x20 MSTORE PUSH1 0x40 DUP2 KECCAK256 PUSH1 0x2 DUP2 ADD SLOAD PUSH1 0x1 PUSH1 0x1 PUSH1 0xA0 SHL SUB AND CALLER EQ DUP1 PUSH2 0xDA8 JUMPI POP PUSH1 0x2 SLOAD PUSH1 0x1 PUSH1 0x1 PUSH1 0xA0 SHL SUB AND CALLER EQ JUMPDEST PUSH2 0xE06 JUMPI PUSH1 0x40 MLOAD PUSH3 0x461BCD PUSH1 0xE5 SHL DUP2 MSTORE PUSH1 0x20 PUSH1 0x4 DUP3 ADD MSTORE PUSH1 0x29 PUSH1 0x24 DUP3 ADD MSTORE PUSH32 0x417574686F72697A6174696F6E3A20596F752063616E742072656A6563742074 PUSH1 0x44 DUP3 ADD MSTORE PUSH9 0x3434B99037B33332B9 PUSH1 0xB9 SHL PUSH1 0x64 DUP3 ADD MSTORE PUSH1 0x84 ADD PUSH2 0x31A JUMP JUMPDEST PUSH1 0x2 DUP2 ADD SLOAD PUSH1 0x1 PUSH1 0x1 PUSH1 0xA0 SHL SUB AND CALLER SUB PUSH2 0xE23 JUMPI PUSH1 0x0 SWAP2 POP PUSH2 0xE28 JUMP JUMPDEST PUSH1 0x1 SWAP2 POP JUMPDEST PUSH1 0x3 PUSH1 0x6 DUP1 DUP4 ADD SLOAD PUSH1 0xFF AND SWAP1 DUP2 GT ISZERO PUSH2 0xE43 JUMPI PUSH2 0xE43 PUSH2 0x289B JUMP JUMPDEST EQ ISZERO DUP1 ISZERO PUSH2 0xE6A JUMPI POP PUSH1 0x4 PUSH1 0x6 DUP1 DUP4 ADD SLOAD PUSH1 0xFF AND SWAP1 DUP2 GT ISZERO PUSH2 0xE67 JUMPI PUSH2 0xE67 PUSH2 0x289B JUMP JUMPDEST EQ ISZERO JUMPDEST DUP1 ISZERO PUSH2 0xE8F JUMPI POP PUSH1 0x2 PUSH1 0x6 DUP1 DUP4 ADD SLOAD PUSH1 0xFF AND SWAP1 DUP2 GT ISZERO PUSH2 0xE8C JUMPI PUSH2 0xE8C PUSH2 0x289B JUMP JUMPDEST EQ ISZERO JUMPDEST PUSH2 0xECF JUMPI PUSH1 0x40 MLOAD PUSH3 0x461BCD PUSH1 0xE5 SHL DUP2 MSTORE PUSH1 0x20 PUSH1 0x4 DUP3 ADD MSTORE PUSH1 0x11 PUSH1 0x24 DUP3 ADD MSTORE PUSH17 0x496E76616C69642053616C652054797065 PUSH1 0x78 SHL PUSH1 0x44 DUP3 ADD MSTORE PUSH1 0x64 ADD PUSH2 0x31A JUMP JUMPDEST PUSH1 0x6 DUP2 ADD DUP1 SLOAD PUSH1 0xFF NOT AND PUSH1 0x3 SWAP1 DUP2 OR SWAP1 SWAP2 SSTORE DUP1 DUP3 ADD SLOAD PUSH1 0x4 DUP4 ADD SLOAD PUSH1 0x40 MLOAD PUSH1 0x0 DUP1 MLOAD PUSH1 0x20 PUSH2 0x354D DUP4 CODECOPY DUP2 MLOAD SWAP2 MSTORE SWAP3 PUSH2 0xF0C SWAP3 DUP9 SWAP3 DUP7 SWAP1 DUP10 SWAP1 PUSH2 0x2C96 JUMP JUMPDEST PUSH1 0x40 MLOAD DUP1 SWAP2 SUB SWAP1 LOG1 PUSH1 0x3 DUP1 SLOAD PUSH1 0x2 DUP5 ADD SLOAD SWAP2 DUP5 ADD SLOAD PUSH1 0x40 MLOAD PUSH4 0x76AB9561 PUSH1 0xE1 SHL DUP2 MSTORE PUSH1 0x1 PUSH1 0x1 PUSH1 0xA0 SHL SUB SWAP4 DUP5 AND PUSH1 0x4 DUP3 ADD MSTORE PUSH1 0x24 DUP2 ADD SWAP2 SWAP1 SWAP2 MSTORE SWAP2 AND SWAP1 PUSH4 0xED572AC2 SWAP1 PUSH1 0x44 ADD PUSH1 0x0 PUSH1 0x40 MLOAD DUP1 DUP4 SUB DUP2 PUSH1 0x0 DUP8 DUP1 EXTCODESIZE ISZERO DUP1 ISZERO PUSH2 0xF6C JUMPI PUSH1 0x0 DUP1 REVERT JUMPDEST POP GAS CALL ISZERO DUP1 ISZERO PUSH2 0xF80 JUMPI RETURNDATASIZE PUSH1 0x0 DUP1 RETURNDATACOPY RETURNDATASIZE PUSH1 0x0 REVERT JUMPDEST POP POP POP POP POP POP POP POP JUMP JUMPDEST PUSH1 0x0 DUP7 DUP2 MSTORE PUSH1 0x9 PUSH1 0x20 MSTORE PUSH1 0x40 SWAP1 KECCAK256 PUSH1 0x2 DUP2 ADD SLOAD PUSH1 0x1 PUSH1 0x1 PUSH1 0xA0 SHL SUB AND CALLER EQ DUP1 PUSH2 0xFBD JUMPI POP PUSH1 0x2 SLOAD PUSH1 0x1 PUSH1 0x1 PUSH1 0xA0 SHL SUB AND CALLER EQ JUMPDEST PUSH2 0x101B JUMPI PUSH1 0x40 MLOAD PUSH3 0x461BCD PUSH1 0xE5 SHL DUP2 MSTORE PUSH1 0x20 PUSH1 0x4 DUP3 ADD MSTORE PUSH1 0x29 PUSH1 0x24 DUP3 ADD MSTORE PUSH32 0x417574686F72697A6174696F6E3A20596F752063616E74206163636570742074 PUSH1 0x44 DUP3 ADD MSTORE PUSH9 0x3434B99037B33332B9 PUSH1 0xB9 SHL PUSH1 0x64 DUP3 ADD MSTORE PUSH1 0x84 ADD PUSH2 0x31A JUMP JUMPDEST PUSH1 0x2 DUP2 ADD SLOAD PUSH1 0x0 SWAP1 PUSH1 0x1 PUSH1 0x1 PUSH1 0xA0 SHL SUB AND CALLER SUB PUSH2 0x103A JUMPI POP PUSH1 0x0 PUSH2 0x103E JUMP JUMPDEST POP PUSH1 0x1 JUMPDEST PUSH1 0x3 PUSH1 0x6 DUP1 DUP5 ADD SLOAD PUSH1 0xFF AND SWAP1 DUP2 GT ISZERO PUSH2 0x1059 JUMPI PUSH2 0x1059 PUSH2 0x289B JUMP JUMPDEST EQ ISZERO DUP1 ISZERO PUSH2 0x1080 JUMPI POP PUSH1 0x4 PUSH1 0x6 DUP1 DUP5 ADD SLOAD PUSH1 0xFF AND SWAP1 DUP2 GT ISZERO PUSH2 0x107D JUMPI PUSH2 0x107D PUSH2 0x289B JUMP JUMPDEST EQ ISZERO JUMPDEST DUP1 ISZERO PUSH2 0x10A5 JUMPI POP PUSH1 0x2 PUSH1 0x6 DUP1 DUP5 ADD SLOAD PUSH1 0xFF AND SWAP1 DUP2 GT ISZERO PUSH2 0x10A2 JUMPI PUSH2 0x10A2 PUSH2 0x289B JUMP JUMPDEST EQ ISZERO JUMPDEST PUSH2 0x10E5 JUMPI PUSH1 0x40 MLOAD PUSH3 0x461BCD PUSH1 0xE5 SHL DUP2 MSTORE PUSH1 0x20 PUSH1 0x4 DUP3 ADD MSTORE PUSH1 0x11 PUSH1 0x24 DUP3 ADD MSTORE PUSH17 0x496E76616C69642053616C652054797065 PUSH1 0x78 SHL PUSH1 0x44 DUP3 ADD MSTORE PUSH1 0x64 ADD PUSH2 0x31A JUMP JUMPDEST PUSH1 0x0 DUP1 PUSH1 0x6 DUP5 ADD SLOAD PUSH3 0x10000 SWAP1 DIV PUSH1 0xFF AND PUSH1 0x3 DUP2 GT ISZERO PUSH2 0x1107 JUMPI PUSH2 0x1107 PUSH2 0x289B JUMP JUMPDEST SUB PUSH2 0x1114 JUMPI POP DUP5 CALLDATALOAD PUSH2 0x111B JUMP JUMPDEST POP PUSH1 0x20 DUP6 ADD CALLDATALOAD JUMPDEST DUP3 PUSH1 0x3 ADD SLOAD DUP2 LT ISZERO PUSH2 0x11B1 JUMPI PUSH1 0x3 DUP1 SLOAD SWAP1 DUP5 ADD SLOAD PUSH1 0x1 PUSH1 0x1 PUSH1 0xA0 SHL SUB SWAP1 SWAP2 AND SWAP1 PUSH4 0xED572AC2 SWAP1 CALLER SWAP1 PUSH2 0x114E SWAP1 DUP6 SWAP1 PUSH2 0x2FD1 JUMP JUMPDEST PUSH1 0x40 MLOAD PUSH1 0x1 PUSH1 0x1 PUSH1 0xE0 SHL SUB NOT PUSH1 0xE0 DUP6 SWAP1 SHL AND DUP2 MSTORE PUSH1 0x1 PUSH1 0x1 PUSH1 0xA0 SHL SUB SWAP1 SWAP3 AND PUSH1 0x4 DUP4 ADD MSTORE PUSH1 0x24 DUP3 ADD MSTORE PUSH1 0x44 ADD PUSH1 0x0 PUSH1 0x40 MLOAD DUP1 DUP4 SUB DUP2 PUSH1 0x0 DUP8 DUP1 EXTCODESIZE ISZERO DUP1 ISZERO PUSH2 0x1194 JUMPI PUSH1 0x0 DUP1 REVERT JUMPDEST POP GAS CALL ISZERO DUP1 ISZERO PUSH2 0x11A8 JUMPI RETURNDATASIZE PUSH1 0x0 DUP1 RETURNDATACOPY RETURNDATASIZE PUSH1 0x0 REVERT JUMPDEST POP POP POP POP PUSH2 0x1262 JUMP JUMPDEST CALLVALUE DUP4 PUSH1 0x3 ADD SLOAD PUSH2 0x11C1 SWAP2 SWAP1 PUSH2 0x301D JUMP JUMPDEST DUP2 GT ISZERO PUSH2 0x1227 JUMPI PUSH1 0x40 MLOAD PUSH3 0x461BCD PUSH1 0xE5 SHL DUP2 MSTORE PUSH1 0x20 PUSH1 0x4 DUP3 ADD MSTORE PUSH1 0x2E PUSH1 0x24 DUP3 ADD MSTORE PUSH32 0x596F752073686F756C6420616464206D6F72652066756E647320746F20616363 PUSH1 0x44 DUP3 ADD MSTORE PUSH14 0x32B83A103A3434B99037B33332B9 PUSH1 0x91 SHL PUSH1 0x64 DUP3 ADD MSTORE PUSH1 0x84 ADD PUSH2 0x31A JUMP JUMPDEST PUSH1 0x3 SLOAD PUSH1 0x40 MLOAD PUSH1 0x1 PUSH1 0x1 PUSH1 0xA0 SHL SUB SWAP1 SWAP2 AND SWAP1 CALLVALUE DUP1 ISZERO PUSH2 0x8FC MUL SWAP2 PUSH1 0x0 DUP2 DUP2 DUP2 DUP6 DUP9 DUP9 CALL SWAP4 POP POP POP POP ISZERO DUP1 ISZERO PUSH2 0x1260 JUMPI RETURNDATASIZE PUSH1 0x0 DUP1 RETURNDATACOPY RETURNDATASIZE PUSH1 0x0 REVERT JUMPDEST POP JUMPDEST PUSH1 0x6 DUP4 ADD DUP1 SLOAD PUSH1 0xFF NOT AND PUSH1 0x2 OR SWAP1 SSTORE PUSH1 0x40 DUP1 MLOAD PUSH1 0xE0 DUP2 ADD SWAP1 SWAP2 MSTORE PUSH1 0x1 DUP5 ADD DUP1 SLOAD PUSH1 0x0 SWAP3 SWAP2 DUP3 SWAP2 PUSH2 0x1291 SWAP1 PUSH2 0x2B3E JUMP JUMPDEST DUP1 PUSH1 0x1F ADD PUSH1 0x20 DUP1 SWAP2 DIV MUL PUSH1 0x20 ADD PUSH1 0x40 MLOAD SWAP1 DUP2 ADD PUSH1 0x40 MSTORE DUP1 SWAP3 SWAP2 SWAP1 DUP2 DUP2 MSTORE PUSH1 0x20 ADD DUP3 DUP1 SLOAD PUSH2 0x12BD SWAP1 PUSH2 0x2B3E JUMP JUMPDEST DUP1 ISZERO PUSH2 0x130A JUMPI DUP1 PUSH1 0x1F LT PUSH2 0x12DF JUMPI PUSH2 0x100 DUP1 DUP4 SLOAD DIV MUL DUP4 MSTORE SWAP2 PUSH1 0x20 ADD SWAP2 PUSH2 0x130A JUMP JUMPDEST DUP3 ADD SWAP2 SWAP1 PUSH1 0x0 MSTORE PUSH1 0x20 PUSH1 0x0 KECCAK256 SWAP1 JUMPDEST DUP2 SLOAD DUP2 MSTORE SWAP1 PUSH1 0x1 ADD SWAP1 PUSH1 0x20 ADD DUP1 DUP4 GT PUSH2 0x12ED JUMPI DUP3 SWAP1 SUB PUSH1 0x1F AND DUP3 ADD SWAP2 JUMPDEST POP POP POP POP POP DUP2 MSTORE PUSH1 0x20 ADD DUP11 DUP11 DUP1 DUP1 PUSH1 0x1F ADD PUSH1 0x20 DUP1 SWAP2 DIV MUL PUSH1 0x20 ADD PUSH1 0x40 MLOAD SWAP1 DUP2 ADD PUSH1 0x40 MSTORE DUP1 SWAP4 SWAP3 SWAP2 SWAP1 DUP2 DUP2 MSTORE PUSH1 0x20 ADD DUP4 DUP4 DUP1 DUP3 DUP5 CALLDATACOPY PUSH1 0x0 SWAP3 ADD SWAP2 SWAP1 SWAP2 MSTORE POP POP POP SWAP1 DUP3 MSTORE POP PUSH1 0x5 DUP7 ADD DUP1 SLOAD PUSH1 0x20 SWAP1 SWAP3 ADD SWAP2 PUSH2 0x1362 SWAP1 PUSH2 0x2B3E JUMP JUMPDEST DUP1 PUSH1 0x1F ADD PUSH1 0x20 DUP1 SWAP2 DIV MUL PUSH1 0x20 ADD PUSH1 0x40 MLOAD SWAP1 DUP2 ADD PUSH1 0x40 MSTORE DUP1 SWAP3 SWAP2 SWAP1 DUP2 DUP2 MSTORE PUSH1 0x20 ADD DUP3 DUP1 SLOAD PUSH2 0x138E SWAP1 PUSH2 0x2B3E JUMP JUMPDEST DUP1 ISZERO PUSH2 0x13DB JUMPI DUP1 PUSH1 0x1F LT PUSH2 0x13B0 JUMPI PUSH2 0x100 DUP1 DUP4 SLOAD DIV MUL DUP4 MSTORE SWAP2 PUSH1 0x20 ADD SWAP2 PUSH2 0x13DB JUMP JUMPDEST DUP3 ADD SWAP2 SWAP1 PUSH1 0x0 MSTORE PUSH1 0x20 PUSH1 0x0 KECCAK256 SWAP1 JUMPDEST DUP2 SLOAD DUP2 MSTORE SWAP1 PUSH1 0x1 ADD SWAP1 PUSH1 0x20 ADD DUP1 DUP4 GT PUSH2 0x13BE JUMPI DUP3 SWAP1 SUB PUSH1 0x1F AND DUP3 ADD SWAP2 JUMPDEST POP POP POP SWAP2 DUP4 MSTORE POP POP PUSH1 0x2 DUP7 ADD SLOAD PUSH1 0x1 PUSH1 0x1 PUSH1 0xA0 SHL SUB AND PUSH1 0x20 DUP3 ADD MSTORE PUSH1 0x40 ADD PUSH2 0x1402 DUP10 PUSH2 0x2E16 JUMP JUMPDEST DUP2 MSTORE PUSH1 0x3 DUP1 DUP8 ADD SLOAD PUSH1 0x20 DUP4 ADD MSTORE PUSH1 0x7 DUP8 ADD SLOAD PUSH1 0x40 SWAP3 DUP4 ADD MSTORE SLOAD PUSH1 0x6 DUP8 ADD SLOAD SWAP2 MLOAD PUSH4 0x19AC33DF PUSH1 0xE3 SHL DUP2 MSTORE SWAP3 SWAP4 POP PUSH1 0x1 PUSH1 0x1 PUSH1 0xA0 SHL SUB AND SWAP2 PUSH4 0xCD619EF8 SWAP2 PUSH2 0x1464 SWAP2 DUP6 SWAP2 PUSH1 0xFF PUSH2 0x100 DUP3 DIV DUP2 AND SWAP3 PUSH1 0x2 SWAP3 PUSH3 0x10000 SWAP1 DIV SWAP1 SWAP2 AND SWAP1 PUSH1 0x4 ADD PUSH2 0x3253 JUMP JUMPDEST PUSH1 0x0 PUSH1 0x40 MLOAD DUP1 DUP4 SUB DUP2 PUSH1 0x0 DUP8 DUP1 EXTCODESIZE ISZERO DUP1 ISZERO PUSH2 0x147E JUMPI PUSH1 0x0 DUP1 REVERT JUMPDEST POP GAS CALL ISZERO DUP1 ISZERO PUSH2 0x1492 JUMPI RETURNDATASIZE PUSH1 0x0 DUP1 RETURNDATACOPY RETURNDATASIZE PUSH1 0x0 REVERT JUMPDEST POP POP PUSH1 0x3 DUP1 SLOAD SWAP1 DUP8 ADD SLOAD PUSH1 0x40 MLOAD PUSH4 0xA7D70F81 PUSH1 0xE0 SHL DUP2 MSTORE PUSH1 0x1 PUSH1 0x1 PUSH1 0xA0 SHL SUB SWAP1 SWAP3 AND SWAP4 POP PUSH4 0xA7D70F81 SWAP3 POP PUSH2 0x14CD SWAP2 DUP11 SWAP2 DUP11 SWAP2 PUSH1 0x4 ADD PUSH2 0x3396 JUMP JUMPDEST PUSH1 0x0 PUSH1 0x40 MLOAD DUP1 DUP4 SUB DUP2 PUSH1 0x0 DUP8 DUP1 EXTCODESIZE ISZERO DUP1 ISZERO PUSH2 0x14E7 JUMPI PUSH1 0x0 DUP1 REVERT JUMPDEST POP GAS CALL ISZERO DUP1 ISZERO PUSH2 0x14FB JUMPI RETURNDATASIZE PUSH1 0x0 DUP1 RETURNDATACOPY RETURNDATASIZE PUSH1 0x0 REVERT JUMPDEST POP POP POP POP PUSH1 0x0 DUP1 MLOAD PUSH1 0x20 PUSH2 0x354D DUP4 CODECOPY DUP2 MLOAD SWAP2 MSTORE DUP11 DUP6 PUSH1 0x3 ADD SLOAD DUP7 PUSH1 0x4 ADD SLOAD PUSH1 0x2 DUP8 PUSH1 0x40 MLOAD PUSH2 0x152D SWAP6 SWAP5 SWAP4 SWAP3 SWAP2 SWAP1 PUSH2 0x2C96 JUMP JUMPDEST PUSH1 0x40 MLOAD DUP1 SWAP2 SUB SWAP1 LOG1 POP POP POP POP POP POP POP POP POP POP JUMP JUMPDEST PUSH1 0x0 PUSH2 0x154D DUP4 DUP4 PUSH2 0x6C8 JUMP JUMPDEST SWAP1 POP CALLVALUE DUP2 GT ISZERO PUSH2 0x15C7 JUMPI PUSH1 0x40 DUP1 MLOAD PUSH3 0x461BCD PUSH1 0xE5 SHL DUP2 MSTORE PUSH1 0x20 PUSH1 0x4 DUP3 ADD MSTORE PUSH1 0x24 DUP2 ADD SWAP2 SWAP1 SWAP2 MSTORE PUSH32 0x546F74616C2050726963652073686F756C64206265206C617267657220746861 PUSH1 0x44 DUP3 ADD MSTORE PUSH32 0x6E2074686520616D6F756E74206F6620746865206D61726B6574207072696365 PUSH1 0x64 DUP3 ADD MSTORE PUSH1 0x84 ADD PUSH2 0x31A JUMP JUMPDEST PUSH1 0x3 SLOAD PUSH1 0x40 MLOAD PUSH1 0x1 PUSH1 0x1 PUSH1 0xA0 SHL SUB SWAP1 SWAP2 AND SWAP1 CALLVALUE DUP1 ISZERO PUSH2 0x8FC MUL SWAP2 PUSH1 0x0 DUP2 DUP2 DUP2 DUP6 DUP9 DUP9 CALL SWAP4 POP POP POP POP ISZERO DUP1 ISZERO PUSH2 0x1600 JUMPI RETURNDATASIZE PUSH1 0x0 DUP1 RETURNDATACOPY RETURNDATASIZE PUSH1 0x0 REVERT JUMPDEST POP PUSH1 0x0 JUMPDEST DUP3 DUP2 LT ISZERO PUSH2 0x1920 JUMPI CALLDATASIZE DUP5 DUP5 DUP4 DUP2 DUP2 LT PUSH2 0x161F JUMPI PUSH2 0x161F PUSH2 0x2CDA JUMP JUMPDEST SWAP1 POP PUSH1 0x20 MUL DUP2 ADD SWAP1 PUSH2 0x1631 SWAP2 SWAP1 PUSH2 0x2CF0 JUMP JUMPDEST SWAP1 POP CALLDATASIZE PUSH2 0x1642 PUSH2 0x100 DUP4 ADD DUP4 PUSH2 0x2D11 JUMP JUMPDEST SWAP1 POP PUSH2 0x164D DUP2 PUSH2 0x222D JUMP JUMPDEST PUSH1 0x0 DUP1 PUSH2 0x1660 PUSH1 0xE0 DUP6 ADD PUSH1 0xC0 DUP7 ADD PUSH2 0x2F5A JUMP JUMPDEST PUSH1 0x5 DUP2 GT ISZERO PUSH2 0x1671 JUMPI PUSH2 0x1671 PUSH2 0x289B JUMP JUMPDEST SUB PUSH2 0x16E6 JUMPI PUSH1 0x1 PUSH2 0x1688 PUSH1 0x80 DUP5 ADD PUSH1 0x60 DUP6 ADD PUSH2 0x3485 JUMP JUMPDEST PUSH1 0x2 DUP2 GT ISZERO PUSH2 0x1699 JUMPI PUSH2 0x1699 PUSH2 0x289B JUMP JUMPDEST SUB PUSH2 0x16DB JUMPI PUSH1 0x0 PUSH2 0x16B1 PUSH2 0x100 DUP6 ADD PUSH1 0xE0 DUP7 ADD PUSH2 0x2F3D JUMP JUMPDEST PUSH1 0x3 DUP2 GT ISZERO PUSH2 0x16C2 JUMPI PUSH2 0x16C2 PUSH2 0x289B JUMP JUMPDEST EQ PUSH2 0x16D1 JUMPI DUP2 PUSH1 0x20 ADD CALLDATALOAD PUSH2 0x16D4 JUMP JUMPDEST DUP2 CALLDATALOAD JUMPDEST SWAP1 POP PUSH2 0x16ED JUMP JUMPDEST POP PUSH1 0x60 DUP3 ADD CALLDATALOAD PUSH2 0x16ED JUMP JUMPDEST POP PUSH1 0x60 DUP3 ADD CALLDATALOAD JUMPDEST PUSH1 0x1 PUSH2 0x16FF PUSH1 0x80 DUP5 ADD PUSH1 0x60 DUP6 ADD PUSH2 0x3485 JUMP JUMPDEST PUSH1 0x2 DUP2 GT ISZERO PUSH2 0x1710 JUMPI PUSH2 0x1710 PUSH2 0x289B JUMP JUMPDEST SUB PUSH2 0x18BD JUMPI PUSH1 0x0 PUSH1 0x40 MLOAD DUP1 PUSH1 0xE0 ADD PUSH1 0x40 MSTORE DUP1 DUP6 DUP1 PUSH1 0x40 ADD SWAP1 PUSH2 0x1732 SWAP2 SWAP1 PUSH2 0x2F75 JUMP JUMPDEST DUP1 DUP1 PUSH1 0x1F ADD PUSH1 0x20 DUP1 SWAP2 DIV MUL PUSH1 0x20 ADD PUSH1 0x40 MLOAD SWAP1 DUP2 ADD PUSH1 0x40 MSTORE DUP1 SWAP4 SWAP3 SWAP2 SWAP1 DUP2 DUP2 MSTORE PUSH1 0x20 ADD DUP4 DUP4 DUP1 DUP3 DUP5 CALLDATACOPY PUSH1 0x0 SWAP3 ADD SWAP2 SWAP1 SWAP2 MSTORE POP POP POP SWAP1 DUP3 MSTORE POP PUSH1 0x20 ADD PUSH2 0x177A PUSH2 0x120 DUP8 ADD DUP8 PUSH2 0x2CF0 JUMP JUMPDEST PUSH2 0x1788 SWAP1 PUSH1 0x60 DUP2 ADD SWAP1 PUSH2 0x2F75 JUMP JUMPDEST DUP1 DUP1 PUSH1 0x1F ADD PUSH1 0x20 DUP1 SWAP2 DIV MUL PUSH1 0x20 ADD PUSH1 0x40 MLOAD SWAP1 DUP2 ADD PUSH1 0x40 MSTORE DUP1 SWAP4 SWAP3 SWAP2 SWAP1 DUP2 DUP2 MSTORE PUSH1 0x20 ADD DUP4 DUP4 DUP1 DUP3 DUP5 CALLDATACOPY PUSH1 0x0 SWAP3 ADD SWAP2 SWAP1 SWAP2 MSTORE POP POP POP SWAP1 DUP3 MSTORE POP PUSH1 0x20 SWAP1 DUP2 ADD SWAP1 PUSH2 0x17D1 SWAP1 DUP8 ADD DUP8 PUSH2 0x2F75 JUMP JUMPDEST DUP1 DUP1 PUSH1 0x1F ADD PUSH1 0x20 DUP1 SWAP2 DIV MUL PUSH1 0x20 ADD PUSH1 0x40 MLOAD SWAP1 DUP2 ADD PUSH1 0x40 MSTORE DUP1 SWAP4 SWAP3 SWAP2 SWAP1 DUP2 DUP2 MSTORE PUSH1 0x20 ADD DUP4 DUP4 DUP1 DUP3 DUP5 CALLDATACOPY PUSH1 0x0 SWAP3 ADD SWAP2 SWAP1 SWAP2 MSTORE POP POP POP SWAP1 DUP3 MSTORE POP CALLER PUSH1 0x20 DUP3 ADD MSTORE PUSH1 0x40 ADD PUSH2 0x181A DUP6 PUSH2 0x2E16 JUMP JUMPDEST DUP2 MSTORE PUSH1 0x20 DUP2 ADD DUP5 SWAP1 MSTORE PUSH1 0xA0 DUP7 ADD CALLDATALOAD PUSH1 0x40 SWAP1 SWAP2 ADD MSTORE PUSH1 0x3 SLOAD SWAP1 SWAP2 POP PUSH1 0x1 PUSH1 0x1 PUSH1 0xA0 SHL SUB AND PUSH4 0xCD619EF8 DUP3 PUSH2 0x1853 PUSH1 0xE0 DUP9 ADD PUSH1 0xC0 DUP10 ADD PUSH2 0x2F5A JUMP JUMPDEST PUSH1 0x0 PUSH2 0x1866 PUSH2 0x100 DUP11 ADD PUSH1 0xE0 DUP12 ADD PUSH2 0x2F3D JUMP JUMPDEST PUSH1 0x40 MLOAD DUP6 PUSH4 0xFFFFFFFF AND PUSH1 0xE0 SHL DUP2 MSTORE PUSH1 0x4 ADD PUSH2 0x1885 SWAP5 SWAP4 SWAP3 SWAP2 SWAP1 PUSH2 0x3253 JUMP JUMPDEST PUSH1 0x0 PUSH1 0x40 MLOAD DUP1 DUP4 SUB DUP2 PUSH1 0x0 DUP8 DUP1 EXTCODESIZE ISZERO DUP1 ISZERO PUSH2 0x189F JUMPI PUSH1 0x0 DUP1 REVERT JUMPDEST POP GAS CALL ISZERO DUP1 ISZERO PUSH2 0x18B3 JUMPI RETURNDATASIZE PUSH1 0x0 DUP1 RETURNDATACOPY RETURNDATASIZE PUSH1 0x0 REVERT JUMPDEST POP POP POP POP POP PUSH2 0x1915 JUMP JUMPDEST PUSH2 0x1915 PUSH2 0x18CD PUSH1 0x40 DUP6 ADD DUP6 PUSH2 0x2F75 JUMP JUMPDEST PUSH1 0x80 DUP7 ADD CALLDATALOAD PUSH2 0x18DF PUSH1 0x20 DUP9 ADD DUP9 PUSH2 0x2F75 JUMP JUMPDEST PUSH2 0x18EF PUSH1 0xE0 DUP11 ADD PUSH1 0xC0 DUP12 ADD PUSH2 0x2F5A JUMP JUMPDEST PUSH2 0x1900 PUSH2 0x100 DUP12 ADD PUSH1 0xE0 DUP13 ADD PUSH2 0x2F3D JUMP JUMPDEST CALLER DUP10 PUSH1 0xA0 DUP14 ADD CALLDATALOAD PUSH2 0x108 PUSH2 0x120 DUP16 ADD DUP16 PUSH2 0x2CF0 JUMP JUMPDEST POP POP POP PUSH1 0x1 ADD PUSH2 0x1604 JUMP JUMPDEST POP POP POP POP JUMP JUMPDEST PUSH1 0x0 DUP2 DUP2 MSTORE PUSH1 0x9 PUSH1 0x20 SWAP1 DUP2 MSTORE PUSH1 0x40 DUP1 DUP4 KECCAK256 DUP2 MLOAD PUSH2 0x180 DUP2 ADD SWAP1 SWAP3 MSTORE DUP1 SLOAD DUP3 MSTORE PUSH1 0x1 DUP2 ADD DUP1 SLOAD DUP6 SWAP5 DUP5 ADD SWAP2 SWAP1 PUSH2 0x195A SWAP1 PUSH2 0x2B3E JUMP JUMPDEST DUP1 PUSH1 0x1F ADD PUSH1 0x20 DUP1 SWAP2 DIV MUL PUSH1 0x20 ADD PUSH1 0x40 MLOAD SWAP1 DUP2 ADD PUSH1 0x40 MSTORE DUP1 SWAP3 SWAP2 SWAP1 DUP2 DUP2 MSTORE PUSH1 0x20 ADD DUP3 DUP1 SLOAD PUSH2 0x1986 SWAP1 PUSH2 0x2B3E JUMP JUMPDEST DUP1 ISZERO PUSH2 0x19D3 JUMPI DUP1 PUSH1 0x1F LT PUSH2 0x19A8 JUMPI PUSH2 0x100 DUP1 DUP4 SLOAD DIV MUL DUP4 MSTORE SWAP2 PUSH1 0x20 ADD SWAP2 PUSH2 0x19D3 JUMP JUMPDEST DUP3 ADD SWAP2 SWAP1 PUSH1 0x0 MSTORE PUSH1 0x20 PUSH1 0x0 KECCAK256 SWAP1 JUMPDEST DUP2 SLOAD DUP2 MSTORE SWAP1 PUSH1 0x1 ADD SWAP1 PUSH1 0x20 ADD DUP1 DUP4 GT PUSH2 0x19B6 JUMPI DUP3 SWAP1 SUB PUSH1 0x1F AND DUP3 ADD SWAP2 JUMPDEST POP POP POP SWAP2 DUP4 MSTORE POP POP PUSH1 0x2 DUP3 ADD SLOAD PUSH1 0x1 PUSH1 0x1 PUSH1 0xA0 SHL SUB AND PUSH1 0x20 DUP3 ADD MSTORE PUSH1 0x3 DUP3 ADD SLOAD PUSH1 0x40 DUP3 ADD MSTORE PUSH1 0x4 DUP3 ADD SLOAD PUSH1 0x60 DUP3 ADD MSTORE PUSH1 0x5 DUP3 ADD DUP1 SLOAD PUSH1 0x80 SWAP1 SWAP3 ADD SWAP2 PUSH2 0x1A17 SWAP1 PUSH2 0x2B3E JUMP JUMPDEST DUP1 PUSH1 0x1F ADD PUSH1 0x20 DUP1 SWAP2 DIV MUL PUSH1 0x20 ADD PUSH1 0x40 MLOAD SWAP1 DUP2 ADD PUSH1 0x40 MSTORE DUP1 SWAP3 SWAP2 SWAP1 DUP2 DUP2 MSTORE PUSH1 0x20 ADD DUP3 DUP1 SLOAD PUSH2 0x1A43 SWAP1 PUSH2 0x2B3E JUMP JUMPDEST DUP1 ISZERO PUSH2 0x1A90 JUMPI DUP1 PUSH1 0x1F LT PUSH2 0x1A65 JUMPI PUSH2 0x100 DUP1 DUP4 SLOAD DIV MUL DUP4 MSTORE SWAP2 PUSH1 0x20 ADD SWAP2 PUSH2 0x1A90 JUMP JUMPDEST DUP3 ADD SWAP2 SWAP1 PUSH1 0x0 MSTORE PUSH1 0x20 PUSH1 0x0 KECCAK256 SWAP1 JUMPDEST DUP2 SLOAD DUP2 MSTORE SWAP1 PUSH1 0x1 ADD SWAP1 PUSH1 0x20 ADD DUP1 DUP4 GT PUSH2 0x1A73 JUMPI DUP3 SWAP1 SUB PUSH1 0x1F AND DUP3 ADD SWAP2 JUMPDEST POP POP POP SWAP2 DUP4 MSTORE POP POP PUSH1 0x6 DUP3 DUP2 ADD SLOAD PUSH1 0x20 SWAP1 SWAP3 ADD SWAP2 PUSH1 0xFF AND SWAP1 DUP2 GT ISZERO PUSH2 0x1AB7 JUMPI PUSH2 0x1AB7 PUSH2 0x289B JUMP JUMPDEST PUSH1 0x6 DUP2 GT ISZERO PUSH2 0x1AC8 JUMPI PUSH2 0x1AC8 PUSH2 0x289B JUMP JUMPDEST DUP2 MSTORE PUSH1 0x20 ADD PUSH1 0x6 DUP3 ADD PUSH1 0x1 SWAP1 SLOAD SWAP1 PUSH2 0x100 EXP SWAP1 DIV PUSH1 0xFF AND PUSH1 0x5 DUP2 GT ISZERO PUSH2 0x1AF0 JUMPI PUSH2 0x1AF0 PUSH2 0x289B JUMP JUMPDEST PUSH1 0x5 DUP2 GT ISZERO PUSH2 0x1B01 JUMPI PUSH2 0x1B01 PUSH2 0x289B JUMP JUMPDEST DUP2 MSTORE PUSH1 0x20 ADD PUSH1 0x6 DUP3 ADD PUSH1 0x2 SWAP1 SLOAD SWAP1 PUSH2 0x100 EXP SWAP1 DIV PUSH1 0xFF AND PUSH1 0x3 DUP2 GT ISZERO PUSH2 0x1B29 JUMPI PUSH2 0x1B29 PUSH2 0x289B JUMP JUMPDEST PUSH1 0x3 DUP2 GT ISZERO PUSH2 0x1B3A JUMPI PUSH2 0x1B3A PUSH2 0x289B JUMP JUMPDEST DUP2 MSTORE PUSH1 0x7 DUP3 ADD SLOAD PUSH1 0x20 DUP3 ADD MSTORE PUSH1 0x8 DUP3 ADD SLOAD PUSH1 0x40 DUP1 DUP4 ADD SWAP2 SWAP1 SWAP2 MSTORE DUP1 MLOAD PUSH2 0x140 DUP2 ADD SWAP1 SWAP2 MSTORE PUSH1 0x9 DUP4 ADD DUP1 SLOAD PUSH1 0x60 SWAP1 SWAP4 ADD SWAP3 DUP3 SWAP1 PUSH1 0xFF AND PUSH1 0x1 DUP2 GT ISZERO PUSH2 0x1B80 JUMPI PUSH2 0x1B80 PUSH2 0x289B JUMP JUMPDEST PUSH1 0x1 DUP2 GT ISZERO PUSH2 0x1B91 JUMPI PUSH2 0x1B91 PUSH2 0x289B JUMP JUMPDEST DUP2 MSTORE PUSH1 0x20 ADD PUSH1 0x1 DUP3 ADD SLOAD DUP2 MSTORE PUSH1 0x20 ADD PUSH1 0x2 DUP3 ADD DUP1 SLOAD PUSH2 0x1BAF SWAP1 PUSH2 0x2B3E JUMP JUMPDEST DUP1 PUSH1 0x1F ADD PUSH1 0x20 DUP1 SWAP2 DIV MUL PUSH1 0x20 ADD PUSH1 0x40 MLOAD SWAP1 DUP2 ADD PUSH1 0x40 MSTORE DUP1 SWAP3 SWAP2 SWAP1 DUP2 DUP2 MSTORE PUSH1 0x20 ADD DUP3 DUP1 SLOAD PUSH2 0x1BDB SWAP1 PUSH2 0x2B3E JUMP JUMPDEST DUP1 ISZERO PUSH2 0x1C28 JUMPI DUP1 PUSH1 0x1F LT PUSH2 0x1BFD JUMPI PUSH2 0x100 DUP1 DUP4 SLOAD DIV MUL DUP4 MSTORE SWAP2 PUSH1 0x20 ADD SWAP2 PUSH2 0x1C28 JUMP JUMPDEST DUP3 ADD SWAP2 SWAP1 PUSH1 0x0 MSTORE PUSH1 0x20 PUSH1 0x0 KECCAK256 SWAP1 JUMPDEST DUP2 SLOAD DUP2 MSTORE SWAP1 PUSH1 0x1 ADD SWAP1 PUSH1 0x20 ADD DUP1 DUP4 GT PUSH2 0x1C0B JUMPI DUP3 SWAP1 SUB PUSH1 0x1F AND DUP3 ADD SWAP2 JUMPDEST POP POP POP POP POP DUP2 MSTORE PUSH1 0x20 ADD PUSH1 0x3 DUP3 ADD DUP1 SLOAD PUSH2 0x1C41 SWAP1 PUSH2 0x2B3E JUMP JUMPDEST DUP1 PUSH1 0x1F ADD PUSH1 0x20 DUP1 SWAP2 DIV MUL PUSH1 0x20 ADD PUSH1 0x40 MLOAD SWAP1 DUP2 ADD PUSH1 0x40 MSTORE DUP1 SWAP3 SWAP2 SWAP1 DUP2 DUP2 MSTORE PUSH1 0x20 ADD DUP3 DUP1 SLOAD PUSH2 0x1C6D SWAP1 PUSH2 0x2B3E JUMP JUMPDEST DUP1 ISZERO PUSH2 0x1CBA JUMPI DUP1 PUSH1 0x1F LT PUSH2 0x1C8F JUMPI PUSH2 0x100 DUP1 DUP4 SLOAD DIV MUL DUP4 MSTORE SWAP2 PUSH1 0x20 ADD SWAP2 PUSH2 0x1CBA JUMP JUMPDEST DUP3 ADD SWAP2 SWAP1 PUSH1 0x0 MSTORE PUSH1 0x20 PUSH1 0x0 KECCAK256 SWAP1 JUMPDEST DUP2 SLOAD DUP2 MSTORE SWAP1 PUSH1 0x1 ADD SWAP1 PUSH1 0x20 ADD DUP1 DUP4 GT PUSH2 0x1C9D JUMPI DUP3 SWAP1 SUB PUSH1 0x1F AND DUP3 ADD SWAP2 JUMPDEST POP POP POP POP POP DUP2 MSTORE PUSH1 0x20 ADD PUSH1 0x4 DUP3 ADD DUP1 SLOAD PUSH2 0x1CD3 SWAP1 PUSH2 0x2B3E JUMP JUMPDEST DUP1 PUSH1 0x1F ADD PUSH1 0x20 DUP1 SWAP2 DIV MUL PUSH1 0x20 ADD PUSH1 0x40 MLOAD SWAP1 DUP2 ADD PUSH1 0x40 MSTORE DUP1 SWAP3 SWAP2 SWAP1 DUP2 DUP2 MSTORE PUSH1 0x20 ADD DUP3 DUP1 SLOAD PUSH2 0x1CFF SWAP1 PUSH2 0x2B3E JUMP JUMPDEST DUP1 ISZERO PUSH2 0x1D4C JUMPI DUP1 PUSH1 0x1F LT PUSH2 0x1D21 JUMPI PUSH2 0x100 DUP1 DUP4 SLOAD DIV MUL DUP4 MSTORE SWAP2 PUSH1 0x20 ADD SWAP2 PUSH2 0x1D4C JUMP JUMPDEST DUP3 ADD SWAP2 SWAP1 PUSH1 0x0 MSTORE PUSH1 0x20 PUSH1 0x0 KECCAK256 SWAP1 JUMPDEST DUP2 SLOAD DUP2 MSTORE SWAP1 PUSH1 0x1 ADD SWAP1 PUSH1 0x20 ADD DUP1 DUP4 GT PUSH2 0x1D2F JUMPI DUP3 SWAP1 SUB PUSH1 0x1F AND DUP3 ADD SWAP2 JUMPDEST POP POP POP POP POP DUP2 MSTORE PUSH1 0x20 ADD PUSH1 0x5 DUP3 ADD DUP1 SLOAD PUSH2 0x1D65 SWAP1 PUSH2 0x2B3E JUMP JUMPDEST DUP1 PUSH1 0x1F ADD PUSH1 0x20 DUP1 SWAP2 DIV MUL PUSH1 0x20 ADD PUSH1 0x40 MLOAD SWAP1 DUP2 ADD PUSH1 0x40 MSTORE DUP1 SWAP3 SWAP2 SWAP1 DUP2 DUP2 MSTORE PUSH1 0x20 ADD DUP3 DUP1 SLOAD PUSH2 0x1D91 SWAP1 PUSH2 0x2B3E JUMP JUMPDEST DUP1 ISZERO PUSH2 0x1DDE JUMPI DUP1 PUSH1 0x1F LT PUSH2 0x1DB3 JUMPI PUSH2 0x100 DUP1 DUP4 SLOAD DIV MUL DUP4 MSTORE SWAP2 PUSH1 0x20 ADD SWAP2 PUSH2 0x1DDE JUMP JUMPDEST DUP3 ADD SWAP2 SWAP1 PUSH1 0x0 MSTORE PUSH1 0x20 PUSH1 0x0 KECCAK256 SWAP1 JUMPDEST DUP2 SLOAD DUP2 MSTORE SWAP1 PUSH1 0x1 ADD SWAP1 PUSH1 0x20 ADD DUP1 DUP4 GT PUSH2 0x1DC1 JUMPI DUP3 SWAP1 SUB PUSH1 0x1F AND DUP3 ADD SWAP2 JUMPDEST POP POP POP POP POP DUP2 MSTORE PUSH1 0x20 ADD PUSH1 0x6 DUP3 ADD DUP1 SLOAD PUSH2 0x1DF7 SWAP1 PUSH2 0x2B3E JUMP JUMPDEST DUP1 PUSH1 0x1F ADD PUSH1 0x20 DUP1 SWAP2 DIV MUL PUSH1 0x20 ADD PUSH1 0x40 MLOAD SWAP1 DUP2 ADD PUSH1 0x40 MSTORE DUP1 SWAP3 SWAP2 SWAP1 DUP2 DUP2 MSTORE PUSH1 0x20 ADD DUP3 DUP1 SLOAD PUSH2 0x1E23 SWAP1 PUSH2 0x2B3E JUMP JUMPDEST DUP1 ISZERO PUSH2 0x1E70 JUMPI DUP1 PUSH1 0x1F LT PUSH2 0x1E45 JUMPI PUSH2 0x100 DUP1 DUP4 SLOAD DIV MUL DUP4 MSTORE SWAP2 PUSH1 0x20 ADD SWAP2 PUSH2 0x1E70 JUMP JUMPDEST DUP3 ADD SWAP2 SWAP1 PUSH1 0x0 MSTORE PUSH1 0x20 PUSH1 0x0 KECCAK256 SWAP1 JUMPDEST DUP2 SLOAD DUP2 MSTORE SWAP1 PUSH1 0x1 ADD SWAP1 PUSH1 0x20 ADD DUP1 DUP4 GT PUSH2 0x1E53 JUMPI DUP3 SWAP1 SUB PUSH1 0x1F AND DUP3 ADD SWAP2 JUMPDEST POP POP POP POP POP DUP2 MSTORE PUSH1 0x20 ADD PUSH1 0x7 DUP3 ADD DUP1 SLOAD PUSH2 0x1E89 SWAP1 PUSH2 0x2B3E JUMP JUMPDEST DUP1 PUSH1 0x1F ADD PUSH1 0x20 DUP1 SWAP2 DIV MUL PUSH1 0x20 ADD PUSH1 0x40 MLOAD SWAP1 DUP2 ADD PUSH1 0x40 MSTORE DUP1 SWAP3 SWAP2 SWAP1 DUP2 DUP2 MSTORE PUSH1 0x20 ADD DUP3 DUP1 SLOAD PUSH2 0x1EB5 SWAP1 PUSH2 0x2B3E JUMP JUMPDEST DUP1 ISZERO PUSH2 0x1F02 JUMPI DUP1 PUSH1 0x1F LT PUSH2 0x1ED7 JUMPI PUSH2 0x100 DUP1 DUP4 SLOAD DIV MUL DUP4 MSTORE SWAP2 PUSH1 0x20 ADD SWAP2 PUSH2 0x1F02 JUMP JUMPDEST DUP3 ADD SWAP2 SWAP1 PUSH1 0x0 MSTORE PUSH1 0x20 PUSH1 0x0 KECCAK256 SWAP1 JUMPDEST DUP2 SLOAD DUP2 MSTORE SWAP1 PUSH1 0x1 ADD SWAP1 PUSH1 0x20 ADD DUP1 DUP4 GT PUSH2 0x1EE5 JUMPI DUP3 SWAP1 SUB PUSH1 0x1F AND DUP3 ADD SWAP2 JUMPDEST POP POP POP POP POP DUP2 MSTORE PUSH1 0x20 ADD PUSH1 0x8 DUP3 ADD DUP1 SLOAD PUSH2 0x1F1B SWAP1 PUSH2 0x2B3E JUMP JUMPDEST DUP1 PUSH1 0x1F ADD PUSH1 0x20 DUP1 SWAP2 DIV MUL PUSH1 0x20 ADD PUSH1 0x40 MLOAD SWAP1 DUP2 ADD PUSH1 0x40 MSTORE DUP1 SWAP3 SWAP2 SWAP1 DUP2 DUP2 MSTORE PUSH1 0x20 ADD DUP3 DUP1 SLOAD PUSH2 0x1F47 SWAP1 PUSH2 0x2B3E JUMP JUMPDEST DUP1 ISZERO PUSH2 0x1F94 JUMPI DUP1 PUSH1 0x1F LT PUSH2 0x1F69 JUMPI PUSH2 0x100 DUP1 DUP4 SLOAD DIV MUL DUP4 MSTORE SWAP2 PUSH1 0x20 ADD SWAP2 PUSH2 0x1F94 JUMP JUMPDEST DUP3 ADD SWAP2 SWAP1 PUSH1 0x0 MSTORE PUSH1 0x20 PUSH1 0x0 KECCAK256 SWAP1 JUMPDEST DUP2 SLOAD DUP2 MSTORE SWAP1 PUSH1 0x1 ADD SWAP1 PUSH1 0x20 ADD DUP1 DUP4 GT PUSH2 0x1F77 JUMPI DUP3 SWAP1 SUB PUSH1 0x1F AND DUP3 ADD SWAP2 JUMPDEST POP POP POP POP POP DUP2 MSTORE PUSH1 0x20 ADD PUSH1 0x9 DUP3 ADD DUP1 SLOAD PUSH2 0x1FAD SWAP1 PUSH2 0x2B3E JUMP JUMPDEST DUP1 PUSH1 0x1F ADD PUSH1 0x20 DUP1 SWAP2 DIV MUL PUSH1 0x20 ADD PUSH1 0x40 MLOAD SWAP1 DUP2 ADD PUSH1 0x40 MSTORE DUP1 SWAP3 SWAP2 SWAP1 DUP2 DUP2 MSTORE PUSH1 0x20 ADD DUP3 DUP1 SLOAD PUSH2 0x1FD9 SWAP1 PUSH2 0x2B3E JUMP JUMPDEST DUP1 ISZERO PUSH2 0x2026 JUMPI DUP1 PUSH1 0x1F LT PUSH2 0x1FFB JUMPI PUSH2 0x100 DUP1 DUP4 SLOAD DIV MUL DUP4 MSTORE SWAP2 PUSH1 0x20 ADD SWAP2 PUSH2 0x2026 JUMP JUMPDEST DUP3 ADD SWAP2 SWAP1 PUSH1 0x0 MSTORE PUSH1 0x20 PUSH1 0x0 KECCAK256 SWAP1 JUMPDEST DUP2 SLOAD DUP2 MSTORE SWAP1 PUSH1 0x1 ADD SWAP1 PUSH1 0x20 ADD DUP1 DUP4 GT PUSH2 0x2009 JUMPI DUP3 SWAP1 SUB PUSH1 0x1F AND DUP3 ADD SWAP2 JUMPDEST POP POP POP SWAP2 SWAP1 SWAP3 MSTORE POP POP POP SWAP1 MSTORE POP PUSH1 0x60 ADD MLOAD SWAP4 SWAP3 POP POP POP JUMP JUMPDEST PUSH2 0x2046 PUSH2 0x21B0 JUMP JUMPDEST PUSH1 0x1 PUSH1 0x1 PUSH1 0xA0 SHL SUB DUP2 AND PUSH2 0x2070 JUMPI PUSH1 0x40 MLOAD PUSH4 0x1E4FBDF7 PUSH1 0xE0 SHL DUP2 MSTORE PUSH1 0x0 PUSH1 0x4 DUP3 ADD MSTORE PUSH1 0x24 ADD PUSH2 0x31A JUMP JUMPDEST PUSH2 0x2079 DUP2 PUSH2 0x21DD JUMP JUMPDEST POP JUMP JUMPDEST CALLER PUSH1 0x0 SWAP1 DUP2 MSTORE PUSH1 0x8 PUSH1 0x20 MSTORE PUSH1 0x40 DUP2 KECCAK256 DUP2 SWAP1 PUSH2 0x2096 SWAP1 PUSH2 0x23E1 JUMP JUMPDEST SWAP1 POP PUSH1 0x0 JUMPDEST DUP2 DUP2 LT ISZERO PUSH2 0x218E JUMPI CALLER PUSH1 0x0 SWAP1 DUP2 MSTORE PUSH1 0x8 PUSH1 0x20 MSTORE PUSH1 0x40 DUP2 KECCAK256 PUSH2 0x20BC SWAP1 DUP4 PUSH2 0x23EB JUMP JUMPDEST PUSH1 0x0 DUP2 DUP2 MSTORE PUSH1 0x9 PUSH1 0x20 MSTORE PUSH1 0x40 SWAP1 KECCAK256 SWAP1 SWAP2 POP PUSH2 0x20DB PUSH1 0x1 DUP3 ADD DUP11 DUP11 PUSH2 0x23F7 JUMP JUMPDEST DUP1 ISZERO PUSH2 0x20FF JUMPI POP PUSH1 0x1 PUSH1 0x6 DUP1 DUP4 ADD SLOAD PUSH1 0xFF AND SWAP1 DUP2 GT ISZERO PUSH2 0x20FD JUMPI PUSH2 0x20FD PUSH2 0x289B JUMP JUMPDEST EQ JUMPDEST DUP1 ISZERO PUSH2 0x2138 JUMPI POP DUP7 PUSH1 0x5 DUP2 GT ISZERO PUSH2 0x2118 JUMPI PUSH2 0x2118 PUSH2 0x289B JUMP JUMPDEST PUSH1 0x6 DUP3 ADD SLOAD PUSH2 0x100 SWAP1 DIV PUSH1 0xFF AND PUSH1 0x5 DUP2 GT ISZERO PUSH2 0x2136 JUMPI PUSH2 0x2136 PUSH2 0x289B JUMP JUMPDEST EQ JUMPDEST DUP1 ISZERO PUSH2 0x2172 JUMPI POP DUP6 PUSH1 0x3 DUP2 GT ISZERO PUSH2 0x2151 JUMPI PUSH2 0x2151 PUSH2 0x289B JUMP JUMPDEST PUSH1 0x6 DUP3 ADD SLOAD PUSH3 0x10000 SWAP1 DIV PUSH1 0xFF AND PUSH1 0x3 DUP2 GT ISZERO PUSH2 0x2170 JUMPI PUSH2 0x2170 PUSH2 0x289B JUMP JUMPDEST EQ JUMPDEST ISZERO PUSH2 0x2184 JUMPI PUSH1 0x1 SWAP5 POP POP POP POP POP PUSH2 0x2195 JUMP JUMPDEST POP POP PUSH1 0x1 ADD PUSH2 0x209B JUMP JUMPDEST POP PUSH1 0x0 SWAP2 POP POP JUMPDEST SWAP5 SWAP4 POP POP POP POP JUMP JUMPDEST PUSH1 0x0 PUSH2 0x21A9 DUP4 DUP4 PUSH2 0x2431 JUMP JUMPDEST SWAP4 SWAP3 POP POP POP JUMP JUMPDEST PUSH1 0x0 SLOAD PUSH1 0x1 PUSH1 0x1 PUSH1 0xA0 SHL SUB AND CALLER EQ PUSH2 0xD73 JUMPI PUSH1 0x40 MLOAD PUSH4 0x118CDAA7 PUSH1 0xE0 SHL DUP2 MSTORE CALLER PUSH1 0x4 DUP3 ADD MSTORE PUSH1 0x24 ADD PUSH2 0x31A JUMP JUMPDEST PUSH1 0x0 DUP1 SLOAD PUSH1 0x1 PUSH1 0x1 PUSH1 0xA0 SHL SUB DUP4 DUP2 AND PUSH1 0x1 PUSH1 0x1 PUSH1 0xA0 SHL SUB NOT DUP4 AND DUP2 OR DUP5 SSTORE PUSH1 0x40 MLOAD SWAP2 SWAP1 SWAP3 AND SWAP3 DUP4 SWAP2 PUSH32 0x8BE0079C531659141344CD1FD0A4F28419497F9722A3DAAFE3B4186F6B6457E0 SWAP2 SWAP1 LOG3 POP POP JUMP JUMPDEST PUSH1 0x1 PUSH2 0x2241 PUSH2 0x1C0 DUP4 ADD PUSH2 0x1A0 DUP5 ADD PUSH2 0x34A0 JUMP JUMPDEST PUSH1 0x4 DUP2 GT ISZERO PUSH2 0x2252 JUMPI PUSH2 0x2252 PUSH2 0x289B JUMP JUMPDEST EQ PUSH2 0x229F JUMPI PUSH1 0x40 MLOAD PUSH3 0x461BCD PUSH1 0xE5 SHL DUP2 MSTORE PUSH1 0x20 PUSH1 0x4 DUP3 ADD MSTORE PUSH1 0x17 PUSH1 0x24 DUP3 ADD MSTORE PUSH32 0x4C6963656E73652074797065206E6F74206C6973746564000000000000000000 PUSH1 0x44 DUP3 ADD MSTORE PUSH1 0x64 ADD PUSH2 0x31A JUMP JUMPDEST PUSH2 0x22AF PUSH1 0xC0 DUP3 ADD PUSH1 0xA0 DUP4 ADD PUSH2 0x34BB JUMP JUMPDEST ISZERO DUP1 ISZERO PUSH2 0x22C0 JUMPI POP PUSH1 0x0 DUP2 PUSH1 0x80 ADD CALLDATALOAD GT JUMPDEST DUP1 PUSH2 0x22D6 JUMPI POP PUSH2 0x22D6 PUSH1 0xC0 DUP3 ADD PUSH1 0xA0 DUP4 ADD PUSH2 0x34BB JUMP JUMPDEST PUSH2 0x2319 JUMPI PUSH1 0x40 MLOAD PUSH3 0x461BCD PUSH1 0xE5 SHL DUP2 MSTORE PUSH1 0x20 PUSH1 0x4 DUP3 ADD MSTORE PUSH1 0x14 PUSH1 0x24 DUP3 ADD MSTORE PUSH20 0x546F74616C20737570706C79206973207A65726F PUSH1 0x60 SHL PUSH1 0x44 DUP3 ADD MSTORE PUSH1 0x64 ADD PUSH2 0x31A JUMP JUMPDEST PUSH2 0x2329 PUSH1 0xE0 DUP3 ADD PUSH1 0xC0 DUP4 ADD PUSH2 0x34BB JUMP JUMPDEST PUSH2 0x2079 JUMPI PUSH1 0x0 PUSH2 0x233B TIMESTAMP PUSH2 0x3E8 PUSH2 0x2FE4 JUMP JUMPDEST SWAP1 POP DUP1 DUP3 PUSH2 0x120 ADD CALLDATALOAD GT ISZERO PUSH2 0x2392 JUMPI PUSH1 0x40 MLOAD PUSH3 0x461BCD PUSH1 0xE5 SHL DUP2 MSTORE PUSH1 0x20 PUSH1 0x4 DUP3 ADD MSTORE PUSH1 0x1B PUSH1 0x24 DUP3 ADD MSTORE PUSH32 0x4C6963656E736520686173206E6F742073746172746564207965740000000000 PUSH1 0x44 DUP3 ADD MSTORE PUSH1 0x64 ADD PUSH2 0x31A JUMP JUMPDEST DUP1 DUP3 PUSH2 0x140 ADD CALLDATALOAD LT ISZERO PUSH2 0x23DD JUMPI PUSH1 0x40 MLOAD PUSH3 0x461BCD PUSH1 0xE5 SHL DUP2 MSTORE PUSH1 0x20 PUSH1 0x4 DUP3 ADD MSTORE PUSH1 0x13 PUSH1 0x24 DUP3 ADD MSTORE PUSH19 0x131A58D95B9CD9481A185CC8195E1C1A5C9959 PUSH1 0x6A SHL PUSH1 0x44 DUP3 ADD MSTORE PUSH1 0x64 ADD PUSH2 0x31A JUMP JUMPDEST POP POP JUMP JUMPDEST PUSH1 0x0 PUSH2 0x9F0 DUP3 SLOAD SWAP1 JUMP JUMPDEST PUSH1 0x0 PUSH2 0x21A9 DUP4 DUP4 PUSH2 0x2480 JUMP JUMPDEST PUSH1 0x0 DUP3 DUP3 PUSH1 0x40 MLOAD PUSH2 0x2409 SWAP3 SWAP2 SWAP1 PUSH2 0x2CCA JUMP JUMPDEST PUSH1 0x40 MLOAD DUP1 SWAP2 SUB SWAP1 KECCAK256 DUP5 PUSH1 0x40 MLOAD PUSH2 0x241F SWAP2 SWAP1 PUSH2 0x34D6 JUMP JUMPDEST PUSH1 0x40 MLOAD DUP1 SWAP2 SUB SWAP1 KECCAK256 EQ SWAP1 POP SWAP4 SWAP3 POP POP POP JUMP JUMPDEST PUSH1 0x0 DUP2 DUP2 MSTORE PUSH1 0x1 DUP4 ADD PUSH1 0x20 MSTORE PUSH1 0x40 DUP2 KECCAK256 SLOAD PUSH2 0x2478 JUMPI POP DUP2 SLOAD PUSH1 0x1 DUP2 DUP2 ADD DUP5 SSTORE PUSH1 0x0 DUP5 DUP2 MSTORE PUSH1 0x20 DUP1 DUP3 KECCAK256 SWAP1 SWAP4 ADD DUP5 SWAP1 SSTORE DUP5 SLOAD DUP5 DUP3 MSTORE DUP3 DUP7 ADD SWAP1 SWAP4 MSTORE PUSH1 0x40 SWAP1 KECCAK256 SWAP2 SWAP1 SWAP2 SSTORE PUSH2 0x9F0 JUMP JUMPDEST POP PUSH1 0x0 PUSH2 0x9F0 JUMP JUMPDEST PUSH1 0x0 DUP3 PUSH1 0x0 ADD DUP3 DUP2 SLOAD DUP2 LT PUSH2 0x2497 JUMPI PUSH2 0x2497 PUSH2 0x2CDA JUMP JUMPDEST SWAP1 PUSH1 0x0 MSTORE PUSH1 0x20 PUSH1 0x0 KECCAK256 ADD SLOAD SWAP1 POP SWAP3 SWAP2 POP POP JUMP JUMPDEST PUSH1 0x0 DUP1 DUP4 PUSH1 0x1F DUP5 ADD SLT PUSH2 0x24BC JUMPI PUSH1 0x0 DUP1 REVERT JUMPDEST POP DUP2 CALLDATALOAD PUSH1 0x1 PUSH1 0x1 PUSH1 0x40 SHL SUB DUP2 GT ISZERO PUSH2 0x24D3 JUMPI PUSH1 0x0 DUP1 REVERT JUMPDEST PUSH1 0x20 DUP4 ADD SWAP2 POP DUP4 PUSH1 0x20 DUP3 DUP6 ADD ADD GT ISZERO PUSH2 0x24EB JUMPI PUSH1 0x0 DUP1 REVERT JUMPDEST SWAP3 POP SWAP3 SWAP1 POP JUMP JUMPDEST DUP1 CALLDATALOAD PUSH1 0x6 DUP2 LT PUSH2 0x2501 JUMPI PUSH1 0x0 DUP1 REVERT JUMPDEST SWAP2 SWAP1 POP JUMP JUMPDEST PUSH1 0x4 DUP2 LT PUSH2 0x2079 JUMPI PUSH1 0x0 DUP1 REVERT JUMPDEST DUP1 CALLDATALOAD PUSH2 0x2501 DUP2 PUSH2 0x2506 JUMP JUMPDEST DUP1 CALLDATALOAD PUSH1 0x1 PUSH1 0x1 PUSH1 0xA0 SHL SUB DUP2 AND DUP2 EQ PUSH2 0x2501 JUMPI PUSH1 0x0 DUP1 REVERT JUMPDEST PUSH1 0x0 PUSH2 0x140 DUP3 DUP5 SUB SLT ISZERO PUSH2 0x2548 JUMPI PUSH1 0x0 DUP1 REVERT JUMPDEST POP SWAP2 SWAP1 POP JUMP JUMPDEST PUSH1 0x0 DUP1 PUSH1 0x0 DUP1 PUSH1 0x0 DUP1 PUSH1 0x0 DUP1 PUSH1 0x0 DUP1 PUSH1 0x0 PUSH2 0x120 DUP13 DUP15 SUB SLT ISZERO PUSH2 0x2570 JUMPI PUSH1 0x0 DUP1 REVERT JUMPDEST PUSH1 0x1 PUSH1 0x1 PUSH1 0x40 SHL SUB DUP1 DUP14 CALLDATALOAD GT ISZERO PUSH2 0x2586 JUMPI PUSH1 0x0 DUP1 REVERT JUMPDEST PUSH2 0x2593 DUP15 DUP15 CALLDATALOAD DUP16 ADD PUSH2 0x24AA JUMP JUMPDEST SWAP1 SWAP13 POP SWAP11 POP PUSH1 0x20 DUP14 ADD CALLDATALOAD SWAP10 POP PUSH1 0x40 DUP14 ADD CALLDATALOAD DUP2 LT ISZERO PUSH2 0x25B0 JUMPI PUSH1 0x0 DUP1 REVERT JUMPDEST PUSH2 0x25C0 DUP15 PUSH1 0x40 DUP16 ADD CALLDATALOAD DUP16 ADD PUSH2 0x24AA JUMP JUMPDEST SWAP1 SWAP10 POP SWAP8 POP PUSH2 0x25D1 PUSH1 0x60 DUP15 ADD PUSH2 0x24F2 JUMP JUMPDEST SWAP7 POP PUSH2 0x25DF PUSH1 0x80 DUP15 ADD PUSH2 0x2513 JUMP JUMPDEST SWAP6 POP PUSH2 0x25ED PUSH1 0xA0 DUP15 ADD PUSH2 0x251E JUMP JUMPDEST SWAP5 POP PUSH1 0xC0 DUP14 ADD CALLDATALOAD SWAP4 POP PUSH1 0xE0 DUP14 ADD CALLDATALOAD SWAP3 POP DUP1 PUSH2 0x100 DUP15 ADD CALLDATALOAD GT ISZERO PUSH2 0x260F JUMPI PUSH1 0x0 DUP1 REVERT JUMPDEST POP PUSH2 0x2621 DUP14 PUSH2 0x100 DUP15 ADD CALLDATALOAD DUP15 ADD PUSH2 0x2535 JUMP JUMPDEST SWAP1 POP SWAP3 SWAP6 SWAP9 SWAP12 POP SWAP3 SWAP6 SWAP9 SWAP12 SWAP1 SWAP4 SWAP7 SWAP10 POP JUMP JUMPDEST PUSH1 0x0 DUP1 DUP4 PUSH1 0x1F DUP5 ADD SLT PUSH2 0x2645 JUMPI PUSH1 0x0 DUP1 REVERT JUMPDEST POP DUP2 CALLDATALOAD PUSH1 0x1 PUSH1 0x1 PUSH1 0x40 SHL SUB DUP2 GT ISZERO PUSH2 0x265C JUMPI PUSH1 0x0 DUP1 REVERT JUMPDEST PUSH1 0x20 DUP4 ADD SWAP2 POP DUP4 PUSH1 0x20 DUP3 PUSH1 0x5 SHL DUP6 ADD ADD GT ISZERO PUSH2 0x24EB JUMPI PUSH1 0x0 DUP1 REVERT JUMPDEST PUSH1 0x0 DUP1 PUSH1 0x20 DUP4 DUP6 SUB SLT ISZERO PUSH2 0x268A JUMPI PUSH1 0x0 DUP1 REVERT JUMPDEST DUP3 CALLDATALOAD PUSH1 0x1 PUSH1 0x1 PUSH1 0x40 SHL SUB DUP2 GT ISZERO PUSH2 0x26A0 JUMPI PUSH1 0x0 DUP1 REVERT JUMPDEST PUSH2 0x26AC DUP6 DUP3 DUP7 ADD PUSH2 0x2633 JUMP JUMPDEST SWAP1 SWAP7 SWAP1 SWAP6 POP SWAP4 POP POP POP POP JUMP JUMPDEST PUSH1 0x0 DUP1 PUSH1 0x0 DUP1 PUSH1 0x80 DUP6 DUP8 SUB SLT ISZERO PUSH2 0x26CE JUMPI PUSH1 0x0 DUP1 REVERT JUMPDEST DUP5 CALLDATALOAD SWAP4 POP PUSH1 0x20 DUP6 ADD CALLDATALOAD SWAP3 POP PUSH1 0x40 DUP6 ADD CALLDATALOAD SWAP2 POP PUSH1 0x60 DUP6 ADD CALLDATALOAD PUSH1 0x7 DUP2 LT PUSH2 0x26F2 JUMPI PUSH1 0x0 DUP1 REVERT JUMPDEST SWAP4 SWAP7 SWAP3 SWAP6 POP SWAP1 SWAP4 POP POP JUMP JUMPDEST PUSH1 0x0 PUSH1 0x20 DUP3 DUP5 SUB SLT ISZERO PUSH2 0x270F JUMPI PUSH1 0x0 DUP1 REVERT JUMPDEST PUSH2 0x21A9 DUP3 PUSH2 0x251E JUMP JUMPDEST PUSH1 0x0 DUP1 PUSH1 0x0 DUP1 PUSH1 0x0 DUP1 PUSH1 0x0 DUP1 PUSH1 0xC0 DUP10 DUP12 SUB SLT ISZERO PUSH2 0x2734 JUMPI PUSH1 0x0 DUP1 REVERT JUMPDEST DUP9 CALLDATALOAD PUSH1 0x1 PUSH1 0x1 PUSH1 0x40 SHL SUB DUP1 DUP3 GT ISZERO PUSH2 0x274B JUMPI PUSH1 0x0 DUP1 REVERT JUMPDEST PUSH2 0x2757 DUP13 DUP4 DUP14 ADD PUSH2 0x24AA JUMP JUMPDEST SWAP1 SWAP11 POP SWAP9 POP PUSH1 0x20 DUP12 ADD CALLDATALOAD SWAP8 POP PUSH1 0x40 DUP12 ADD CALLDATALOAD SWAP2 POP DUP1 DUP3 GT ISZERO PUSH2 0x2777 JUMPI PUSH1 0x0 DUP1 REVERT JUMPDEST PUSH2 0x2783 DUP13 DUP4 DUP14 ADD PUSH2 0x24AA JUMP JUMPDEST SWAP1 SWAP8 POP SWAP6 POP DUP6 SWAP2 POP PUSH2 0x2797 PUSH1 0x60 DUP13 ADD PUSH2 0x24F2 JUMP JUMPDEST SWAP5 POP PUSH1 0x80 DUP12 ADD CALLDATALOAD SWAP2 POP PUSH2 0x27A9 DUP3 PUSH2 0x2506 JUMP JUMPDEST SWAP1 SWAP3 POP PUSH1 0xA0 DUP11 ADD CALLDATALOAD SWAP1 DUP1 DUP3 GT ISZERO PUSH2 0x27BF JUMPI PUSH1 0x0 DUP1 REVERT JUMPDEST POP PUSH2 0x27CC DUP12 DUP3 DUP13 ADD PUSH2 0x2535 JUMP JUMPDEST SWAP2 POP POP SWAP3 SWAP6 SWAP9 POP SWAP3 SWAP6 SWAP9 SWAP1 SWAP4 SWAP7 POP JUMP JUMPDEST PUSH1 0x0 PUSH1 0x20 DUP3 DUP5 SUB SLT ISZERO PUSH2 0x27EE JUMPI PUSH1 0x0 DUP1 REVERT JUMPDEST POP CALLDATALOAD SWAP2 SWAP1 POP JUMP JUMPDEST PUSH1 0x0 DUP1 PUSH1 0x0 DUP1 PUSH1 0x0 DUP1 PUSH1 0x80 DUP8 DUP10 SUB SLT ISZERO PUSH2 0x280E JUMPI PUSH1 0x0 DUP1 REVERT JUMPDEST DUP7 CALLDATALOAD SWAP6 POP PUSH1 0x20 DUP8 ADD CALLDATALOAD PUSH1 0x1 PUSH1 0x1 PUSH1 0x40 SHL SUB DUP1 DUP3 GT ISZERO PUSH2 0x282C JUMPI PUSH1 0x0 DUP1 REVERT JUMPDEST PUSH2 0x2838 DUP11 DUP4 DUP12 ADD PUSH2 0x24AA JUMP JUMPDEST SWAP1 SWAP8 POP SWAP6 POP PUSH1 0x40 DUP10 ADD CALLDATALOAD SWAP2 POP DUP1 DUP3 GT ISZERO PUSH2 0x2851 JUMPI PUSH1 0x0 DUP1 REVERT JUMPDEST SWAP1 DUP9 ADD SWAP1 PUSH2 0x1E0 DUP3 DUP12 SUB SLT ISZERO PUSH2 0x2866 JUMPI PUSH1 0x0 DUP1 REVERT JUMPDEST SWAP1 SWAP4 POP PUSH1 0x60 DUP9 ADD CALLDATALOAD SWAP1 DUP1 DUP3 GT ISZERO PUSH2 0x287C JUMPI PUSH1 0x0 DUP1 REVERT JUMPDEST POP PUSH2 0x2889 DUP10 DUP3 DUP11 ADD PUSH2 0x2633 JUMP JUMPDEST SWAP8 SWAP11 SWAP7 SWAP10 POP SWAP5 SWAP8 POP SWAP3 SWAP6 SWAP4 SWAP5 SWAP3 POP POP POP JUMP JUMPDEST PUSH4 0x4E487B71 PUSH1 0xE0 SHL PUSH1 0x0 MSTORE PUSH1 0x21 PUSH1 0x4 MSTORE PUSH1 0x24 PUSH1 0x0 REVERT JUMPDEST PUSH4 0x4E487B71 PUSH1 0xE0 SHL PUSH1 0x0 MSTORE PUSH1 0x41 PUSH1 0x4 MSTORE PUSH1 0x24 PUSH1 0x0 REVERT JUMPDEST PUSH1 0x40 MLOAD PUSH2 0x140 DUP2 ADD PUSH1 0x1 PUSH1 0x1 PUSH1 0x40 SHL SUB DUP2 GT DUP3 DUP3 LT OR ISZERO PUSH2 0x28EA JUMPI PUSH2 0x28EA PUSH2 0x28B1 JUMP JUMPDEST PUSH1 0x40 MSTORE SWAP1 JUMP JUMPDEST PUSH1 0x40 MLOAD PUSH2 0x100 DUP2 ADD PUSH1 0x1 PUSH1 0x1 PUSH1 0x40 SHL SUB DUP2 GT DUP3 DUP3 LT OR ISZERO PUSH2 0x28EA JUMPI PUSH2 0x28EA PUSH2 0x28B1 JUMP JUMPDEST PUSH1 0x40 MLOAD PUSH2 0x1E0 DUP2 ADD PUSH1 0x1 PUSH1 0x1 PUSH1 0x40 SHL SUB DUP2 GT DUP3 DUP3 LT OR ISZERO PUSH2 0x28EA JUMPI PUSH2 0x28EA PUSH2 0x28B1 JUMP JUMPDEST DUP1 CALLDATALOAD PUSH1 0x2 DUP2 LT PUSH2 0x2501 JUMPI PUSH1 0x0 DUP1 REVERT JUMPDEST PUSH1 0x0 DUP3 PUSH1 0x1F DUP4 ADD SLT PUSH2 0x2956 JUMPI PUSH1 0x0 DUP1 REVERT JUMPDEST DUP2 CALLDATALOAD PUSH1 0x1 PUSH1 0x1 PUSH1 0x40 SHL SUB DUP1 DUP3 GT ISZERO PUSH2 0x2970 JUMPI PUSH2 0x2970 PUSH2 0x28B1 JUMP JUMPDEST PUSH1 0x40 MLOAD PUSH1 0x1F DUP4 ADD PUSH1 0x1F NOT SWAP1 DUP2 AND PUSH1 0x3F ADD AND DUP2 ADD SWAP1 DUP3 DUP3 GT DUP2 DUP4 LT OR ISZERO PUSH2 0x2998 JUMPI PUSH2 0x2998 PUSH2 0x28B1 JUMP JUMPDEST DUP2 PUSH1 0x40 MSTORE DUP4 DUP2 MSTORE DUP7 PUSH1 0x20 DUP6 DUP9 ADD ADD GT ISZERO PUSH2 0x29B1 JUMPI PUSH1 0x0 DUP1 REVERT JUMPDEST DUP4 PUSH1 0x20 DUP8 ADD PUSH1 0x20 DUP4 ADD CALLDATACOPY PUSH1 0x0 PUSH1 0x20 DUP6 DUP4 ADD ADD MSTORE DUP1 SWAP5 POP POP POP POP POP SWAP3 SWAP2 POP POP JUMP JUMPDEST PUSH1 0x0 PUSH2 0x140 DUP3 CALLDATASIZE SUB SLT ISZERO PUSH2 0x29E4 JUMPI PUSH1 0x0 DUP1 REVERT JUMPDEST PUSH2 0x29EC PUSH2 0x28C7 JUMP JUMPDEST PUSH2 0x29F5 DUP4 PUSH2 0x2936 JUMP JUMPDEST DUP2 MSTORE PUSH1 0x20 DUP4 ADD CALLDATALOAD PUSH1 0x20 DUP3 ADD MSTORE PUSH1 0x40 DUP4 ADD CALLDATALOAD PUSH1 0x1 PUSH1 0x1 PUSH1 0x40 SHL SUB DUP1 DUP3 GT ISZERO PUSH2 0x2A1B JUMPI PUSH1 0x0 DUP1 REVERT JUMPDEST PUSH2 0x2A27 CALLDATASIZE DUP4 DUP8 ADD PUSH2 0x2945 JUMP JUMPDEST PUSH1 0x40 DUP5 ADD MSTORE PUSH1 0x60 DUP6 ADD CALLDATALOAD SWAP2 POP DUP1 DUP3 GT ISZERO PUSH2 0x2A40 JUMPI PUSH1 0x0 DUP1 REVERT JUMPDEST PUSH2 0x2A4C CALLDATASIZE DUP4 DUP8 ADD PUSH2 0x2945 JUMP JUMPDEST PUSH1 0x60 DUP5 ADD MSTORE PUSH1 0x80 DUP6 ADD CALLDATALOAD SWAP2 POP DUP1 DUP3 GT ISZERO PUSH2 0x2A65 JUMPI PUSH1 0x0 DUP1 REVERT JUMPDEST PUSH2 0x2A71 CALLDATASIZE DUP4 DUP8 ADD PUSH2 0x2945 JUMP JUMPDEST PUSH1 0x80 DUP5 ADD MSTORE PUSH1 0xA0 DUP6 ADD CALLDATALOAD SWAP2 POP DUP1 DUP3 GT ISZERO PUSH2 0x2A8A JUMPI PUSH1 0x0 DUP1 REVERT JUMPDEST PUSH2 0x2A96 CALLDATASIZE DUP4 DUP8 ADD PUSH2 0x2945 JUMP JUMPDEST PUSH1 0xA0 DUP5 ADD MSTORE PUSH1 0xC0 DUP6 ADD CALLDATALOAD SWAP2 POP DUP1 DUP3 GT ISZERO PUSH2 0x2AAF JUMPI PUSH1 0x0 DUP1 REVERT JUMPDEST PUSH2 0x2ABB CALLDATASIZE DUP4 DUP8 ADD PUSH2 0x2945 JUMP JUMPDEST PUSH1 0xC0 DUP5 ADD MSTORE PUSH1 0xE0 DUP6 ADD CALLDATALOAD SWAP2 POP DUP1 DUP3 GT ISZERO PUSH2 0x2AD4 JUMPI PUSH1 0x0 DUP1 REVERT JUMPDEST PUSH2 0x2AE0 CALLDATASIZE DUP4 DUP8 ADD PUSH2 0x2945 JUMP JUMPDEST PUSH1 0xE0 DUP5 ADD MSTORE PUSH2 0x100 SWAP2 POP DUP2 DUP6 ADD CALLDATALOAD DUP2 DUP2 GT ISZERO PUSH2 0x2AFB JUMPI PUSH1 0x0 DUP1 REVERT JUMPDEST PUSH2 0x2B07 CALLDATASIZE DUP3 DUP9 ADD PUSH2 0x2945 JUMP JUMPDEST DUP4 DUP6 ADD MSTORE POP PUSH2 0x120 SWAP2 POP DUP2 DUP6 ADD CALLDATALOAD DUP2 DUP2 GT ISZERO PUSH2 0x2B22 JUMPI PUSH1 0x0 DUP1 REVERT JUMPDEST PUSH2 0x2B2E CALLDATASIZE DUP3 DUP9 ADD PUSH2 0x2945 JUMP JUMPDEST DUP4 DUP6 ADD MSTORE POP POP POP DUP1 SWAP2 POP POP SWAP2 SWAP1 POP JUMP JUMPDEST PUSH1 0x1 DUP2 DUP2 SHR SWAP1 DUP3 AND DUP1 PUSH2 0x2B52 JUMPI PUSH1 0x7F DUP3 AND SWAP2 POP JUMPDEST PUSH1 0x20 DUP3 LT DUP2 SUB PUSH2 0x2548 JUMPI PUSH4 0x4E487B71 PUSH1 0xE0 SHL PUSH1 0x0 MSTORE PUSH1 0x22 PUSH1 0x4 MSTORE PUSH1 0x24 PUSH1 0x0 REVERT JUMPDEST PUSH1 0x1F DUP3 GT ISZERO PUSH2 0x2BBE JUMPI PUSH1 0x0 DUP2 PUSH1 0x0 MSTORE PUSH1 0x20 PUSH1 0x0 KECCAK256 PUSH1 0x1F DUP6 ADD PUSH1 0x5 SHR DUP2 ADD PUSH1 0x20 DUP7 LT ISZERO PUSH2 0x2B9B JUMPI POP DUP1 JUMPDEST PUSH1 0x1F DUP6 ADD PUSH1 0x5 SHR DUP3 ADD SWAP2 POP JUMPDEST DUP2 DUP2 LT ISZERO PUSH2 0x2BBA JUMPI DUP3 DUP2 SSTORE PUSH1 0x1 ADD PUSH2 0x2BA7 JUMP JUMPDEST POP POP POP JUMPDEST POP POP POP JUMP JUMPDEST DUP2 MLOAD PUSH1 0x1 PUSH1 0x1 PUSH1 0x40 SHL SUB DUP2 GT ISZERO PUSH2 0x2BDC JUMPI PUSH2 0x2BDC PUSH2 0x28B1 JUMP JUMPDEST PUSH2 0x2BF0 DUP2 PUSH2 0x2BEA DUP5 SLOAD PUSH2 0x2B3E JUMP JUMPDEST DUP5 PUSH2 0x2B72 JUMP JUMPDEST PUSH1 0x20 DUP1 PUSH1 0x1F DUP4 GT PUSH1 0x1 DUP2 EQ PUSH2 0x2C25 JUMPI PUSH1 0x0 DUP5 ISZERO PUSH2 0x2C0D JUMPI POP DUP6 DUP4 ADD MLOAD JUMPDEST PUSH1 0x0 NOT PUSH1 0x3 DUP7 SWAP1 SHL SHR NOT AND PUSH1 0x1 DUP6 SWAP1 SHL OR DUP6 SSTORE PUSH2 0x2BBA JUMP JUMPDEST PUSH1 0x0 DUP6 DUP2 MSTORE PUSH1 0x20 DUP2 KECCAK256 PUSH1 0x1F NOT DUP7 AND SWAP2 JUMPDEST DUP3 DUP2 LT ISZERO PUSH2 0x2C54 JUMPI DUP9 DUP7 ADD MLOAD DUP3 SSTORE SWAP5 DUP5 ADD SWAP5 PUSH1 0x1 SWAP1 SWAP2 ADD SWAP1 DUP5 ADD PUSH2 0x2C35 JUMP JUMPDEST POP DUP6 DUP3 LT ISZERO PUSH2 0x2C72 JUMPI DUP8 DUP6 ADD MLOAD PUSH1 0x0 NOT PUSH1 0x3 DUP9 SWAP1 SHL PUSH1 0xF8 AND SHR NOT AND DUP2 SSTORE JUMPDEST POP POP POP POP POP PUSH1 0x1 SWAP1 DUP2 SHL ADD SWAP1 SSTORE POP JUMP JUMPDEST PUSH1 0x7 DUP2 LT PUSH2 0x2C92 JUMPI PUSH2 0x2C92 PUSH2 0x289B JUMP JUMPDEST SWAP1 MSTORE JUMP JUMPDEST DUP6 DUP2 MSTORE PUSH1 0x20 DUP2 ADD DUP6 SWAP1 MSTORE PUSH1 0x40 DUP2 ADD DUP5 SWAP1 MSTORE PUSH1 0xA0 DUP2 ADD PUSH2 0x2CB8 PUSH1 0x60 DUP4 ADD DUP6 PUSH2 0x2C82 JUMP JUMPDEST DUP3 ISZERO ISZERO PUSH1 0x80 DUP4 ADD MSTORE SWAP7 SWAP6 POP POP POP POP POP POP JUMP JUMPDEST DUP2 DUP4 DUP3 CALLDATACOPY PUSH1 0x0 SWAP2 ADD SWAP1 DUP2 MSTORE SWAP2 SWAP1 POP JUMP JUMPDEST PUSH4 0x4E487B71 PUSH1 0xE0 SHL PUSH1 0x0 MSTORE PUSH1 0x32 PUSH1 0x4 MSTORE PUSH1 0x24 PUSH1 0x0 REVERT JUMPDEST PUSH1 0x0 DUP3 CALLDATALOAD PUSH2 0x13E NOT DUP4 CALLDATASIZE SUB ADD DUP2 SLT PUSH2 0x2D07 JUMPI PUSH1 0x0 DUP1 REVERT JUMPDEST SWAP2 SWAP1 SWAP2 ADD SWAP3 SWAP2 POP POP JUMP JUMPDEST PUSH1 0x0 DUP3 CALLDATALOAD PUSH2 0x1DE NOT DUP4 CALLDATASIZE SUB ADD DUP2 SLT PUSH2 0x2D07 JUMPI PUSH1 0x0 DUP1 REVERT JUMPDEST DUP1 CALLDATALOAD PUSH1 0x3 DUP2 LT PUSH2 0x2501 JUMPI PUSH1 0x0 DUP1 REVERT JUMPDEST DUP1 CALLDATALOAD DUP1 ISZERO ISZERO DUP2 EQ PUSH2 0x2501 JUMPI PUSH1 0x0 DUP1 REVERT JUMPDEST PUSH1 0x0 PUSH2 0x100 DUP3 DUP5 SUB SLT ISZERO PUSH2 0x2D5A JUMPI PUSH1 0x0 DUP1 REVERT JUMPDEST PUSH2 0x2D62 PUSH2 0x28F0 JUMP JUMPDEST SWAP1 POP DUP2 CALLDATALOAD PUSH1 0x1 PUSH1 0x1 PUSH1 0x40 SHL SUB DUP1 DUP3 GT ISZERO PUSH2 0x2D7B JUMPI PUSH1 0x0 DUP1 REVERT JUMPDEST PUSH2 0x2D87 DUP6 DUP4 DUP7 ADD PUSH2 0x2945 JUMP JUMPDEST DUP4 MSTORE PUSH1 0x20 DUP5 ADD CALLDATALOAD SWAP2 POP DUP1 DUP3 GT ISZERO PUSH2 0x2D9D JUMPI PUSH1 0x0 DUP1 REVERT JUMPDEST POP PUSH2 0x2DAA DUP5 DUP3 DUP6 ADD PUSH2 0x2945 JUMP JUMPDEST PUSH1 0x20 DUP4 ADD MSTORE POP PUSH2 0x2DBC PUSH1 0x40 DUP4 ADD PUSH2 0x2936 JUMP JUMPDEST PUSH1 0x40 DUP3 ADD MSTORE PUSH1 0x60 DUP3 ADD CALLDATALOAD PUSH1 0x60 DUP3 ADD MSTORE PUSH1 0x80 DUP3 ADD CALLDATALOAD PUSH1 0x80 DUP3 ADD MSTORE PUSH2 0x2DE1 PUSH1 0xA0 DUP4 ADD PUSH2 0x2D37 JUMP JUMPDEST PUSH1 0xA0 DUP3 ADD MSTORE PUSH1 0xC0 DUP3 ADD CALLDATALOAD PUSH1 0xC0 DUP3 ADD MSTORE PUSH2 0x2DFC PUSH1 0xE0 DUP4 ADD PUSH2 0x2D37 JUMP JUMPDEST PUSH1 0xE0 DUP3 ADD MSTORE SWAP3 SWAP2 POP POP JUMP JUMPDEST DUP1 CALLDATALOAD PUSH1 0x5 DUP2 LT PUSH2 0x2501 JUMPI PUSH1 0x0 DUP1 REVERT JUMPDEST PUSH1 0x0 PUSH2 0x1E0 DUP3 CALLDATASIZE SUB SLT ISZERO PUSH2 0x2E29 JUMPI PUSH1 0x0 DUP1 REVERT JUMPDEST PUSH2 0x2E31 PUSH2 0x2913 JUMP JUMPDEST DUP3 CALLDATALOAD DUP2 MSTORE PUSH1 0x20 DUP4 ADD CALLDATALOAD PUSH1 0x20 DUP3 ADD MSTORE PUSH1 0x40 DUP4 ADD CALLDATALOAD PUSH1 0x40 DUP3 ADD MSTORE PUSH2 0x2E55 PUSH1 0x60 DUP5 ADD PUSH2 0x2D28 JUMP JUMPDEST PUSH1 0x60 DUP3 ADD MSTORE PUSH1 0x80 DUP4 ADD CALLDATALOAD PUSH1 0x80 DUP3 ADD MSTORE PUSH2 0x2E70 PUSH1 0xA0 DUP5 ADD PUSH2 0x2D37 JUMP JUMPDEST PUSH1 0xA0 DUP3 ADD MSTORE PUSH2 0x2E81 PUSH1 0xC0 DUP5 ADD PUSH2 0x2D37 JUMP JUMPDEST PUSH1 0xC0 DUP3 ADD MSTORE PUSH2 0x2E92 PUSH1 0xE0 DUP5 ADD PUSH2 0x2D37 JUMP JUMPDEST PUSH1 0xE0 DUP3 ADD MSTORE PUSH2 0x100 PUSH2 0x2EA5 DUP2 DUP6 ADD PUSH2 0x2513 JUMP JUMPDEST SWAP1 DUP3 ADD MSTORE PUSH2 0x120 DUP4 DUP2 ADD CALLDATALOAD SWAP1 DUP3 ADD MSTORE PUSH2 0x140 DUP1 DUP5 ADD CALLDATALOAD SWAP1 DUP3 ADD MSTORE PUSH2 0x160 DUP1 DUP5 ADD CALLDATALOAD SWAP1 DUP3 ADD MSTORE PUSH2 0x180 DUP1 DUP5 ADD CALLDATALOAD PUSH1 0x1 PUSH1 0x1 PUSH1 0x40 SHL SUB DUP1 DUP3 GT ISZERO PUSH2 0x2EE6 JUMPI PUSH1 0x0 DUP1 REVERT JUMPDEST PUSH2 0x2EF2 CALLDATASIZE DUP4 DUP9 ADD PUSH2 0x2D47 JUMP JUMPDEST DUP4 DUP6 ADD MSTORE PUSH2 0x1A0 SWAP3 POP PUSH2 0x2F06 DUP4 DUP8 ADD PUSH2 0x2E07 JUMP JUMPDEST DUP4 DUP6 ADD MSTORE PUSH2 0x1C0 SWAP3 POP DUP3 DUP7 ADD CALLDATALOAD SWAP2 POP DUP1 DUP3 GT ISZERO PUSH2 0x2F22 JUMPI PUSH1 0x0 DUP1 REVERT JUMPDEST POP PUSH2 0x2F2F CALLDATASIZE DUP3 DUP8 ADD PUSH2 0x2945 JUMP JUMPDEST SWAP2 DUP4 ADD SWAP2 SWAP1 SWAP2 MSTORE POP SWAP3 SWAP2 POP POP JUMP JUMPDEST PUSH1 0x0 PUSH1 0x20 DUP3 DUP5 SUB SLT ISZERO PUSH2 0x2F4F JUMPI PUSH1 0x0 DUP1 REVERT JUMPDEST DUP2 CALLDATALOAD PUSH2 0x21A9 DUP2 PUSH2 0x2506 JUMP JUMPDEST PUSH1 0x0 PUSH1 0x20 DUP3 DUP5 SUB SLT ISZERO PUSH2 0x2F6C JUMPI PUSH1 0x0 DUP1 REVERT JUMPDEST PUSH2 0x21A9 DUP3 PUSH2 0x24F2 JUMP JUMPDEST PUSH1 0x0 DUP1 DUP4 CALLDATALOAD PUSH1 0x1E NOT DUP5 CALLDATASIZE SUB ADD DUP2 SLT PUSH2 0x2F8C JUMPI PUSH1 0x0 DUP1 REVERT JUMPDEST DUP4 ADD DUP1 CALLDATALOAD SWAP2 POP PUSH1 0x1 PUSH1 0x1 PUSH1 0x40 SHL SUB DUP3 GT ISZERO PUSH2 0x2FA6 JUMPI PUSH1 0x0 DUP1 REVERT JUMPDEST PUSH1 0x20 ADD SWAP2 POP CALLDATASIZE DUP2 SWAP1 SUB DUP3 SGT ISZERO PUSH2 0x24EB JUMPI PUSH1 0x0 DUP1 REVERT JUMPDEST PUSH4 0x4E487B71 PUSH1 0xE0 SHL PUSH1 0x0 MSTORE PUSH1 0x11 PUSH1 0x4 MSTORE PUSH1 0x24 PUSH1 0x0 REVERT JUMPDEST DUP2 DUP2 SUB DUP2 DUP2 GT ISZERO PUSH2 0x9F0 JUMPI PUSH2 0x9F0 PUSH2 0x2FBB JUMP JUMPDEST DUP1 DUP3 MUL DUP2 ISZERO DUP3 DUP3 DIV DUP5 EQ OR PUSH2 0x9F0 JUMPI PUSH2 0x9F0 PUSH2 0x2FBB JUMP JUMPDEST PUSH1 0x0 DUP3 PUSH2 0x3018 JUMPI PUSH4 0x4E487B71 PUSH1 0xE0 SHL PUSH1 0x0 MSTORE PUSH1 0x12 PUSH1 0x4 MSTORE PUSH1 0x24 PUSH1 0x0 REVERT JUMPDEST POP DIV SWAP1 JUMP JUMPDEST DUP1 DUP3 ADD DUP1 DUP3 GT ISZERO PUSH2 0x9F0 JUMPI PUSH2 0x9F0 PUSH2 0x2FBB JUMP JUMPDEST PUSH1 0x0 DUP2 MLOAD DUP1 DUP5 MSTORE PUSH1 0x0 JUMPDEST DUP2 DUP2 LT ISZERO PUSH2 0x3056 JUMPI PUSH1 0x20 DUP2 DUP6 ADD DUP2 ADD MLOAD DUP7 DUP4 ADD DUP3 ADD MSTORE ADD PUSH2 0x303A JUMP JUMPDEST POP PUSH1 0x0 PUSH1 0x20 DUP3 DUP7 ADD ADD MSTORE PUSH1 0x20 PUSH1 0x1F NOT PUSH1 0x1F DUP4 ADD AND DUP6 ADD ADD SWAP2 POP POP SWAP3 SWAP2 POP POP JUMP JUMPDEST PUSH1 0x3 DUP2 LT PUSH2 0x2C92 JUMPI PUSH2 0x2C92 PUSH2 0x289B JUMP JUMPDEST PUSH1 0x4 DUP2 LT PUSH2 0x2079 JUMPI PUSH2 0x2079 PUSH2 0x289B JUMP JUMPDEST PUSH2 0x2C92 DUP2 PUSH2 0x3086 JUMP JUMPDEST PUSH1 0x0 PUSH2 0x100 DUP3 MLOAD DUP2 DUP6 MSTORE PUSH2 0x30B5 DUP3 DUP7 ADD DUP3 PUSH2 0x3030 JUMP JUMPDEST SWAP2 POP POP PUSH1 0x20 DUP4 ADD MLOAD DUP5 DUP3 SUB PUSH1 0x20 DUP7 ADD MSTORE PUSH2 0x30CF DUP3 DUP3 PUSH2 0x3030 JUMP JUMPDEST SWAP2 POP POP PUSH1 0x40 DUP4 ADD MLOAD PUSH1 0x2 DUP2 LT PUSH2 0x30E7 JUMPI PUSH2 0x30E7 PUSH2 0x289B JUMP JUMPDEST DUP1 PUSH1 0x40 DUP7 ADD MSTORE POP PUSH1 0x60 DUP4 ADD MLOAD PUSH1 0x60 DUP6 ADD MSTORE PUSH1 0x80 DUP4 ADD MLOAD PUSH1 0x80 DUP6 ADD MSTORE PUSH1 0xA0 DUP4 ADD MLOAD PUSH2 0x3115 PUSH1 0xA0 DUP7 ADD DUP3 ISZERO ISZERO SWAP1 MSTORE JUMP JUMPDEST POP PUSH1 0xC0 DUP4 ADD MLOAD PUSH1 0xC0 DUP6 ADD MSTORE PUSH1 0xE0 DUP4 ADD MLOAD PUSH2 0x9EC PUSH1 0xE0 DUP7 ADD DUP3 ISZERO ISZERO SWAP1 MSTORE JUMP JUMPDEST PUSH1 0x5 DUP2 LT PUSH2 0x2C92 JUMPI PUSH2 0x2C92 PUSH2 0x289B JUMP JUMPDEST PUSH1 0x0 PUSH2 0x1E0 DUP3 MLOAD DUP5 MSTORE PUSH1 0x20 DUP4 ADD MLOAD PUSH1 0x20 DUP6 ADD MSTORE PUSH1 0x40 DUP4 ADD MLOAD PUSH1 0x40 DUP6 ADD MSTORE PUSH1 0x60 DUP4 ADD MLOAD PUSH2 0x3172 PUSH1 0x60 DUP7 ADD DUP3 PUSH2 0x3076 JUMP JUMPDEST POP PUSH1 0x80 DUP4 ADD MLOAD PUSH1 0x80 DUP6 ADD MSTORE PUSH1 0xA0 DUP4 ADD MLOAD PUSH2 0x3190 PUSH1 0xA0 DUP7 ADD DUP3 ISZERO ISZERO SWAP1 MSTORE JUMP JUMPDEST POP PUSH1 0xC0 DUP4 ADD MLOAD PUSH2 0x31A4 PUSH1 0xC0 DUP7 ADD DUP3 ISZERO ISZERO SWAP1 MSTORE JUMP JUMPDEST POP PUSH1 0xE0 DUP4 ADD MLOAD PUSH2 0x31B8 PUSH1 0xE0 DUP7 ADD DUP3 ISZERO ISZERO SWAP1 MSTORE JUMP JUMPDEST POP PUSH2 0x100 DUP1 DUP5 ADD MLOAD PUSH2 0x31CC DUP3 DUP8 ADD DUP3 PUSH2 0x3096 JUMP JUMPDEST POP POP PUSH2 0x120 DUP4 DUP2 ADD MLOAD SWAP1 DUP6 ADD MSTORE PUSH2 0x140 DUP1 DUP5 ADD MLOAD SWAP1 DUP6 ADD MSTORE PUSH2 0x160 DUP1 DUP5 ADD MLOAD SWAP1 DUP6 ADD MSTORE PUSH2 0x180 DUP1 DUP5 ADD MLOAD DUP2 DUP7 ADD DUP4 SWAP1 MSTORE PUSH2 0x3208 DUP4 DUP8 ADD DUP3 PUSH2 0x309F JUMP JUMPDEST SWAP3 POP POP POP PUSH2 0x1A0 DUP1 DUP5 ADD MLOAD PUSH2 0x321F DUP3 DUP8 ADD DUP3 PUSH2 0x3133 JUMP JUMPDEST POP POP PUSH2 0x1C0 DUP1 DUP5 ADD MLOAD DUP6 DUP4 SUB DUP3 DUP8 ADD MSTORE PUSH2 0x3239 DUP4 DUP3 PUSH2 0x3030 JUMP JUMPDEST SWAP7 SWAP6 POP POP POP POP POP POP JUMP JUMPDEST PUSH1 0x6 DUP2 LT PUSH2 0x2C92 JUMPI PUSH2 0x2C92 PUSH2 0x289B JUMP JUMPDEST PUSH1 0x80 DUP2 MSTORE PUSH1 0x0 DUP6 MLOAD PUSH1 0xE0 PUSH1 0x80 DUP5 ADD MSTORE PUSH2 0x3270 PUSH2 0x160 DUP5 ADD DUP3 PUSH2 0x3030 JUMP JUMPDEST SWAP1 POP PUSH1 0x20 DUP8 ADD MLOAD PUSH1 0x7F NOT DUP1 DUP6 DUP5 SUB ADD PUSH1 0xA0 DUP7 ADD MSTORE PUSH2 0x328E DUP4 DUP4 PUSH2 0x3030 JUMP JUMPDEST SWAP3 POP PUSH1 0x40 DUP10 ADD MLOAD SWAP2 POP DUP1 DUP6 DUP5 SUB ADD PUSH1 0xC0 DUP7 ADD MSTORE PUSH2 0x32AB DUP4 DUP4 PUSH2 0x3030 JUMP JUMPDEST PUSH1 0x60 DUP11 ADD MLOAD PUSH1 0x1 PUSH1 0x1 PUSH1 0xA0 SHL SUB AND PUSH1 0xE0 DUP8 ADD MSTORE PUSH1 0x80 DUP11 ADD MLOAD DUP7 DUP3 SUB SWAP1 SWAP3 ADD PUSH2 0x100 DUP8 ADD MSTORE SWAP3 POP SWAP1 POP PUSH2 0x32DD DUP3 DUP3 PUSH2 0x3143 JUMP JUMPDEST PUSH1 0xA0 DUP10 ADD MLOAD PUSH2 0x120 DUP7 ADD MSTORE PUSH1 0xC0 DUP10 ADD MLOAD PUSH2 0x140 DUP7 ADD MSTORE SWAP3 POP PUSH2 0x3305 SWAP2 POP POP PUSH1 0x20 DUP4 ADD DUP7 PUSH2 0x3243 JUMP JUMPDEST PUSH2 0x3312 PUSH1 0x40 DUP4 ADD DUP6 PUSH2 0x2C82 JUMP JUMPDEST PUSH2 0x331F PUSH1 0x60 DUP4 ADD DUP5 PUSH2 0x3096 JUMP JUMPDEST SWAP6 SWAP5 POP POP POP POP POP JUMP JUMPDEST PUSH1 0x0 DUP1 DUP4 CALLDATALOAD PUSH1 0x1E NOT DUP5 CALLDATASIZE SUB ADD DUP2 SLT PUSH2 0x333F JUMPI PUSH1 0x0 DUP1 REVERT JUMPDEST DUP4 ADD PUSH1 0x20 DUP2 ADD SWAP3 POP CALLDATALOAD SWAP1 POP PUSH1 0x1 PUSH1 0x1 PUSH1 0x40 SHL SUB DUP2 GT ISZERO PUSH2 0x335E JUMPI PUSH1 0x0 DUP1 REVERT JUMPDEST DUP1 CALLDATASIZE SUB DUP3 SGT ISZERO PUSH2 0x24EB JUMPI PUSH1 0x0 DUP1 REVERT JUMPDEST DUP2 DUP4 MSTORE DUP2 DUP2 PUSH1 0x20 DUP6 ADD CALLDATACOPY POP PUSH1 0x0 DUP3 DUP3 ADD PUSH1 0x20 SWAP1 DUP2 ADD SWAP2 SWAP1 SWAP2 MSTORE PUSH1 0x1F SWAP1 SWAP2 ADD PUSH1 0x1F NOT AND SWAP1 SWAP2 ADD ADD SWAP1 JUMP JUMPDEST PUSH1 0x40 DUP1 DUP3 MSTORE DUP2 DUP2 ADD DUP5 SWAP1 MSTORE PUSH1 0x0 SWAP1 PUSH1 0x60 DUP1 DUP5 ADD PUSH1 0x5 DUP8 SWAP1 SHL DUP6 ADD DUP3 ADD DUP9 DUP6 DUP1 JUMPDEST DUP11 DUP2 LT ISZERO PUSH2 0x346D JUMPI DUP9 DUP5 SUB PUSH1 0x5F NOT ADD DUP6 MSTORE DUP3 CALLDATALOAD CALLDATASIZE DUP14 SWAP1 SUB PUSH1 0x9E NOT ADD DUP2 SLT PUSH2 0x33DB JUMPI DUP3 DUP4 REVERT JUMPDEST DUP13 ADD PUSH1 0xA0 PUSH2 0x33E9 DUP3 DUP1 PUSH2 0x3328 JUMP JUMPDEST DUP3 DUP9 MSTORE PUSH2 0x33F9 DUP4 DUP10 ADD DUP3 DUP5 PUSH2 0x336D JUMP JUMPDEST SWAP3 POP POP POP PUSH1 0x20 PUSH2 0x340B DUP2 DUP5 ADD DUP5 PUSH2 0x3328 JUMP JUMPDEST DUP9 DUP5 SUB DUP4 DUP11 ADD MSTORE PUSH2 0x341D DUP5 DUP3 DUP5 PUSH2 0x336D JUMP JUMPDEST SWAP4 POP POP POP DUP10 DUP4 ADD CALLDATALOAD DUP11 DUP9 ADD MSTORE PUSH2 0x3434 DUP10 DUP5 ADD PUSH2 0x2D37 JUMP JUMPDEST ISZERO ISZERO DUP8 DUP11 ADD MSTORE PUSH1 0x80 SWAP3 DUP4 ADD CALLDATALOAD SWAP3 PUSH2 0x344A DUP5 PUSH2 0x2506 JUMP JUMPDEST PUSH2 0x3453 DUP5 PUSH2 0x3086 JUMP JUMPDEST SWAP7 SWAP1 SWAP7 ADD SWAP2 SWAP1 SWAP2 MSTORE SWAP5 DUP5 ADD SWAP5 SWAP4 SWAP3 SWAP1 SWAP3 ADD SWAP2 PUSH1 0x1 ADD PUSH2 0x33B6 JUMP JUMPDEST POP POP POP DUP1 SWAP5 POP POP POP POP POP DUP3 PUSH1 0x20 DUP4 ADD MSTORE SWAP5 SWAP4 POP POP POP POP JUMP JUMPDEST PUSH1 0x0 PUSH1 0x20 DUP3 DUP5 SUB SLT ISZERO PUSH2 0x3497 JUMPI PUSH1 0x0 DUP1 REVERT JUMPDEST PUSH2 0x21A9 DUP3 PUSH2 0x2D28 JUMP JUMPDEST PUSH1 0x0 PUSH1 0x20 DUP3 DUP5 SUB SLT ISZERO PUSH2 0x34B2 JUMPI PUSH1 0x0 DUP1 REVERT JUMPDEST PUSH2 0x21A9 DUP3 PUSH2 0x2E07 JUMP JUMPDEST PUSH1 0x0 PUSH1 0x20 DUP3 DUP5 SUB SLT ISZERO PUSH2 0x34CD JUMPI PUSH1 0x0 DUP1 REVERT JUMPDEST PUSH2 0x21A9 DUP3 PUSH2 0x2D37 JUMP JUMPDEST PUSH1 0x0 DUP1 DUP4 SLOAD PUSH2 0x34E4 DUP2 PUSH2 0x2B3E JUMP JUMPDEST PUSH1 0x1 DUP3 DUP2 AND DUP1 ISZERO PUSH2 0x34FC JUMPI PUSH1 0x1 DUP2 EQ PUSH2 0x3511 JUMPI PUSH2 0x3540 JUMP JUMPDEST PUSH1 0xFF NOT DUP5 AND DUP8 MSTORE DUP3 ISZERO ISZERO DUP4 MUL DUP8 ADD SWAP5 POP PUSH2 0x3540 JUMP JUMPDEST DUP8 PUSH1 0x0 MSTORE PUSH1 0x20 DUP1 PUSH1 0x0 KECCAK256 PUSH1 0x0 JUMPDEST DUP6 DUP2 LT ISZERO PUSH2 0x3537 JUMPI DUP2 SLOAD DUP11 DUP3 ADD MSTORE SWAP1 DUP5 ADD SWAP1 DUP3 ADD PUSH2 0x351E JUMP JUMPDEST POP POP POP DUP3 DUP8 ADD SWAP5 POP JUMPDEST POP SWAP3 SWAP7 SWAP6 POP POP POP POP POP POP JUMP INVALID PUSH7 0x5A17E15A1574E0 ADDRESS 0xDE PUSH2 0x7EA8 0x2C 0x29 BLOCKHASH 0xFC SWAP12 PUSH3 0xF64F5B MSTORE8 PUSH26 0xD9EEF1ED2979B379A26469706673582212209EBA562C70108B72 0xA9 SWAP4 SLOAD 0xB8 0xC2 0xBA 0xCB 0xF8 0xE GT EXTCODESIZE SWAP13 DUP15 0xD3 PUSH16 0x161E7B16F2E570FE4A64736F6C634300 ADDMOD OR STOP CALLER "},"methodIdentifiers":{"acceptOffer(uint256,string,(uint256,uint256,uint256,uint8,uint256,bool,bool,bool,uint8,uint256,uint256,uint256,(string,string,uint8,uint256,uint256,bool,uint256,bool),uint8,bytes),(string,string,uint256,bool,uint8)[])":"8dc692c6","calculateTotalPrice((string,string,string,uint256,uint256,uint256,uint8,uint8,(uint256,uint256,uint256,uint8,uint256,bool,bool,bool,uint8,uint256,uint256,uint256,(string,string,uint8,uint256,uint256,bool,uint256,bool),uint8,bytes),(uint8,uint256,string,string,string,string,string,string,string,string))[])":"2a355af9","createOfferData(string,uint256,string,uint8,uint8,address,uint256,uint256,(uint8,uint256,string,string,string,string,string,string,string,string))":"0eba45d8","editOffer(uint256,uint256,uint256,uint8)":"4f4e5de8","fetchCurrentOfferPrice(uint256)":"ee8e028c","marketOwner()":"47d90b5c","nitrilityFactory()":"2e701510","owner()":"8da5cb5b","placeOffer(string,uint256,string,uint8,uint8,(uint8,uint256,string,string,string,string,string,string,string,string))":"6181236f","purchaseLicenses((string,string,string,uint256,uint256,uint256,uint8,uint8,(uint256,uint256,uint256,uint8,uint256,bool,bool,bool,uint8,uint256,uint256,uint256,(string,string,uint8,uint256,uint256,bool,uint256,bool),uint8,bytes),(uint8,uint256,string,string,string,string,string,string,string,string))[])":"a073827f","rejectOffer(uint256)":"88b10c75","renounceOwnership()":"715018a6","setFactory(address)":"5bb47808","setMarketOwner(address)":"6cdaa421","transferOwnership(address)":"f2fde38b"}},"storageLayout":{"storage":[{"astId":8,"contract":"contracts/NitrilityAuction.sol:NitrilityAuction","label":"_owner","offset":0,"slot":"0","type":"t_address"},{"astId":188,"contract":"contracts/NitrilityAuction.sol:NitrilityAuction","label":"_status","offset":0,"slot":"1","type":"t_uint256"},{"astId":886,"contract":"contracts/NitrilityAuction.sol:NitrilityAuction","label":"marketOwner","offset":0,"slot":"2","type":"t_address"},{"astId":888,"contract":"contracts/NitrilityAuction.sol:NitrilityAuction","label":"nitrilityFactory","offset":0,"slot":"3","type":"t_address"},{"astId":891,"contract":"contracts/NitrilityAuction.sol:NitrilityAuction","label":"offerIds","offset":0,"slot":"4","type":"t_struct(Counter)2369_storage"},{"astId":894,"contract":"contracts/NitrilityAuction.sol:NitrilityAuction","label":"offerSet","offset":0,"slot":"5","type":"t_struct(UintSet)729_storage"},{"astId":991,"contract":"contracts/NitrilityAuction.sol:NitrilityAuction","label":"offerIdsOfLicense","offset":0,"slot":"7","type":"t_mapping(t_string_memory_ptr,t_struct(UintSet)729_storage)"},{"astId":996,"contract":"contracts/NitrilityAuction.sol:NitrilityAuction","label":"offerIdsOfBuyer","offset":0,"slot":"8","type":"t_mapping(t_address,t_struct(UintSet)729_storage)"},{"astId":1034,"contract":"contracts/NitrilityAuction.sol:NitrilityAuction","label":"idToOffer","offset":0,"slot":"9","type":"t_mapping(t_uint256,t_struct(OfferData)973_storage)"}],"types":{"t_address":{"encoding":"inplace","label":"address","numberOfBytes":"20"},"t_array(t_bytes32)dyn_storage":{"base":"t_bytes32","encoding":"dynamic_array","label":"bytes32[]","numberOfBytes":"32"},"t_bytes32":{"encoding":"inplace","label":"bytes32","numberOfBytes":"32"},"t_enum(EventTypes)2187":{"encoding":"inplace","label":"enum NitrilityCommon.EventTypes","numberOfBytes":"1"},"t_enum(Exclusivity)2192":{"encoding":"inplace","label":"enum NitrilityCommon.Exclusivity","numberOfBytes":"1"},"t_enum(LicensingType)2203":{"encoding":"inplace","label":"enum NitrilityCommon.LicensingType","numberOfBytes":"1"},"t_enum(PurchaseType)897":{"encoding":"inplace","label":"enum NitrilityAuction.PurchaseType","numberOfBytes":"1"},"t_mapping(t_address,t_struct(UintSet)729_storage)":{"encoding":"mapping","key":"t_address","label":"mapping(address => struct EnumerableSet.UintSet)","numberOfBytes":"32","value":"t_struct(UintSet)729_storage"},"t_mapping(t_bytes32,t_uint256)":{"encoding":"mapping","key":"t_bytes32","label":"mapping(bytes32 => uint256)","numberOfBytes":"32","value":"t_uint256"},"t_mapping(t_string_memory_ptr,t_struct(UintSet)729_storage)":{"encoding":"mapping","key":"t_string_memory_ptr","label":"mapping(string => struct EnumerableSet.UintSet)","numberOfBytes":"32","value":"t_struct(UintSet)729_storage"},"t_mapping(t_uint256,t_struct(OfferData)973_storage)":{"encoding":"mapping","key":"t_uint256","label":"mapping(uint256 => struct NitrilityAuction.OfferData)","numberOfBytes":"32","value":"t_struct(OfferData)973_storage"},"t_string_memory_ptr":{"encoding":"bytes","label":"string","numberOfBytes":"32"},"t_string_storage":{"encoding":"bytes","label":"string","numberOfBytes":"32"},"t_struct(Counter)2369_storage":{"encoding":"inplace","label":"struct Counters.Counter","members":[{"astId":2368,"contract":"contracts/NitrilityAuction.sol:NitrilityAuction","label":"_value","offset":0,"slot":"0","type":"t_uint256"}],"numberOfBytes":"32"},"t_struct(Metadata)919_storage":{"encoding":"inplace","label":"struct NitrilityAuction.Metadata","members":[{"astId":900,"contract":"contracts/NitrilityAuction.sol:NitrilityAuction","label":"purchaseType","offset":0,"slot":"0","type":"t_enum(PurchaseType)897"},{"astId":902,"contract":"contracts/NitrilityAuction.sol:NitrilityAuction","label":"exclusiveTime","offset":0,"slot":"1","type":"t_uint256"},{"astId":904,"contract":"contracts/NitrilityAuction.sol:NitrilityAuction","label":"governingLaw","offset":0,"slot":"2","type":"t_string_storage"},{"astId":906,"contract":"contracts/NitrilityAuction.sol:NitrilityAuction","label":"sellerId","offset":0,"slot":"3","type":"t_string_storage"},{"astId":908,"contract":"contracts/NitrilityAuction.sol:NitrilityAuction","label":"usageNotes","offset":0,"slot":"4","type":"t_string_storage"},{"astId":910,"contract":"contracts/NitrilityAuction.sol:NitrilityAuction","label":"advertisementTitle","offset":0,"slot":"5","type":"t_string_storage"},{"astId":912,"contract":"contracts/NitrilityAuction.sol:NitrilityAuction","label":"productDescription","offset":0,"slot":"6","type":"t_string_storage"},{"astId":914,"contract":"contracts/NitrilityAuction.sol:NitrilityAuction","label":"contentDescription","offset":0,"slot":"7","type":"t_string_storage"},{"astId":916,"contract":"contracts/NitrilityAuction.sol:NitrilityAuction","label":"intendedPlatforms","offset":0,"slot":"8","type":"t_string_storage"},{"astId":918,"contract":"contracts/NitrilityAuction.sol:NitrilityAuction","label":"additionalInfo","offset":0,"slot":"9","type":"t_string_storage"}],"numberOfBytes":"320"},"t_struct(OfferData)973_storage":{"encoding":"inplace","label":"struct NitrilityAuction.OfferData","members":[{"astId":946,"contract":"contracts/NitrilityAuction.sol:NitrilityAuction","label":"offerId","offset":0,"slot":"0","type":"t_uint256"},{"astId":948,"contract":"contracts/NitrilityAuction.sol:NitrilityAuction","label":"trackId","offset":0,"slot":"1","type":"t_string_storage"},{"astId":950,"contract":"contracts/NitrilityAuction.sol:NitrilityAuction","label":"buyerAddr","offset":0,"slot":"2","type":"t_address"},{"astId":952,"contract":"contracts/NitrilityAuction.sol:NitrilityAuction","label":"offerPrice","offset":0,"slot":"3","type":"t_uint256"},{"astId":954,"contract":"contracts/NitrilityAuction.sol:NitrilityAuction","label":"offerDuration","offset":0,"slot":"4","type":"t_uint256"},{"astId":956,"contract":"contracts/NitrilityAuction.sol:NitrilityAuction","label":"tokenURI","offset":0,"slot":"5","type":"t_string_storage"},{"astId":959,"contract":"contracts/NitrilityAuction.sol:NitrilityAuction","label":"eventType","offset":0,"slot":"6","type":"t_enum(EventTypes)2187"},{"astId":962,"contract":"contracts/NitrilityAuction.sol:NitrilityAuction","label":"licensingType","offset":1,"slot":"6","type":"t_enum(LicensingType)2203"},{"astId":965,"contract":"contracts/NitrilityAuction.sol:NitrilityAuction","label":"exclusivity","offset":2,"slot":"6","type":"t_enum(Exclusivity)2192"},{"astId":967,"contract":"contracts/NitrilityAuction.sol:NitrilityAuction","label":"counts","offset":0,"slot":"7","type":"t_uint256"},{"astId":969,"contract":"contracts/NitrilityAuction.sol:NitrilityAuction","label":"purchaseTime","offset":0,"slot":"8","type":"t_uint256"},{"astId":972,"contract":"contracts/NitrilityAuction.sol:NitrilityAuction","label":"metadata","offset":0,"slot":"9","type":"t_struct(Metadata)919_storage"}],"numberOfBytes":"608"},"t_struct(Set)257_storage":{"encoding":"inplace","label":"struct EnumerableSet.Set","members":[{"astId":252,"contract":"contracts/NitrilityAuction.sol:NitrilityAuction","label":"_values","offset":0,"slot":"0","type":"t_array(t_bytes32)dyn_storage"},{"astId":256,"contract":"contracts/NitrilityAuction.sol:NitrilityAuction","label":"_positions","offset":0,"slot":"1","type":"t_mapping(t_bytes32,t_uint256)"}],"numberOfBytes":"64"},"t_struct(UintSet)729_storage":{"encoding":"inplace","label":"struct EnumerableSet.UintSet","members":[{"astId":728,"contract":"contracts/NitrilityAuction.sol:NitrilityAuction","label":"_inner","offset":0,"slot":"0","type":"t_struct(Set)257_storage"}],"numberOfBytes":"64"},"t_uint256":{"encoding":"inplace","label":"uint256","numberOfBytes":"32"}}}}}}