{
  "_format": "hh-sol-artifact-1",
  "contractName": "NitrilityLicense",
  "sourceName": "contracts/NitrilityLicense.sol",
  "abi": [
    {
      "inputs": [
        {
          "internalType": "address",
          "name": "nitrilityFactory",
          "type": "address"
        },
        {
          "internalType": "string",
          "name": "sellerId",
          "type": "string"
        }
      ],
      "stateMutability": "nonpayable",
      "type": "constructor"
    },
    {
      "inputs": [],
      "name": "ECDSAInvalidSignature",
      "type": "error"
    },
    {
      "inputs": [
        {
          "internalType": "uint256",
          "name": "length",
          "type": "uint256"
        }
      ],
      "name": "ECDSAInvalidSignatureLength",
      "type": "error"
    },
    {
      "inputs": [
        {
          "internalType": "bytes32",
          "name": "s",
          "type": "bytes32"
        }
      ],
      "name": "ECDSAInvalidSignatureS",
      "type": "error"
    },
    {
      "inputs": [
        {
          "internalType": "address",
          "name": "sender",
          "type": "address"
        },
        {
          "internalType": "uint256",
          "name": "tokenId",
          "type": "uint256"
        },
        {
          "internalType": "address",
          "name": "owner",
          "type": "address"
        }
      ],
      "name": "ERC721IncorrectOwner",
      "type": "error"
    },
    {
      "inputs": [
        {
          "internalType": "address",
          "name": "operator",
          "type": "address"
        },
        {
          "internalType": "uint256",
          "name": "tokenId",
          "type": "uint256"
        }
      ],
      "name": "ERC721InsufficientApproval",
      "type": "error"
    },
    {
      "inputs": [
        {
          "internalType": "address",
          "name": "approver",
          "type": "address"
        }
      ],
      "name": "ERC721InvalidApprover",
      "type": "error"
    },
    {
      "inputs": [
        {
          "internalType": "address",
          "name": "operator",
          "type": "address"
        }
      ],
      "name": "ERC721InvalidOperator",
      "type": "error"
    },
    {
      "inputs": [
        {
          "internalType": "address",
          "name": "owner",
          "type": "address"
        }
      ],
      "name": "ERC721InvalidOwner",
      "type": "error"
    },
    {
      "inputs": [
        {
          "internalType": "address",
          "name": "receiver",
          "type": "address"
        }
      ],
      "name": "ERC721InvalidReceiver",
      "type": "error"
    },
    {
      "inputs": [
        {
          "internalType": "address",
          "name": "sender",
          "type": "address"
        }
      ],
      "name": "ERC721InvalidSender",
      "type": "error"
    },
    {
      "inputs": [
        {
          "internalType": "uint256",
          "name": "tokenId",
          "type": "uint256"
        }
      ],
      "name": "ERC721NonexistentToken",
      "type": "error"
    },
    {
      "inputs": [],
      "name": "InvalidShortString",
      "type": "error"
    },
    {
      "inputs": [
        {
          "internalType": "string",
          "name": "str",
          "type": "string"
        }
      ],
      "name": "StringTooLong",
      "type": "error"
    },
    {
      "anonymous": false,
      "inputs": [
        {
          "indexed": true,
          "internalType": "address",
          "name": "owner",
          "type": "address"
        },
        {
          "indexed": true,
          "internalType": "address",
          "name": "approved",
          "type": "address"
        },
        {
          "indexed": true,
          "internalType": "uint256",
          "name": "tokenId",
          "type": "uint256"
        }
      ],
      "name": "Approval",
      "type": "event"
    },
    {
      "anonymous": false,
      "inputs": [
        {
          "indexed": true,
          "internalType": "address",
          "name": "owner",
          "type": "address"
        },
        {
          "indexed": true,
          "internalType": "address",
          "name": "operator",
          "type": "address"
        },
        {
          "indexed": false,
          "internalType": "bool",
          "name": "approved",
          "type": "bool"
        }
      ],
      "name": "ApprovalForAll",
      "type": "event"
    },
    {
      "anonymous": false,
      "inputs": [
        {
          "indexed": false,
          "internalType": "uint256",
          "name": "_fromTokenId",
          "type": "uint256"
        },
        {
          "indexed": false,
          "internalType": "uint256",
          "name": "_toTokenId",
          "type": "uint256"
        }
      ],
      "name": "BatchMetadataUpdate",
      "type": "event"
    },
    {
      "anonymous": false,
      "inputs": [],
      "name": "EIP712DomainChanged",
      "type": "event"
    },
    {
      "anonymous": false,
      "inputs": [
        {
          "indexed": false,
          "internalType": "uint256",
          "name": "_tokenId",
          "type": "uint256"
        }
      ],
      "name": "MetadataUpdate",
      "type": "event"
    },
    {
      "anonymous": false,
      "inputs": [
        {
          "indexed": true,
          "internalType": "address",
          "name": "from",
          "type": "address"
        },
        {
          "indexed": true,
          "internalType": "address",
          "name": "to",
          "type": "address"
        },
        {
          "indexed": true,
          "internalType": "uint256",
          "name": "tokenId",
          "type": "uint256"
        }
      ],
      "name": "Transfer",
      "type": "event"
    },
    {
      "inputs": [],
      "name": "_nitrilityFactory",
      "outputs": [
        {
          "internalType": "address",
          "name": "",
          "type": "address"
        }
      ],
      "stateMutability": "view",
      "type": "function"
    },
    {
      "inputs": [],
      "name": "_sellerId",
      "outputs": [
        {
          "internalType": "string",
          "name": "",
          "type": "string"
        }
      ],
      "stateMutability": "view",
      "type": "function"
    },
    {
      "inputs": [
        {
          "components": [
            {
              "internalType": "uint256",
              "name": "fPrice",
              "type": "uint256"
            },
            {
              "internalType": "uint256",
              "name": "sPrice",
              "type": "uint256"
            },
            {
              "internalType": "uint256",
              "name": "tPrice",
              "type": "uint256"
            },
            {
              "internalType": "enum NitrilityCommon.ListingType",
              "name": "listingFormatValue",
              "type": "uint8"
            },
            {
              "internalType": "uint256",
              "name": "totalSupply",
              "type": "uint256"
            },
            {
              "internalType": "bool",
              "name": "infiniteSupply",
              "type": "bool"
            },
            {
              "internalType": "bool",
              "name": "infiniteListingDuration",
              "type": "bool"
            },
            {
              "internalType": "bool",
              "name": "infiniteExclusiveDuration",
              "type": "bool"
            },
            {
              "internalType": "enum NitrilityCommon.Exclusivity",
              "name": "exclusivity",
              "type": "uint8"
            },
            {
              "internalType": "uint256",
              "name": "listingStartTime",
              "type": "uint256"
            },
            {
              "internalType": "uint256",
              "name": "listingEndTime",
              "type": "uint256"
            },
            {
              "internalType": "uint256",
              "name": "exclusiveEndTime",
              "type": "uint256"
            },
            {
              "components": [
                {
                  "internalType": "string",
                  "name": "name",
                  "type": "string"
                },
                {
                  "internalType": "string",
                  "name": "code",
                  "type": "string"
                },
                {
                  "internalType": "enum NitrilityCommon.DiscountType",
                  "name": "discountType",
                  "type": "uint8"
                },
                {
                  "internalType": "uint256",
                  "name": "percentage",
                  "type": "uint256"
                },
                {
                  "internalType": "uint256",
                  "name": "fixedAmount",
                  "type": "uint256"
                },
                {
                  "internalType": "bool",
                  "name": "infinite",
                  "type": "bool"
                },
                {
                  "internalType": "uint256",
                  "name": "endTime",
                  "type": "uint256"
                },
                {
                  "internalType": "bool",
                  "name": "actived",
                  "type": "bool"
                }
              ],
              "internalType": "struct NitrilityCommon.DiscountCode",
              "name": "discountCode",
              "type": "tuple"
            },
            {
              "internalType": "enum NitrilityCommon.ListingStatus",
              "name": "listed",
              "type": "uint8"
            },
            {
              "internalType": "bytes",
              "name": "signature",
              "type": "bytes"
            }
          ],
          "internalType": "struct NitrilityCommon.TemplateType",
          "name": "template",
          "type": "tuple"
        }
      ],
      "name": "_verify",
      "outputs": [
        {
          "internalType": "address",
          "name": "",
          "type": "address"
        }
      ],
      "stateMutability": "view",
      "type": "function"
    },
    {
      "inputs": [
        {
          "internalType": "address",
          "name": "to",
          "type": "address"
        },
        {
          "internalType": "uint256",
          "name": "tokenId",
          "type": "uint256"
        }
      ],
      "name": "approve",
      "outputs": [],
      "stateMutability": "nonpayable",
      "type": "function"
    },
    {
      "inputs": [
        {
          "internalType": "address",
          "name": "owner",
          "type": "address"
        }
      ],
      "name": "balanceOf",
      "outputs": [
        {
          "internalType": "uint256",
          "name": "",
          "type": "uint256"
        }
      ],
      "stateMutability": "view",
      "type": "function"
    },
    {
      "inputs": [
        {
          "internalType": "uint256",
          "name": "tokenId",
          "type": "uint256"
        }
      ],
      "name": "burnSoldLicense",
      "outputs": [],
      "stateMutability": "nonpayable",
      "type": "function"
    },
    {
      "inputs": [],
      "name": "eip712Domain",
      "outputs": [
        {
          "internalType": "bytes1",
          "name": "fields",
          "type": "bytes1"
        },
        {
          "internalType": "string",
          "name": "name",
          "type": "string"
        },
        {
          "internalType": "string",
          "name": "version",
          "type": "string"
        },
        {
          "internalType": "uint256",
          "name": "chainId",
          "type": "uint256"
        },
        {
          "internalType": "address",
          "name": "verifyingContract",
          "type": "address"
        },
        {
          "internalType": "bytes32",
          "name": "salt",
          "type": "bytes32"
        },
        {
          "internalType": "uint256[]",
          "name": "extensions",
          "type": "uint256[]"
        }
      ],
      "stateMutability": "view",
      "type": "function"
    },
    {
      "inputs": [
        {
          "internalType": "uint256",
          "name": "tokenId",
          "type": "uint256"
        }
      ],
      "name": "getApproved",
      "outputs": [
        {
          "internalType": "address",
          "name": "",
          "type": "address"
        }
      ],
      "stateMutability": "view",
      "type": "function"
    },
    {
      "inputs": [
        {
          "internalType": "address",
          "name": "owner",
          "type": "address"
        },
        {
          "internalType": "address",
          "name": "operator",
          "type": "address"
        }
      ],
      "name": "isApprovedForAll",
      "outputs": [
        {
          "internalType": "bool",
          "name": "",
          "type": "bool"
        }
      ],
      "stateMutability": "view",
      "type": "function"
    },
    {
      "inputs": [
        {
          "internalType": "address",
          "name": "signer",
          "type": "address"
        }
      ],
      "name": "isValid",
      "outputs": [
        {
          "internalType": "bool",
          "name": "",
          "type": "bool"
        }
      ],
      "stateMutability": "view",
      "type": "function"
    },
    {
      "inputs": [],
      "name": "name",
      "outputs": [
        {
          "internalType": "string",
          "name": "",
          "type": "string"
        }
      ],
      "stateMutability": "view",
      "type": "function"
    },
    {
      "inputs": [
        {
          "internalType": "uint256",
          "name": "tokenId",
          "type": "uint256"
        }
      ],
      "name": "ownerOf",
      "outputs": [
        {
          "internalType": "address",
          "name": "",
          "type": "address"
        }
      ],
      "stateMutability": "view",
      "type": "function"
    },
    {
      "inputs": [
        {
          "internalType": "uint256",
          "name": "tokenId",
          "type": "uint256"
        },
        {
          "internalType": "address",
          "name": "buyerAddr",
          "type": "address"
        },
        {
          "internalType": "string",
          "name": "newTokenUri",
          "type": "string"
        },
        {
          "components": [
            {
              "internalType": "uint256",
              "name": "fPrice",
              "type": "uint256"
            },
            {
              "internalType": "uint256",
              "name": "sPrice",
              "type": "uint256"
            },
            {
              "internalType": "uint256",
              "name": "tPrice",
              "type": "uint256"
            },
            {
              "internalType": "enum NitrilityCommon.ListingType",
              "name": "listingFormatValue",
              "type": "uint8"
            },
            {
              "internalType": "uint256",
              "name": "totalSupply",
              "type": "uint256"
            },
            {
              "internalType": "bool",
              "name": "infiniteSupply",
              "type": "bool"
            },
            {
              "internalType": "bool",
              "name": "infiniteListingDuration",
              "type": "bool"
            },
            {
              "internalType": "bool",
              "name": "infiniteExclusiveDuration",
              "type": "bool"
            },
            {
              "internalType": "enum NitrilityCommon.Exclusivity",
              "name": "exclusivity",
              "type": "uint8"
            },
            {
              "internalType": "uint256",
              "name": "listingStartTime",
              "type": "uint256"
            },
            {
              "internalType": "uint256",
              "name": "listingEndTime",
              "type": "uint256"
            },
            {
              "internalType": "uint256",
              "name": "exclusiveEndTime",
              "type": "uint256"
            },
            {
              "components": [
                {
                  "internalType": "string",
                  "name": "name",
                  "type": "string"
                },
                {
                  "internalType": "string",
                  "name": "code",
                  "type": "string"
                },
                {
                  "internalType": "enum NitrilityCommon.DiscountType",
                  "name": "discountType",
                  "type": "uint8"
                },
                {
                  "internalType": "uint256",
                  "name": "percentage",
                  "type": "uint256"
                },
                {
                  "internalType": "uint256",
                  "name": "fixedAmount",
                  "type": "uint256"
                },
                {
                  "internalType": "bool",
                  "name": "infinite",
                  "type": "bool"
                },
                {
                  "internalType": "uint256",
                  "name": "endTime",
                  "type": "uint256"
                },
                {
                  "internalType": "bool",
                  "name": "actived",
                  "type": "bool"
                }
              ],
              "internalType": "struct NitrilityCommon.DiscountCode",
              "name": "discountCode",
              "type": "tuple"
            },
            {
              "internalType": "enum NitrilityCommon.ListingStatus",
              "name": "listed",
              "type": "uint8"
            },
            {
              "internalType": "bytes",
              "name": "signature",
              "type": "bytes"
            }
          ],
          "internalType": "struct NitrilityCommon.TemplateType",
          "name": "template",
          "type": "tuple"
        }
      ],
      "name": "purchaseLicense",
      "outputs": [],
      "stateMutability": "payable",
      "type": "function"
    },
    {
      "inputs": [
        {
          "internalType": "address",
          "name": "from",
          "type": "address"
        },
        {
          "internalType": "address",
          "name": "to",
          "type": "address"
        },
        {
          "internalType": "uint256",
          "name": "tokenId",
          "type": "uint256"
        }
      ],
      "name": "safeTransferFrom",
      "outputs": [],
      "stateMutability": "nonpayable",
      "type": "function"
    },
    {
      "inputs": [
        {
          "internalType": "address",
          "name": "from",
          "type": "address"
        },
        {
          "internalType": "address",
          "name": "to",
          "type": "address"
        },
        {
          "internalType": "uint256",
          "name": "tokenId",
          "type": "uint256"
        },
        {
          "internalType": "bytes",
          "name": "data",
          "type": "bytes"
        }
      ],
      "name": "safeTransferFrom",
      "outputs": [],
      "stateMutability": "nonpayable",
      "type": "function"
    },
    {
      "inputs": [
        {
          "internalType": "address",
          "name": "operator",
          "type": "address"
        },
        {
          "internalType": "bool",
          "name": "approved",
          "type": "bool"
        }
      ],
      "name": "setApprovalForAll",
      "outputs": [],
      "stateMutability": "nonpayable",
      "type": "function"
    },
    {
      "inputs": [
        {
          "internalType": "bytes4",
          "name": "interfaceId",
          "type": "bytes4"
        }
      ],
      "name": "supportsInterface",
      "outputs": [
        {
          "internalType": "bool",
          "name": "",
          "type": "bool"
        }
      ],
      "stateMutability": "view",
      "type": "function"
    },
    {
      "inputs": [],
      "name": "symbol",
      "outputs": [
        {
          "internalType": "string",
          "name": "",
          "type": "string"
        }
      ],
      "stateMutability": "view",
      "type": "function"
    },
    {
      "inputs": [
        {
          "internalType": "uint256",
          "name": "tokenId",
          "type": "uint256"
        }
      ],
      "name": "tokenURI",
      "outputs": [
        {
          "internalType": "string",
          "name": "",
          "type": "string"
        }
      ],
      "stateMutability": "view",
      "type": "function"
    },
    {
      "inputs": [
        {
          "internalType": "address",
          "name": "from",
          "type": "address"
        },
        {
          "internalType": "address",
          "name": "to",
          "type": "address"
        },
        {
          "internalType": "uint256",
          "name": "tokenId",
          "type": "uint256"
        }
      ],
      "name": "transferFrom",
      "outputs": [],
      "stateMutability": "nonpayable",
      "type": "function"
    },
    {
      "inputs": [
        {
          "internalType": "address",
          "name": "receiver",
          "type": "address"
        },
        {
          "internalType": "uint256",
          "name": "tokenId",
          "type": "uint256"
        },
        {
          "internalType": "address",
          "name": "sender",
          "type": "address"
        }
      ],
      "name": "transferLicense",
      "outputs": [],
      "stateMutability": "payable",
      "type": "function"
    }
  ],
  "bytecode": "0x6101606040523480156200001257600080fd5b50604051620029673803806200296783398101604081905262000035916200029d565b6040518060400160405280601d81526020017f6e697472696c6974792d6c6963656e73652d6d61726b6574706c616365000000815250604051806040016040528060018152602001603160f81b815250604051806040016040528060118152602001704e697472696c697479204c6963656e736560781b815250604051806040016040528060088152602001674e4c6963656e736560c01b8152508160009081620000e1919062000409565b506001620000f0828262000409565b506200010291508390506007620001dc565b6101205262000113816008620001dc565b61014052815160208084019190912060e052815190820120610100524660a052620001a160e05161010051604080517f8b73c3c69bb8fe3d512ecc4cf759cc79239f7b179b0ffacaa9a75d522b39400f60208201529081019290925260608201524660808201523060a082015260009060c00160405160208183030381529060405280519060200120905090565b60805250503060c052600980546001600160a01b0319166001600160a01b038416179055600a620001d3828262000409565b5050506200052f565b6000602083511015620001fc57620001f48362000215565b90506200020f565b8162000209848262000409565b5060ff90505b92915050565b600080829050601f815111156200024c578260405163305a27a960e01b8152600401620002439190620004d5565b60405180910390fd5b805162000259826200050a565b179392505050565b634e487b7160e01b600052604160045260246000fd5b60005b83811015620002945781810151838201526020016200027a565b50506000910152565b60008060408385031215620002b157600080fd5b82516001600160a01b0381168114620002c957600080fd5b60208401519092506001600160401b0380821115620002e757600080fd5b818501915085601f830112620002fc57600080fd5b81518181111562000311576200031162000261565b604051601f8201601f19908116603f011681019083821181831017156200033c576200033c62000261565b816040528281528860208487010111156200035657600080fd5b6200036983602083016020880162000277565b80955050505050509250929050565b600181811c908216806200038d57607f821691505b602082108103620003ae57634e487b7160e01b600052602260045260246000fd5b50919050565b601f82111562000404576000816000526020600020601f850160051c81016020861015620003df5750805b601f850160051c820191505b818110156200040057828155600101620003eb565b5050505b505050565b81516001600160401b0381111562000425576200042562000261565b6200043d8162000436845462000378565b84620003b4565b602080601f8311600181146200047557600084156200045c5750858301515b600019600386901b1c1916600185901b17855562000400565b600085815260208120601f198616915b82811015620004a65788860151825594840194600190910190840162000485565b5085821015620004c55787850151600019600388901b60f8161c191681555b5050505050600190811b01905550565b6020815260008251806020840152620004f681604085016020870162000277565b601f01601f19169190910160400192915050565b80516020808301519190811015620003ae5760001960209190910360031b1b16919050565b60805160a05160c05160e0516101005161012051610140516123dd6200058a6000396000610c2801526000610bf60152600061163f01526000611617015260006115720152600061159c015260006115c601526123dd6000f3fe60806040526004361061012a5760003560e01c806371b7ba06116100ab578063a22cb4651161006f578063a22cb4651461033e578063acfed6851461035e578063b88d4fde14610373578063c87b56dd14610393578063e2dbb0de146103b3578063e985e9c5146103c657600080fd5b806371b7ba06146102ae57806384b0196e146102c15780638b1b925f146102e9578063913432481461030957806395d89b411461032957600080fd5b806323b872dd116100f257806323b872dd146102005780632e513b661461022057806342842e0e146102405780636352211e1461026057806370a082311461028057600080fd5b806301ffc9a71461012f57806306534d2f1461016457806306fdde031461019c578063081812fc146101be578063095ea7b3146101de575b600080fd5b34801561013b57600080fd5b5061014f61014a366004611875565b6103e6565b60405190151581526020015b60405180910390f35b34801561017057600080fd5b50600954610184906001600160a01b031681565b6040516001600160a01b03909116815260200161015b565b3480156101a857600080fd5b506101b16103f7565b60405161015b91906118e2565b3480156101ca57600080fd5b506101846101d93660046118f5565b610489565b3480156101ea57600080fd5b506101fe6101f9366004611923565b6104b2565b005b34801561020c57600080fd5b506101fe61021b36600461194f565b6104c1565b34801561022c57600080fd5b506101fe61023b3660046118f5565b610551565b34801561024c57600080fd5b506101fe61025b36600461194f565b61055d565b34801561026c57600080fd5b5061018461027b3660046118f5565b61057d565b34801561028c57600080fd5b506102a061029b366004611990565b610588565b60405190815260200161015b565b6101fe6102bc366004611cec565b6105d0565b3480156102cd57600080fd5b506102d6610657565b60405161015b9796959493929190611d6c565b3480156102f557600080fd5b5061014f610304366004611990565b61069d565b34801561031557600080fd5b50610184610324366004611e05565b61076e565b34801561033557600080fd5b506101b1610792565b34801561034a57600080fd5b506101fe610359366004611e3a565b6107a1565b34801561036a57600080fd5b506101b16107ac565b34801561037f57600080fd5b506101fe61038e366004611e6f565b61083a565b34801561039f57600080fd5b506101b16103ae3660046118f5565b610851565b6101fe6103c1366004611ecf565b610962565b3480156103d257600080fd5b5061014f6103e1366004611f11565b61096d565b60006103f18261099b565b92915050565b60606000805461040690611f4a565b80601f016020809104026020016040519081016040528092919081815260200182805461043290611f4a565b801561047f5780601f106104545761010080835404028352916020019161047f565b820191906000526020600020905b81548152906001019060200180831161046257829003601f168201915b5050505050905090565b6000610494826109c0565b506000828152600460205260409020546001600160a01b03166103f1565b6104bd8282336109f9565b5050565b6001600160a01b0382166104f057604051633250574960e11b8152600060048201526024015b60405180910390fd5b60006104fd838333610a06565b9050836001600160a01b0316816001600160a01b03161461054b576040516364283d7b60e01b81526001600160a01b03808616600483015260248201849052821660448201526064016104e7565b50505050565b61055a81610aff565b50565b6105788383836040518060200160405280600081525061083a565b505050565b60006103f1826109c0565b60006001600160a01b0382166105b4576040516322718ad960e21b8152600060048201526024016104e7565b506001600160a01b031660009081526003602052604090205490565b60006105db8261076e565b90506105e68161069d565b61063c5760405162461bcd60e51b815260206004820152602160248201527f5369676e617475726520696e76616c6964206f7220756e617574686f72697a656044820152601960fa1b60648201526084016104e7565b6106468486610b3a565b6106508584610b9f565b5050505050565b60006060806000806000606061066b610bef565b610673610c21565b60408051600080825260208201909252600f60f81b9b939a50919850469750309650945092509050565b60095460405163739a004160e11b8152600091829182916001600160a01b03169063e7340082906106d390600a90600401611f84565b600060405180830381865afa1580156106f0573d6000803e3d6000fd5b505050506040513d6000823e601f3d908101601f191682016040526107189190810190612014565b905060005b815181101561076557846001600160a01b0316828281518110610742576107426120c6565b60200260200101516001600160a01b03160361075d57600192505b60010161071d565b50909392505050565b60008061077a83610c4e565b905061078b81846101c00151610cfb565b9392505050565b60606001805461040690611f4a565b6104bd338383610d25565b600a80546107b990611f4a565b80601f01602080910402602001604051908101604052809291908181526020018280546107e590611f4a565b80156108325780601f1061080757610100808354040283529160200191610832565b820191906000526020600020905b81548152906001019060200180831161081557829003601f168201915b505050505081565b6108458484846104c1565b61054b84848484610dc4565b606061085c826109c0565b506000828152600660205260408120805461087690611f4a565b80601f01602080910402602001604051908101604052809291908181526020018280546108a290611f4a565b80156108ef5780601f106108c4576101008083540402835291602001916108ef565b820191906000526020600020905b8154815290600101906020018083116108d257829003601f168201915b50505050509050600061090d60408051602081019091526000815290565b9050805160000361091f575092915050565b8151156109515780826040516020016109399291906120dc565b60405160208183030381529060405292505050919050565b61095a84610ee6565b949350505050565b610578818484610f5a565b6001600160a01b03918216600090815260056020908152604080832093909416825291909152205460ff1690565b60006001600160e01b03198216632483248360e11b14806103f157506103f18261100a565b6000818152600260205260408120546001600160a01b0316806103f157604051637e27328960e01b8152600481018490526024016104e7565b610578838383600161105a565b6000828152600260205260408120546001600160a01b0390811690831615610a3357610a33818486611160565b6001600160a01b03811615610a7157610a5060008560008061105a565b6001600160a01b038116600090815260036020526040902080546000190190555b6001600160a01b03851615610aa0576001600160a01b0385166000908152600360205260409020805460010190555b60008481526002602052604080822080546001600160a01b0319166001600160a01b0389811691821790925591518793918516917fddf252ad1be2c89b69c2b068fc378daa952ba7f163c4a11628f55a4df523b3ef91a4949350505050565b6000610b0e6000836000610a06565b90506001600160a01b0381166104bd57604051637e27328960e01b8152600481018390526024016104e7565b6001600160a01b038216610b6457604051633250574960e11b8152600060048201526024016104e7565b6000610b7283836000610a06565b90506001600160a01b03811615610578576040516339e3563760e11b8152600060048201526024016104e7565b6000828152600660205260409020610bb7828261215b565b506040518281527ff8e1a15aba9398e019f0b49df1a4fde98ee17ae345cb5f6b5e2c27f5033e8ce79060200160405180910390a15050565b6060610c1c7f000000000000000000000000000000000000000000000000000000000000000060076111c4565b905090565b6060610c1c7f000000000000000000000000000000000000000000000000000000000000000060086111c4565b60006103f17fa6cd4b7b1c3deafeffc47687b583e76a027529d7c804924a23c3b3e853c6de5183600001518460200151856040015186606001518760a001518860c001518960e001518a61010001518b61012001518c61014001518d6101600151610cbd8f610180015161126f565b8f6101a00151604051602001610ce09e9d9c9b9a99989796959493929190612255565b604051602081830303815290604052805190602001206112fd565b600080600080610d0b868661132a565b925092509250610d1b8282611377565b5090949350505050565b6001600160a01b038216610d5757604051630b61174360e31b81526001600160a01b03831660048201526024016104e7565b6001600160a01b03838116600081815260056020908152604080832094871680845294825291829020805460ff191686151590811790915591519182527f17307eab39ab6107e8899845ad3d59bd9653f200f220920489ca2b5937696c31910160405180910390a3505050565b6001600160a01b0383163b1561054b57604051630a85bd0160e11b81526001600160a01b0384169063150b7a0290610e069033908890879087906004016122f2565b6020604051808303816000875af1925050508015610e41575060408051601f3d908101601f19168201909252610e3e9181019061232f565b60015b610eaa573d808015610e6f576040519150601f19603f3d011682016040523d82523d6000602084013e610e74565b606091505b508051600003610ea257604051633250574960e11b81526001600160a01b03851660048201526024016104e7565b805181602001fd5b6001600160e01b03198116630a85bd0160e11b1461065057604051633250574960e11b81526001600160a01b03851660048201526024016104e7565b6060610ef1826109c0565b506000610f0960408051602081019091526000815290565b90506000815111610f29576040518060200160405280600081525061078b565b80610f3384611430565b604051602001610f449291906120dc565b6040516020818303038152906040529392505050565b6001600160a01b038216610f8457604051633250574960e11b8152600060048201526024016104e7565b6000610f9283836000610a06565b90506001600160a01b038116610fbe57604051637e27328960e01b8152600481018390526024016104e7565b836001600160a01b0316816001600160a01b03161461054b576040516364283d7b60e01b81526001600160a01b03808616600483015260248201849052821660448201526064016104e7565b60006001600160e01b031982166380ac58cd60e01b148061103b57506001600160e01b03198216635b5e139f60e01b145b806103f157506301ffc9a760e01b6001600160e01b03198316146103f1565b808061106e57506001600160a01b03821615155b1561113057600061107e846109c0565b90506001600160a01b038316158015906110aa5750826001600160a01b0316816001600160a01b031614155b80156110bd57506110bb818461096d565b155b156110e65760405163a9fbf51f60e01b81526001600160a01b03841660048201526024016104e7565b811561112e5783856001600160a01b0316826001600160a01b03167f8c5be1e5ebec7d5bd14f71427d1e84f3dd0314c0f7b2291e5b200ac8c7c3b92560405160405180910390a45b505b5050600090815260046020526040902080546001600160a01b0319166001600160a01b0392909216919091179055565b61116b8383836114c3565b610578576001600160a01b03831661119957604051637e27328960e01b8152600481018290526024016104e7565b60405163177e802f60e01b81526001600160a01b0383166004820152602481018290526044016104e7565b606060ff83146111de576111d783611526565b90506103f1565b8180546111ea90611f4a565b80601f016020809104026020016040519081016040528092919081815260200182805461121690611f4a565b80156112635780601f1061123857610100808354040283529160200191611263565b820191906000526020600020905b81548152906001019060200180831161124657829003601f168201915b505050505090506103f1565b60007f28ee22a32a7a31d3883fc25e580e09efeab434eae4ca2494664f2fcc274d8c978260000151805190602001208360200151805190602001208460400151856060015186608001518760a001518860c001518960e001516040516020016112e09998979695949392919061234c565b604051602081830303815290604052805190602001209050919050565b60006103f161130a611565565b8360405161190160f01b8152600281019290925260228201526042902090565b600080600083516041036113645760208401516040850151606086015160001a61135688828585611690565b955095509550505050611370565b50508151600091506002905b9250925092565b600082600381111561138b5761138b61221b565b03611394575050565b60018260038111156113a8576113a861221b565b036113c65760405163f645eedf60e01b815260040160405180910390fd5b60028260038111156113da576113da61221b565b036113fb5760405163fce698f760e01b8152600481018290526024016104e7565b600382600381111561140f5761140f61221b565b036104bd576040516335e2f38360e21b8152600481018290526024016104e7565b6060600061143d8361175f565b600101905060008167ffffffffffffffff81111561145d5761145d6119ad565b6040519080825280601f01601f191660200182016040528015611487576020820181803683370190505b5090508181016020015b600019016f181899199a1a9b1b9c1cb0b131b232b360811b600a86061a8153600a850494508461149157509392505050565b60006001600160a01b0383161580159061095a5750826001600160a01b0316846001600160a01b031614806114fd57506114fd848461096d565b8061095a5750506000908152600460205260409020546001600160a01b03908116911614919050565b6060600061153383611837565b604080516020808252818301909252919250600091906020820181803683375050509182525060208101929092525090565b6000306001600160a01b037f0000000000000000000000000000000000000000000000000000000000000000161480156115be57507f000000000000000000000000000000000000000000000000000000000000000046145b156115e857507f000000000000000000000000000000000000000000000000000000000000000090565b610c1c604080517f8b73c3c69bb8fe3d512ecc4cf759cc79239f7b179b0ffacaa9a75d522b39400f60208201527f0000000000000000000000000000000000000000000000000000000000000000918101919091527f000000000000000000000000000000000000000000000000000000000000000060608201524660808201523060a082015260009060c00160405160208183030381529060405280519060200120905090565b600080807f7fffffffffffffffffffffffffffffff5d576e7357a4501ddfe92f46681b20a08411156116cb5750600091506003905082611755565b604080516000808252602082018084528a905260ff891692820192909252606081018790526080810186905260019060a0016020604051602081039080840390855afa15801561171f573d6000803e3d6000fd5b5050604051601f1901519150506001600160a01b03811661174b57506000925060019150829050611755565b9250600091508190505b9450945094915050565b60008072184f03e93ff9f4daa797ed6e38ed64bf6a1f0160401b831061179e5772184f03e93ff9f4daa797ed6e38ed64bf6a1f0160401b830492506040015b6d04ee2d6d415b85acef810000000083106117ca576d04ee2d6d415b85acef8100000000830492506020015b662386f26fc1000083106117e857662386f26fc10000830492506010015b6305f5e1008310611800576305f5e100830492506008015b612710831061181457612710830492506004015b60648310611826576064830492506002015b600a83106103f15760010192915050565b600060ff8216601f8111156103f157604051632cd44ac360e21b815260040160405180910390fd5b6001600160e01b03198116811461055a57600080fd5b60006020828403121561188757600080fd5b813561078b8161185f565b60005b838110156118ad578181015183820152602001611895565b50506000910152565b600081518084526118ce816020860160208601611892565b601f01601f19169290920160200192915050565b60208152600061078b60208301846118b6565b60006020828403121561190757600080fd5b5035919050565b6001600160a01b038116811461055a57600080fd5b6000806040838503121561193657600080fd5b82356119418161190e565b946020939093013593505050565b60008060006060848603121561196457600080fd5b833561196f8161190e565b9250602084013561197f8161190e565b929592945050506040919091013590565b6000602082840312156119a257600080fd5b813561078b8161190e565b634e487b7160e01b600052604160045260246000fd5b604051610100810167ffffffffffffffff811182821017156119e7576119e76119ad565b60405290565b6040516101e0810167ffffffffffffffff811182821017156119e7576119e76119ad565b604051601f8201601f1916810167ffffffffffffffff81118282101715611a3a57611a3a6119ad565b604052919050565b600082601f830112611a5357600080fd5b813567ffffffffffffffff811115611a6d57611a6d6119ad565b611a80601f8201601f1916602001611a11565b818152846020838601011115611a9557600080fd5b816020850160208301376000918101602001919091529392505050565b803560038110611ac157600080fd5b919050565b80358015158114611ac157600080fd5b803560048110611ac157600080fd5b803560028110611ac157600080fd5b60006101008284031215611b0757600080fd5b611b0f6119c3565b9050813567ffffffffffffffff80821115611b2957600080fd5b611b3585838601611a42565b83526020840135915080821115611b4b57600080fd5b50611b5884828501611a42565b602083015250611b6a60408301611ae5565b60408201526060820135606082015260808201356080820152611b8f60a08301611ac6565b60a082015260c082013560c0820152611baa60e08301611ac6565b60e082015292915050565b803560058110611ac157600080fd5b60006101e08284031215611bd757600080fd5b611bdf6119ed565b9050813581526020820135602082015260408201356040820152611c0560608301611ab2565b606082015260808201356080820152611c2060a08301611ac6565b60a0820152611c3160c08301611ac6565b60c0820152611c4260e08301611ac6565b60e0820152610100611c55818401611ad6565b908201526101208281013590820152610140808301359082015261016080830135908201526101808083013567ffffffffffffffff80821115611c9757600080fd5b611ca386838701611af4565b838501526101a09250611cb7838601611bb5565b838501526101c0925082850135915080821115611cd357600080fd5b50611ce085828601611a42565b82840152505092915050565b60008060008060808587031215611d0257600080fd5b843593506020850135611d148161190e565b9250604085013567ffffffffffffffff80821115611d3157600080fd5b611d3d88838901611a42565b93506060870135915080821115611d5357600080fd5b50611d6087828801611bc4565b91505092959194509250565b60ff60f81b881681526000602060e06020840152611d8d60e084018a6118b6565b8381036040850152611d9f818a6118b6565b606085018990526001600160a01b038816608086015260a0850187905284810360c08601528551808252602080880193509091019060005b81811015611df357835183529284019291840191600101611dd7565b50909c9b505050505050505050505050565b600060208284031215611e1757600080fd5b813567ffffffffffffffff811115611e2e57600080fd5b61095a84828501611bc4565b60008060408385031215611e4d57600080fd5b8235611e588161190e565b9150611e6660208401611ac6565b90509250929050565b60008060008060808587031215611e8557600080fd5b8435611e908161190e565b93506020850135611ea08161190e565b925060408501359150606085013567ffffffffffffffff811115611ec357600080fd5b611d6087828801611a42565b600080600060608486031215611ee457600080fd5b8335611eef8161190e565b9250602084013591506040840135611f068161190e565b809150509250925092565b60008060408385031215611f2457600080fd5b8235611f2f8161190e565b91506020830135611f3f8161190e565b809150509250929050565b600181811c90821680611f5e57607f821691505b602082108103611f7e57634e487b7160e01b600052602260045260246000fd5b50919050565b6000602080835260008454611f9881611f4a565b8060208701526040600180841660008114611fba5760018114611fd657612006565b60ff19851660408a0152604084151560051b8a01019550612006565b89600052602060002060005b85811015611ffd5781548b8201860152908301908801611fe2565b8a016040019650505b509398975050505050505050565b6000602080838503121561202757600080fd5b825167ffffffffffffffff8082111561203f57600080fd5b818501915085601f83011261205357600080fd5b815181811115612065576120656119ad565b8060051b9150612076848301611a11565b818152918301840191848101908884111561209057600080fd5b938501935b838510156120ba57845192506120aa8361190e565b8282529385019390850190612095565b98975050505050505050565b634e487b7160e01b600052603260045260246000fd5b600083516120ee818460208801611892565b835190830190612102818360208801611892565b01949350505050565b601f821115610578576000816000526020600020601f850160051c810160208610156121345750805b601f850160051c820191505b8181101561215357828155600101612140565b505050505050565b815167ffffffffffffffff811115612175576121756119ad565b612189816121838454611f4a565b8461210b565b602080601f8311600181146121be57600084156121a65750858301515b600019600386901b1c1916600185901b178555612153565b600085815260208120601f198616915b828110156121ed578886015182559484019460019091019084016121ce565b508582101561220b5787850151600019600388901b60f8161c191681555b5050505050600190811b01905550565b634e487b7160e01b600052602160045260246000fd5b600481106122415761224161221b565b9052565b600581106122415761224161221b565b60006101c0820190508f82528e60208301528d60408301528c606083015260038c106122835761228361221b565b8b608083015261229760a083018c15159052565b89151560c083015288151560e08301526122b5610100830189612231565b866101208301528561014083015284610160830152836101808301526122df6101a0830184612245565b9f9e505050505050505050505050505050565b6001600160a01b0385811682528416602082015260408101839052608060608201819052600090612325908301846118b6565b9695505050505050565b60006020828403121561234157600080fd5b815161078b8161185f565b89815260208101899052604081018890526101208101600288106123725761237261221b565b6060820197909752608081019590955260a085019390935290151560c084015260e0830152151561010090910152939250505056fea264697066735822122097e498645b3575243300598dbc272790b4e59133b3f2bde20db04efee453539364736f6c63430008170033",
  "linkReferences": {},
  "deployedLinkReferences": {}
}