{
  "_format": "hh-sol-artifact-1",
  "contractName": "NitrilityAuction",
  "sourceName": "contracts/NitrilityAuction.sol",
  "abi": [
    {
      "inputs": [],
      "stateMutability": "nonpayable",
      "type": "constructor"
    },
    {
      "inputs": [
        {
          "internalType": "address",
          "name": "owner",
          "type": "address"
        }
      ],
      "name": "OwnableInvalidOwner",
      "type": "error"
    },
    {
      "inputs": [
        {
          "internalType": "address",
          "name": "account",
          "type": "address"
        }
      ],
      "name": "OwnableUnauthorizedAccount",
      "type": "error"
    },
    {
      "inputs": [],
      "name": "ReentrancyGuardReentrantCall",
      "type": "error"
    },
    {
      "anonymous": false,
      "inputs": [
        {
          "indexed": false,
          "internalType": "uint256",
          "name": "offerId",
          "type": "uint256"
        },
        {
          "indexed": false,
          "internalType": "uint256",
          "name": "offerPrice",
          "type": "uint256"
        },
        {
          "indexed": false,
          "internalType": "uint256",
          "name": "offerDuration",
          "type": "uint256"
        },
        {
          "indexed": false,
          "internalType": "enum NitrilityCommon.EventTypes",
          "name": "eventType",
          "type": "uint8"
        },
        {
          "indexed": false,
          "internalType": "bool",
          "name": "isSeller",
          "type": "bool"
        }
      ],
      "name": "OfferEvent",
      "type": "event"
    },
    {
      "anonymous": false,
      "inputs": [
        {
          "indexed": true,
          "internalType": "address",
          "name": "previousOwner",
          "type": "address"
        },
        {
          "indexed": true,
          "internalType": "address",
          "name": "newOwner",
          "type": "address"
        }
      ],
      "name": "OwnershipTransferred",
      "type": "event"
    },
    {
      "inputs": [
        {
          "internalType": "uint256",
          "name": "offerId",
          "type": "uint256"
        },
        {
          "internalType": "string",
          "name": "sellerId",
          "type": "string"
        },
        {
          "components": [
            {
              "internalType": "uint256",
              "name": "fPrice",
              "type": "uint256"
            },
            {
              "internalType": "uint256",
              "name": "sPrice",
              "type": "uint256"
            },
            {
              "internalType": "uint256",
              "name": "tPrice",
              "type": "uint256"
            },
            {
              "internalType": "enum NitrilityCommon.ListingType",
              "name": "listingFormatValue",
              "type": "uint8"
            },
            {
              "internalType": "uint256",
              "name": "totalSupply",
              "type": "uint256"
            },
            {
              "internalType": "bool",
              "name": "infiniteSupply",
              "type": "bool"
            },
            {
              "internalType": "bool",
              "name": "infiniteListingDuration",
              "type": "bool"
            },
            {
              "internalType": "bool",
              "name": "infiniteExclusiveDuration",
              "type": "bool"
            },
            {
              "internalType": "enum NitrilityCommon.Exclusivity",
              "name": "exclusivity",
              "type": "uint8"
            },
            {
              "internalType": "uint256",
              "name": "listingStartTime",
              "type": "uint256"
            },
            {
              "internalType": "uint256",
              "name": "listingEndTime",
              "type": "uint256"
            },
            {
              "internalType": "uint256",
              "name": "exclusiveEndTime",
              "type": "uint256"
            },
            {
              "components": [
                {
                  "internalType": "string",
                  "name": "name",
                  "type": "string"
                },
                {
                  "internalType": "string",
                  "name": "code",
                  "type": "string"
                },
                {
                  "internalType": "enum NitrilityCommon.DiscountType",
                  "name": "discountType",
                  "type": "uint8"
                },
                {
                  "internalType": "uint256",
                  "name": "percentage",
                  "type": "uint256"
                },
                {
                  "internalType": "uint256",
                  "name": "fixedAmount",
                  "type": "uint256"
                },
                {
                  "internalType": "bool",
                  "name": "infinite",
                  "type": "bool"
                },
                {
                  "internalType": "uint256",
                  "name": "endTime",
                  "type": "uint256"
                },
                {
                  "internalType": "bool",
                  "name": "actived",
                  "type": "bool"
                }
              ],
              "internalType": "struct NitrilityCommon.DiscountCode",
              "name": "discountCode",
              "type": "tuple"
            },
            {
              "internalType": "enum NitrilityCommon.ListingStatus",
              "name": "listed",
              "type": "uint8"
            },
            {
              "internalType": "bytes",
              "name": "signature",
              "type": "bytes"
            }
          ],
          "internalType": "struct NitrilityCommon.TemplateType",
          "name": "templateData",
          "type": "tuple"
        },
        {
          "components": [
            {
              "internalType": "string",
              "name": "sellerId",
              "type": "string"
            },
            {
              "internalType": "string",
              "name": "sellerName",
              "type": "string"
            },
            {
              "internalType": "uint256",
              "name": "percentage",
              "type": "uint256"
            },
            {
              "internalType": "bool",
              "name": "isAdmin",
              "type": "bool"
            },
            {
              "internalType": "enum NitrilityCommon.ReviewStatus",
              "name": "status",
              "type": "uint8"
            }
          ],
          "internalType": "struct NitrilityCommon.ArtistRevenue[]",
          "name": "artistRevenues",
          "type": "tuple[]"
        }
      ],
      "name": "acceptOffer",
      "outputs": [],
      "stateMutability": "payable",
      "type": "function"
    },
    {
      "inputs": [
        {
          "components": [
            {
              "internalType": "string",
              "name": "discountCode",
              "type": "string"
            },
            {
              "internalType": "string",
              "name": "newTokenURI",
              "type": "string"
            },
            {
              "internalType": "string",
              "name": "trackId",
              "type": "string"
            },
            {
              "internalType": "uint256",
              "name": "offerPrice",
              "type": "uint256"
            },
            {
              "internalType": "uint256",
              "name": "offerDuration",
              "type": "uint256"
            },
            {
              "internalType": "uint256",
              "name": "counts",
              "type": "uint256"
            },
            {
              "internalType": "enum NitrilityCommon.LicensingType",
              "name": "licensingType",
              "type": "uint8"
            },
            {
              "internalType": "enum NitrilityCommon.Exclusivity",
              "name": "exclusivity",
              "type": "uint8"
            },
            {
              "components": [
                {
                  "internalType": "uint256",
                  "name": "fPrice",
                  "type": "uint256"
                },
                {
                  "internalType": "uint256",
                  "name": "sPrice",
                  "type": "uint256"
                },
                {
                  "internalType": "uint256",
                  "name": "tPrice",
                  "type": "uint256"
                },
                {
                  "internalType": "enum NitrilityCommon.ListingType",
                  "name": "listingFormatValue",
                  "type": "uint8"
                },
                {
                  "internalType": "uint256",
                  "name": "totalSupply",
                  "type": "uint256"
                },
                {
                  "internalType": "bool",
                  "name": "infiniteSupply",
                  "type": "bool"
                },
                {
                  "internalType": "bool",
                  "name": "infiniteListingDuration",
                  "type": "bool"
                },
                {
                  "internalType": "bool",
                  "name": "infiniteExclusiveDuration",
                  "type": "bool"
                },
                {
                  "internalType": "enum NitrilityCommon.Exclusivity",
                  "name": "exclusivity",
                  "type": "uint8"
                },
                {
                  "internalType": "uint256",
                  "name": "listingStartTime",
                  "type": "uint256"
                },
                {
                  "internalType": "uint256",
                  "name": "listingEndTime",
                  "type": "uint256"
                },
                {
                  "internalType": "uint256",
                  "name": "exclusiveEndTime",
                  "type": "uint256"
                },
                {
                  "components": [
                    {
                      "internalType": "string",
                      "name": "name",
                      "type": "string"
                    },
                    {
                      "internalType": "string",
                      "name": "code",
                      "type": "string"
                    },
                    {
                      "internalType": "enum NitrilityCommon.DiscountType",
                      "name": "discountType",
                      "type": "uint8"
                    },
                    {
                      "internalType": "uint256",
                      "name": "percentage",
                      "type": "uint256"
                    },
                    {
                      "internalType": "uint256",
                      "name": "fixedAmount",
                      "type": "uint256"
                    },
                    {
                      "internalType": "bool",
                      "name": "infinite",
                      "type": "bool"
                    },
                    {
                      "internalType": "uint256",
                      "name": "endTime",
                      "type": "uint256"
                    },
                    {
                      "internalType": "bool",
                      "name": "actived",
                      "type": "bool"
                    }
                  ],
                  "internalType": "struct NitrilityCommon.DiscountCode",
                  "name": "discountCode",
                  "type": "tuple"
                },
                {
                  "internalType": "enum NitrilityCommon.ListingStatus",
                  "name": "listed",
                  "type": "uint8"
                },
                {
                  "internalType": "bytes",
                  "name": "signature",
                  "type": "bytes"
                }
              ],
              "internalType": "struct NitrilityCommon.TemplateType",
              "name": "templateData",
              "type": "tuple"
            },
            {
              "components": [
                {
                  "internalType": "enum NitrilityAuction.PurchaseType",
                  "name": "purchaseType",
                  "type": "uint8"
                },
                {
                  "internalType": "uint256",
                  "name": "exclusiveTime",
                  "type": "uint256"
                },
                {
                  "internalType": "string",
                  "name": "governingLaw",
                  "type": "string"
                },
                {
                  "internalType": "string",
                  "name": "sellerId",
                  "type": "string"
                },
                {
                  "internalType": "string",
                  "name": "usageNotes",
                  "type": "string"
                },
                {
                  "internalType": "string",
                  "name": "advertisementTitle",
                  "type": "string"
                },
                {
                  "internalType": "string",
                  "name": "productDescription",
                  "type": "string"
                },
                {
                  "internalType": "string",
                  "name": "contentDescription",
                  "type": "string"
                },
                {
                  "internalType": "string",
                  "name": "intendedPlatforms",
                  "type": "string"
                },
                {
                  "internalType": "string",
                  "name": "additionalInfo",
                  "type": "string"
                }
              ],
              "internalType": "struct NitrilityAuction.Metadata",
              "name": "metadata",
              "type": "tuple"
            }
          ],
          "internalType": "struct NitrilityAuction.LicensesData[]",
          "name": "licenseDatas",
          "type": "tuple[]"
        }
      ],
      "name": "calculateTotalPrice",
      "outputs": [
        {
          "internalType": "uint256",
          "name": "",
          "type": "uint256"
        }
      ],
      "stateMutability": "pure",
      "type": "function"
    },
    {
      "inputs": [
        {
          "internalType": "string",
          "name": "trackId",
          "type": "string"
        },
        {
          "internalType": "uint256",
          "name": "offerDuration",
          "type": "uint256"
        },
        {
          "internalType": "string",
          "name": "tokenURI",
          "type": "string"
        },
        {
          "internalType": "enum NitrilityCommon.LicensingType",
          "name": "licensingType",
          "type": "uint8"
        },
        {
          "internalType": "enum NitrilityCommon.Exclusivity",
          "name": "exclusivity",
          "type": "uint8"
        },
        {
          "internalType": "address",
          "name": "buyerAddr",
          "type": "address"
        },
        {
          "internalType": "uint256",
          "name": "offerPrice",
          "type": "uint256"
        },
        {
          "internalType": "uint256",
          "name": "counts",
          "type": "uint256"
        },
        {
          "components": [
            {
              "internalType": "enum NitrilityAuction.PurchaseType",
              "name": "purchaseType",
              "type": "uint8"
            },
            {
              "internalType": "uint256",
              "name": "exclusiveTime",
              "type": "uint256"
            },
            {
              "internalType": "string",
              "name": "governingLaw",
              "type": "string"
            },
            {
              "internalType": "string",
              "name": "sellerId",
              "type": "string"
            },
            {
              "internalType": "string",
              "name": "usageNotes",
              "type": "string"
            },
            {
              "internalType": "string",
              "name": "advertisementTitle",
              "type": "string"
            },
            {
              "internalType": "string",
              "name": "productDescription",
              "type": "string"
            },
            {
              "internalType": "string",
              "name": "contentDescription",
              "type": "string"
            },
            {
              "internalType": "string",
              "name": "intendedPlatforms",
              "type": "string"
            },
            {
              "internalType": "string",
              "name": "additionalInfo",
              "type": "string"
            }
          ],
          "internalType": "struct NitrilityAuction.Metadata",
          "name": "metadata",
          "type": "tuple"
        }
      ],
      "name": "createOfferData",
      "outputs": [],
      "stateMutability": "nonpayable",
      "type": "function"
    },
    {
      "inputs": [
        {
          "internalType": "uint256",
          "name": "offerId",
          "type": "uint256"
        },
        {
          "internalType": "uint256",
          "name": "offerPrice",
          "type": "uint256"
        },
        {
          "internalType": "uint256",
          "name": "offerDuration",
          "type": "uint256"
        },
        {
          "internalType": "enum NitrilityCommon.EventTypes",
          "name": "eventType",
          "type": "uint8"
        }
      ],
      "name": "editOffer",
      "outputs": [],
      "stateMutability": "payable",
      "type": "function"
    },
    {
      "inputs": [
        {
          "internalType": "uint256",
          "name": "offerId",
          "type": "uint256"
        }
      ],
      "name": "fetchCurrentOfferPrice",
      "outputs": [
        {
          "internalType": "uint256",
          "name": "",
          "type": "uint256"
        }
      ],
      "stateMutability": "view",
      "type": "function"
    },
    {
      "inputs": [],
      "name": "marketOwner",
      "outputs": [
        {
          "internalType": "address",
          "name": "",
          "type": "address"
        }
      ],
      "stateMutability": "view",
      "type": "function"
    },
    {
      "inputs": [],
      "name": "nitrilityFactory",
      "outputs": [
        {
          "internalType": "address",
          "name": "",
          "type": "address"
        }
      ],
      "stateMutability": "view",
      "type": "function"
    },
    {
      "inputs": [],
      "name": "owner",
      "outputs": [
        {
          "internalType": "address",
          "name": "",
          "type": "address"
        }
      ],
      "stateMutability": "view",
      "type": "function"
    },
    {
      "inputs": [
        {
          "internalType": "string",
          "name": "trackId",
          "type": "string"
        },
        {
          "internalType": "uint256",
          "name": "offerDuration",
          "type": "uint256"
        },
        {
          "internalType": "string",
          "name": "tokenURI",
          "type": "string"
        },
        {
          "internalType": "enum NitrilityCommon.LicensingType",
          "name": "licensingType",
          "type": "uint8"
        },
        {
          "internalType": "enum NitrilityCommon.Exclusivity",
          "name": "exclusivity",
          "type": "uint8"
        },
        {
          "components": [
            {
              "internalType": "enum NitrilityAuction.PurchaseType",
              "name": "purchaseType",
              "type": "uint8"
            },
            {
              "internalType": "uint256",
              "name": "exclusiveTime",
              "type": "uint256"
            },
            {
              "internalType": "string",
              "name": "governingLaw",
              "type": "string"
            },
            {
              "internalType": "string",
              "name": "sellerId",
              "type": "string"
            },
            {
              "internalType": "string",
              "name": "usageNotes",
              "type": "string"
            },
            {
              "internalType": "string",
              "name": "advertisementTitle",
              "type": "string"
            },
            {
              "internalType": "string",
              "name": "productDescription",
              "type": "string"
            },
            {
              "internalType": "string",
              "name": "contentDescription",
              "type": "string"
            },
            {
              "internalType": "string",
              "name": "intendedPlatforms",
              "type": "string"
            },
            {
              "internalType": "string",
              "name": "additionalInfo",
              "type": "string"
            }
          ],
          "internalType": "struct NitrilityAuction.Metadata",
          "name": "metadata",
          "type": "tuple"
        }
      ],
      "name": "placeOffer",
      "outputs": [],
      "stateMutability": "payable",
      "type": "function"
    },
    {
      "inputs": [
        {
          "components": [
            {
              "internalType": "string",
              "name": "discountCode",
              "type": "string"
            },
            {
              "internalType": "string",
              "name": "newTokenURI",
              "type": "string"
            },
            {
              "internalType": "string",
              "name": "trackId",
              "type": "string"
            },
            {
              "internalType": "uint256",
              "name": "offerPrice",
              "type": "uint256"
            },
            {
              "internalType": "uint256",
              "name": "offerDuration",
              "type": "uint256"
            },
            {
              "internalType": "uint256",
              "name": "counts",
              "type": "uint256"
            },
            {
              "internalType": "enum NitrilityCommon.LicensingType",
              "name": "licensingType",
              "type": "uint8"
            },
            {
              "internalType": "enum NitrilityCommon.Exclusivity",
              "name": "exclusivity",
              "type": "uint8"
            },
            {
              "components": [
                {
                  "internalType": "uint256",
                  "name": "fPrice",
                  "type": "uint256"
                },
                {
                  "internalType": "uint256",
                  "name": "sPrice",
                  "type": "uint256"
                },
                {
                  "internalType": "uint256",
                  "name": "tPrice",
                  "type": "uint256"
                },
                {
                  "internalType": "enum NitrilityCommon.ListingType",
                  "name": "listingFormatValue",
                  "type": "uint8"
                },
                {
                  "internalType": "uint256",
                  "name": "totalSupply",
                  "type": "uint256"
                },
                {
                  "internalType": "bool",
                  "name": "infiniteSupply",
                  "type": "bool"
                },
                {
                  "internalType": "bool",
                  "name": "infiniteListingDuration",
                  "type": "bool"
                },
                {
                  "internalType": "bool",
                  "name": "infiniteExclusiveDuration",
                  "type": "bool"
                },
                {
                  "internalType": "enum NitrilityCommon.Exclusivity",
                  "name": "exclusivity",
                  "type": "uint8"
                },
                {
                  "internalType": "uint256",
                  "name": "listingStartTime",
                  "type": "uint256"
                },
                {
                  "internalType": "uint256",
                  "name": "listingEndTime",
                  "type": "uint256"
                },
                {
                  "internalType": "uint256",
                  "name": "exclusiveEndTime",
                  "type": "uint256"
                },
                {
                  "components": [
                    {
                      "internalType": "string",
                      "name": "name",
                      "type": "string"
                    },
                    {
                      "internalType": "string",
                      "name": "code",
                      "type": "string"
                    },
                    {
                      "internalType": "enum NitrilityCommon.DiscountType",
                      "name": "discountType",
                      "type": "uint8"
                    },
                    {
                      "internalType": "uint256",
                      "name": "percentage",
                      "type": "uint256"
                    },
                    {
                      "internalType": "uint256",
                      "name": "fixedAmount",
                      "type": "uint256"
                    },
                    {
                      "internalType": "bool",
                      "name": "infinite",
                      "type": "bool"
                    },
                    {
                      "internalType": "uint256",
                      "name": "endTime",
                      "type": "uint256"
                    },
                    {
                      "internalType": "bool",
                      "name": "actived",
                      "type": "bool"
                    }
                  ],
                  "internalType": "struct NitrilityCommon.DiscountCode",
                  "name": "discountCode",
                  "type": "tuple"
                },
                {
                  "internalType": "enum NitrilityCommon.ListingStatus",
                  "name": "listed",
                  "type": "uint8"
                },
                {
                  "internalType": "bytes",
                  "name": "signature",
                  "type": "bytes"
                }
              ],
              "internalType": "struct NitrilityCommon.TemplateType",
              "name": "templateData",
              "type": "tuple"
            },
            {
              "components": [
                {
                  "internalType": "enum NitrilityAuction.PurchaseType",
                  "name": "purchaseType",
                  "type": "uint8"
                },
                {
                  "internalType": "uint256",
                  "name": "exclusiveTime",
                  "type": "uint256"
                },
                {
                  "internalType": "string",
                  "name": "governingLaw",
                  "type": "string"
                },
                {
                  "internalType": "string",
                  "name": "sellerId",
                  "type": "string"
                },
                {
                  "internalType": "string",
                  "name": "usageNotes",
                  "type": "string"
                },
                {
                  "internalType": "string",
                  "name": "advertisementTitle",
                  "type": "string"
                },
                {
                  "internalType": "string",
                  "name": "productDescription",
                  "type": "string"
                },
                {
                  "internalType": "string",
                  "name": "contentDescription",
                  "type": "string"
                },
                {
                  "internalType": "string",
                  "name": "intendedPlatforms",
                  "type": "string"
                },
                {
                  "internalType": "string",
                  "name": "additionalInfo",
                  "type": "string"
                }
              ],
              "internalType": "struct NitrilityAuction.Metadata",
              "name": "metadata",
              "type": "tuple"
            }
          ],
          "internalType": "struct NitrilityAuction.LicensesData[]",
          "name": "licenseDatas",
          "type": "tuple[]"
        }
      ],
      "name": "purchaseLicenses",
      "outputs": [],
      "stateMutability": "payable",
      "type": "function"
    },
    {
      "inputs": [
        {
          "internalType": "uint256",
          "name": "offerId",
          "type": "uint256"
        }
      ],
      "name": "rejectOffer",
      "outputs": [],
      "stateMutability": "nonpayable",
      "type": "function"
    },
    {
      "inputs": [],
      "name": "renounceOwnership",
      "outputs": [],
      "stateMutability": "nonpayable",
      "type": "function"
    },
    {
      "inputs": [
        {
          "internalType": "address",
          "name": "_nitrilityFactory",
          "type": "address"
        }
      ],
      "name": "setFactory",
      "outputs": [],
      "stateMutability": "nonpayable",
      "type": "function"
    },
    {
      "inputs": [
        {
          "internalType": "address",
          "name": "_marketOwner",
          "type": "address"
        }
      ],
      "name": "setMarketOwner",
      "outputs": [],
      "stateMutability": "nonpayable",
      "type": "function"
    },
    {
      "inputs": [
        {
          "internalType": "address",
          "name": "newOwner",
          "type": "address"
        }
      ],
      "name": "transferOwnership",
      "outputs": [],
      "stateMutability": "nonpayable",
      "type": "function"
    }
  ],
  "bytecode": "0x60806040523480156200001157600080fd5b5033806200003957604051631e4fbdf760e01b81526000600482015260240160405180910390fd5b620000448162000061565b5060018055600280546001600160a01b03191633179055620000b1565b600080546001600160a01b038381166001600160a01b0319831681178455604051919092169283917f8be0079c531659141344cd1fd0a4f28419497f9722a3daafe3b4186f6b6457e09190a35050565b6135a280620000c16000396000f3fe6080604052600436106100e85760003560e01c80636cdaa4211161008a5780638dc692c6116100595780638dc692c614610253578063a073827f14610266578063ee8e028c14610279578063f2fde38b1461029957600080fd5b80636cdaa421146101e0578063715018a61461020057806388b10c75146102155780638da5cb5b1461023557600080fd5b806347d90b5c116100c657806347d90b5c1461017a5780634f4e5de81461019a5780635bb47808146101ad5780636181236f146101cd57600080fd5b80630eba45d8146100ed5780632a355af91461010f5780632e70151014610142575b600080fd5b3480156100f957600080fd5b5061010d61010836600461254e565b6102b9565b005b34801561011b57600080fd5b5061012f61012a366004612677565b6106c8565b6040519081526020015b60405180910390f35b34801561014e57600080fd5b50600354610162906001600160a01b031681565b6040516001600160a01b039091168152602001610139565b34801561018657600080fd5b50600254610162906001600160a01b031681565b61010d6101a83660046126b8565b6109f6565b3480156101b957600080fd5b5061010d6101c83660046126fd565b610bfb565b61010d6101db366004612718565b610c82565b3480156101ec57600080fd5b5061010d6101fb3660046126fd565b610cda565b34801561020c57600080fd5b5061010d610d61565b34801561022157600080fd5b5061010d6102303660046127dc565b610d75565b34801561024157600080fd5b506000546001600160a01b0316610162565b61010d6102613660046127f5565b610f8a565b61010d610274366004612677565b611541565b34801561028557600080fd5b5061012f6102943660046127dc565b611926565b3480156102a557600080fd5b5061010d6102b43660046126fd565b61203e565b6102c58b8b888861207c565b156103235760405162461bcd60e51b8152602060048201526024808201527f416c726561647920706c61636564206120626964206f6e2074686973206c6963604482015263656e736560e01b60648201526084015b60405180910390fd5b610331600480546001019055565b600061033c60045490565b905061034960058261219d565b506040518061018001604052808281526020018d8d8080601f0160208091040260200160405190810160405280939291908181526020018383808284376000920191909152505050908252506001600160a01b0387166020808301919091526040808301889052606083018e90528051601f8d018390048302810183019091528b8152608090920191908c908c90819084018382808284376000920191909152505050908252506020016001815260200188600581111561040c5761040c61289b565b81526020018760038111156104235761042361289b565b81526020018481526020014281526020018361043e906129d1565b90526000828152600960209081526040909120825181559082015160018201906104689082612bc3565b5060408201516002820180546001600160a01b0319166001600160a01b03909216919091179055606082015160038201556080820151600482015560a082015160058201906104b79082612bc3565b5060c08201518160060160006101000a81548160ff021916908360068111156104e2576104e261289b565b021790555060e082015160068201805461ff00191661010083600581111561050c5761050c61289b565b021790555061010082015160068201805462ff00001916620100008360038111156105395761053961289b565b0217905550610120820151600782015561014082015160088201556101608201518051600983018054909190829060ff19166001838181111561057e5761057e61289b565b021790555060208201516001820155604082015160028201906105a19082612bc3565b50606082015160038201906105b69082612bc3565b50608082015160048201906105cb9082612bc3565b5060a082015160058201906105e09082612bc3565b5060c082015160068201906105f59082612bc3565b5060e0820151600782019061060a9082612bc3565b5061010082015160088201906106209082612bc3565b5061012082015160098201906106369082612bc3565b50505090505060008051602061354d83398151915281858c60016000604051610663959493929190612c96565b60405180910390a16106968160078e8e604051610681929190612cca565b9081526040519081900360200190209061219d565b506001600160a01b03851660009081526008602052604090206106b9908261219d565b50505050505050505050505050565b600080805b838110156109ec5760008060008787858181106106ec576106ec612cda565b90506020028101906106fe9190612cf0565b61070d90610100810190612d11565b61071690612e16565b905087878581811061072a5761072a612cda565b905060200281019061073c9190612cf0565b61074e9061010081019060e001612f3d565b600381111561075f5761075f61289b565b81610100015160038111156107765761077661289b565b14806107985750600281610100015160038111156107965761079661289b565b145b6107a157600080fd5b60008888868181106107b5576107b5612cda565b90506020028101906107c79190612cf0565b6107d89060e081019060c001612f5a565b60058111156107e9576107e961289b565b0361095357806101800151602001518051906020012088888681811061081157610811612cda565b90506020028101906108239190612cf0565b61082d9080612f75565b60405161083b929190612cca565b6040518091039020036108a4578061018001516060015192506064831061089c5760405162461bcd60e51b8152602060048201526015602482015274496e56616c696420446973636f756e7420436f646560581b604482015260640161031a565b5050506109ec565b6001816060015160028111156108bc576108bc61289b565b036109245760018888868181106108d5576108d5612cda565b90506020028101906108e79190612cf0565b6108f99061010081019060e001612f3d565b600381111561090a5761090a61289b565b0361091b578060200151915061097e565b8051915061097e565b87878581811061093657610936612cda565b90506020028101906109489190612cf0565b60600135915061097e565b87878581811061096557610965612cda565b90506020028101906109779190612cf0565b6060013591505b606488888681811061099257610992612cda565b90506020028101906109a49190612cf0565b60a001356109b3856064612fd1565b6109bd9085612fe4565b6109c79190612fe4565b6109d19190612ffb565b6109db908661301d565b945050600190920191506106cd9050565b5090505b92915050565b60008481526009602052604090206005826006811115610a1857610a1861289b565b1480610a3557506004826006811115610a3357610a3361289b565b145b610a915760405162461bcd60e51b815260206004820152602760248201527f596f752063616e206a7573742065646974206f72207769746864726177207468604482015266329037b33332b960c91b606482015260840161031a565b60028101546001600160a01b03163314610afd5760405162461bcd60e51b815260206004820152602760248201527f417574686f72697a6174696f6e3a20596f752063616e74206564697420746869604482015266399037b33332b960c91b606482015260840161031a565b80600301548410610bb757348160030154610b18919061301d565b841115610b7c5760405162461bcd60e51b815260206004820152602c60248201527f596f752073686f756c6420616464206d6f72652066756e647320746f2065646960448201526b3a103a3434b99037b33332b960a11b606482015260840161031a565b6003546040516001600160a01b03909116903480156108fc02916000818181858888f19350505050158015610bb5573d6000803e3d6000fd5b505b600381018490556004810183905560405160008051602061354d83398151915290610bec908790879087908790600090612c96565b60405180910390a15050505050565b6000546001600160a01b0316331480610c1e57506002546001600160a01b031633145b610c605760405162461bcd60e51b81526020600482015260136024820152722ab730baba3437b934bd32b21031b0b63632b960691b604482015260640161031a565b600380546001600160a01b0319166001600160a01b0392909216919091179055565b610c9688888888888888333460018b6102b9565b6003546040516001600160a01b03909116903480156108fc02916000818181858888f19350505050158015610ccf573d6000803e3d6000fd5b505050505050505050565b6000546001600160a01b0316331480610cfd57506002546001600160a01b031633145b610d3f5760405162461bcd60e51b81526020600482015260136024820152722ab730baba3437b934bd32b21031b0b63632b960691b604482015260640161031a565b600280546001600160a01b0319166001600160a01b0392909216919091179055565b610d696121b0565b610d7360006121dd565b565b600081815260096020526040812060028101546001600160a01b0316331480610da857506002546001600160a01b031633145b610e065760405162461bcd60e51b815260206004820152602960248201527f417574686f72697a6174696f6e3a20596f752063616e742072656a65637420746044820152683434b99037b33332b960b91b606482015260840161031a565b60028101546001600160a01b03163303610e235760009150610e28565b600191505b600360068083015460ff1690811115610e4357610e4361289b565b14158015610e6a5750600460068083015460ff1690811115610e6757610e6761289b565b14155b8015610e8f5750600260068083015460ff1690811115610e8c57610e8c61289b565b14155b610ecf5760405162461bcd60e51b8152602060048201526011602482015270496e76616c69642053616c65205479706560781b604482015260640161031a565b60068101805460ff1916600390811790915580820154600483015460405160008051602061354d83398151915292610f0c92889286908990612c96565b60405180910390a1600380546002840154918401546040516376ab956160e11b81526001600160a01b039384166004820152602481019190915291169063ed572ac290604401600060405180830381600087803b158015610f6c57600080fd5b505af1158015610f80573d6000803e3d6000fd5b5050505050505050565b600086815260096020526040902060028101546001600160a01b0316331480610fbd57506002546001600160a01b031633145b61101b5760405162461bcd60e51b815260206004820152602960248201527f417574686f72697a6174696f6e3a20596f752063616e742061636365707420746044820152683434b99037b33332b960b91b606482015260840161031a565b60028101546000906001600160a01b0316330361103a5750600061103e565b5060015b600360068084015460ff16908111156110595761105961289b565b141580156110805750600460068084015460ff169081111561107d5761107d61289b565b14155b80156110a55750600260068084015460ff16908111156110a2576110a261289b565b14155b6110e55760405162461bcd60e51b8152602060048201526011602482015270496e76616c69642053616c65205479706560781b604482015260640161031a565b600080600684015462010000900460ff1660038111156111075761110761289b565b036111145750843561111b565b5060208501355b82600301548110156111b15760038054908401546001600160a01b039091169063ed572ac290339061114e908590612fd1565b6040516001600160e01b031960e085901b1681526001600160a01b0390921660048301526024820152604401600060405180830381600087803b15801561119457600080fd5b505af11580156111a8573d6000803e3d6000fd5b50505050611262565b3483600301546111c1919061301d565b8111156112275760405162461bcd60e51b815260206004820152602e60248201527f596f752073686f756c6420616464206d6f72652066756e647320746f2061636360448201526d32b83a103a3434b99037b33332b960911b606482015260840161031a565b6003546040516001600160a01b03909116903480156108fc02916000818181858888f19350505050158015611260573d6000803e3d6000fd5b505b60068301805460ff191660021790556040805160e0810190915260018401805460009291829161129190612b3e565b80601f01602080910402602001604051908101604052809291908181526020018280546112bd90612b3e565b801561130a5780601f106112df5761010080835404028352916020019161130a565b820191906000526020600020905b8154815290600101906020018083116112ed57829003601f168201915b505050505081526020018a8a8080601f01602080910402602001604051908101604052809392919081815260200183838082843760009201919091525050509082525060058601805460209092019161136290612b3e565b80601f016020809104026020016040519081016040528092919081815260200182805461138e90612b3e565b80156113db5780601f106113b0576101008083540402835291602001916113db565b820191906000526020600020905b8154815290600101906020018083116113be57829003601f168201915b505050918352505060028601546001600160a01b0316602082015260400161140289612e16565b81526003808701546020830152600787015460409283015254600687015491516319ac33df60e31b81529293506001600160a01b03169163cd619ef89161146491859160ff610100820481169260029262010000900490911690600401613253565b600060405180830381600087803b15801561147e57600080fd5b505af1158015611492573d6000803e3d6000fd5b5050600380549087015460405163a7d70f8160e01b81526001600160a01b03909216935063a7d70f8192506114cd918a918a91600401613396565b600060405180830381600087803b1580156114e757600080fd5b505af11580156114fb573d6000803e3d6000fd5b5050505060008051602061354d8339815191528a8560030154866004015460028760405161152d959493929190612c96565b60405180910390a150505050505050505050565b600061154d83836106c8565b9050348111156115c7576040805162461bcd60e51b81526020600482015260248101919091527f546f74616c2050726963652073686f756c64206265206c61726765722074686160448201527f6e2074686520616d6f756e74206f6620746865206d61726b6574207072696365606482015260840161031a565b6003546040516001600160a01b03909116903480156108fc02916000818181858888f19350505050158015611600573d6000803e3d6000fd5b5060005b82811015611920573684848381811061161f5761161f612cda565b90506020028101906116319190612cf0565b905036611642610100830183612d11565b905061164d8161222d565b60008061166060e0850160c08601612f5a565b60058111156116715761167161289b565b036116e65760016116886080840160608501613485565b60028111156116995761169961289b565b036116db5760006116b1610100850160e08601612f3d565b60038111156116c2576116c261289b565b146116d15781602001356116d4565b81355b90506116ed565b5060608201356116ed565b5060608201355b60016116ff6080840160608501613485565b60028111156117105761171061289b565b036118bd5760006040518060e001604052808580604001906117329190612f75565b8080601f01602080910402602001604051908101604052809392919081815260200183838082843760009201919091525050509082525060200161177a610120870187612cf0565b611788906060810190612f75565b8080601f0160208091040260200160405190810160405280939291908181526020018383808284376000920191909152505050908252506020908101906117d190870187612f75565b8080601f01602080910402602001604051908101604052809392919081815260200183838082843760009201919091525050509082525033602082015260400161181a85612e16565b81526020810184905260a08601356040909101526003549091506001600160a01b031663cd619ef88261185360e0880160c08901612f5a565b60006118666101008a0160e08b01612f3d565b6040518563ffffffff1660e01b81526004016118859493929190613253565b600060405180830381600087803b15801561189f57600080fd5b505af11580156118b3573d6000803e3d6000fd5b5050505050611915565b6119156118cd6040850185612f75565b60808601356118df6020880188612f75565b6118ef60e08a0160c08b01612f5a565b6119006101008b0160e08c01612f3d565b338960a08d01356101086101208f018f612cf0565b505050600101611604565b50505050565b6000818152600960209081526040808320815161018081019092528054825260018101805485948401919061195a90612b3e565b80601f016020809104026020016040519081016040528092919081815260200182805461198690612b3e565b80156119d35780601f106119a8576101008083540402835291602001916119d3565b820191906000526020600020905b8154815290600101906020018083116119b657829003601f168201915b505050918352505060028201546001600160a01b031660208201526003820154604082015260048201546060820152600582018054608090920191611a1790612b3e565b80601f0160208091040260200160405190810160405280929190818152602001828054611a4390612b3e565b8015611a905780601f10611a6557610100808354040283529160200191611a90565b820191906000526020600020905b815481529060010190602001808311611a7357829003601f168201915b505050918352505060068281015460209092019160ff1690811115611ab757611ab761289b565b6006811115611ac857611ac861289b565b81526020016006820160019054906101000a900460ff166005811115611af057611af061289b565b6005811115611b0157611b0161289b565b81526020016006820160029054906101000a900460ff166003811115611b2957611b2961289b565b6003811115611b3a57611b3a61289b565b815260078201546020820152600882015460408083019190915280516101408101909152600983018054606090930192829060ff166001811115611b8057611b8061289b565b6001811115611b9157611b9161289b565b815260200160018201548152602001600282018054611baf90612b3e565b80601f0160208091040260200160405190810160405280929190818152602001828054611bdb90612b3e565b8015611c285780601f10611bfd57610100808354040283529160200191611c28565b820191906000526020600020905b815481529060010190602001808311611c0b57829003601f168201915b50505050508152602001600382018054611c4190612b3e565b80601f0160208091040260200160405190810160405280929190818152602001828054611c6d90612b3e565b8015611cba5780601f10611c8f57610100808354040283529160200191611cba565b820191906000526020600020905b815481529060010190602001808311611c9d57829003601f168201915b50505050508152602001600482018054611cd390612b3e565b80601f0160208091040260200160405190810160405280929190818152602001828054611cff90612b3e565b8015611d4c5780601f10611d2157610100808354040283529160200191611d4c565b820191906000526020600020905b815481529060010190602001808311611d2f57829003601f168201915b50505050508152602001600582018054611d6590612b3e565b80601f0160208091040260200160405190810160405280929190818152602001828054611d9190612b3e565b8015611dde5780601f10611db357610100808354040283529160200191611dde565b820191906000526020600020905b815481529060010190602001808311611dc157829003601f168201915b50505050508152602001600682018054611df790612b3e565b80601f0160208091040260200160405190810160405280929190818152602001828054611e2390612b3e565b8015611e705780601f10611e4557610100808354040283529160200191611e70565b820191906000526020600020905b815481529060010190602001808311611e5357829003601f168201915b50505050508152602001600782018054611e8990612b3e565b80601f0160208091040260200160405190810160405280929190818152602001828054611eb590612b3e565b8015611f025780601f10611ed757610100808354040283529160200191611f02565b820191906000526020600020905b815481529060010190602001808311611ee557829003601f168201915b50505050508152602001600882018054611f1b90612b3e565b80601f0160208091040260200160405190810160405280929190818152602001828054611f4790612b3e565b8015611f945780601f10611f6957610100808354040283529160200191611f94565b820191906000526020600020905b815481529060010190602001808311611f7757829003601f168201915b50505050508152602001600982018054611fad90612b3e565b80601f0160208091040260200160405190810160405280929190818152602001828054611fd990612b3e565b80156120265780601f10611ffb57610100808354040283529160200191612026565b820191906000526020600020905b81548152906001019060200180831161200957829003601f168201915b50505091909252505050905250606001519392505050565b6120466121b0565b6001600160a01b03811661207057604051631e4fbdf760e01b81526000600482015260240161031a565b612079816121dd565b50565b3360009081526008602052604081208190612096906123e1565b905060005b8181101561218e573360009081526008602052604081206120bc90836123eb565b60008181526009602052604090209091506120db600182018a8a6123f7565b80156120ff5750600160068083015460ff16908111156120fd576120fd61289b565b145b801561213857508660058111156121185761211861289b565b6006820154610100900460ff1660058111156121365761213661289b565b145b801561217257508560038111156121515761215161289b565b600682015462010000900460ff1660038111156121705761217061289b565b145b15612184576001945050505050612195565b505060010161209b565b5060009150505b949350505050565b60006121a98383612431565b9392505050565b6000546001600160a01b03163314610d735760405163118cdaa760e01b815233600482015260240161031a565b600080546001600160a01b038381166001600160a01b0319831681178455604051919092169283917f8be0079c531659141344cd1fd0a4f28419497f9722a3daafe3b4186f6b6457e09190a35050565b60016122416101c083016101a084016134a0565b60048111156122525761225261289b565b1461229f5760405162461bcd60e51b815260206004820152601760248201527f4c6963656e73652074797065206e6f74206c6973746564000000000000000000604482015260640161031a565b6122af60c0820160a083016134bb565b1580156122c0575060008160800135115b806122d657506122d660c0820160a083016134bb565b6123195760405162461bcd60e51b8152602060048201526014602482015273546f74616c20737570706c79206973207a65726f60601b604482015260640161031a565b61232960e0820160c083016134bb565b61207957600061233b426103e8612fe4565b90508082610120013511156123925760405162461bcd60e51b815260206004820152601b60248201527f4c6963656e736520686173206e6f742073746172746564207965740000000000604482015260640161031a565b8082610140013510156123dd5760405162461bcd60e51b8152602060048201526013602482015272131a58d95b9cd9481a185cc8195e1c1a5c9959606a1b604482015260640161031a565b5050565b60006109f0825490565b60006121a98383612480565b60008282604051612409929190612cca565b60405180910390208460405161241f91906134d6565b60405180910390201490509392505050565b6000818152600183016020526040812054612478575081546001818101845560008481526020808220909301849055845484825282860190935260409020919091556109f0565b5060006109f0565b600082600001828154811061249757612497612cda565b9060005260206000200154905092915050565b60008083601f8401126124bc57600080fd5b5081356001600160401b038111156124d357600080fd5b6020830191508360208285010111156124eb57600080fd5b9250929050565b80356006811061250157600080fd5b919050565b6004811061207957600080fd5b803561250181612506565b80356001600160a01b038116811461250157600080fd5b6000610140828403121561254857600080fd5b50919050565b60008060008060008060008060008060006101208c8e03121561257057600080fd5b6001600160401b03808d35111561258657600080fd5b6125938e8e358f016124aa565b909c509a5060208d0135995060408d01358110156125b057600080fd5b6125c08e60408f01358f016124aa565b90995097506125d160608e016124f2565b96506125df60808e01612513565b95506125ed60a08e0161251e565b945060c08d0135935060e08d01359250806101008e0135111561260f57600080fd5b506126218d6101008e01358e01612535565b90509295989b509295989b9093969950565b60008083601f84011261264557600080fd5b5081356001600160401b0381111561265c57600080fd5b6020830191508360208260051b85010111156124eb57600080fd5b6000806020838503121561268a57600080fd5b82356001600160401b038111156126a057600080fd5b6126ac85828601612633565b90969095509350505050565b600080600080608085870312156126ce57600080fd5b8435935060208501359250604085013591506060850135600781106126f257600080fd5b939692955090935050565b60006020828403121561270f57600080fd5b6121a98261251e565b60008060008060008060008060c0898b03121561273457600080fd5b88356001600160401b038082111561274b57600080fd5b6127578c838d016124aa565b909a50985060208b0135975060408b013591508082111561277757600080fd5b6127838c838d016124aa565b909750955085915061279760608c016124f2565b945060808b013591506127a982612506565b90925060a08a013590808211156127bf57600080fd5b506127cc8b828c01612535565b9150509295985092959890939650565b6000602082840312156127ee57600080fd5b5035919050565b6000806000806000806080878903121561280e57600080fd5b8635955060208701356001600160401b038082111561282c57600080fd5b6128388a838b016124aa565b9097509550604089013591508082111561285157600080fd5b908801906101e0828b03121561286657600080fd5b9093506060880135908082111561287c57600080fd5b5061288989828a01612633565b979a9699509497509295939492505050565b634e487b7160e01b600052602160045260246000fd5b634e487b7160e01b600052604160045260246000fd5b60405161014081016001600160401b03811182821017156128ea576128ea6128b1565b60405290565b60405161010081016001600160401b03811182821017156128ea576128ea6128b1565b6040516101e081016001600160401b03811182821017156128ea576128ea6128b1565b80356002811061250157600080fd5b600082601f83011261295657600080fd5b81356001600160401b0380821115612970576129706128b1565b604051601f8301601f19908116603f01168101908282118183101715612998576129986128b1565b816040528381528660208588010111156129b157600080fd5b836020870160208301376000602085830101528094505050505092915050565b600061014082360312156129e457600080fd5b6129ec6128c7565b6129f583612936565b81526020830135602082015260408301356001600160401b0380821115612a1b57600080fd5b612a2736838701612945565b60408401526060850135915080821115612a4057600080fd5b612a4c36838701612945565b60608401526080850135915080821115612a6557600080fd5b612a7136838701612945565b608084015260a0850135915080821115612a8a57600080fd5b612a9636838701612945565b60a084015260c0850135915080821115612aaf57600080fd5b612abb36838701612945565b60c084015260e0850135915080821115612ad457600080fd5b612ae036838701612945565b60e084015261010091508185013581811115612afb57600080fd5b612b0736828801612945565b838501525061012091508185013581811115612b2257600080fd5b612b2e36828801612945565b8385015250505080915050919050565b600181811c90821680612b5257607f821691505b60208210810361254857634e487b7160e01b600052602260045260246000fd5b601f821115612bbe576000816000526020600020601f850160051c81016020861015612b9b5750805b601f850160051c820191505b81811015612bba57828155600101612ba7565b5050505b505050565b81516001600160401b03811115612bdc57612bdc6128b1565b612bf081612bea8454612b3e565b84612b72565b602080601f831160018114612c255760008415612c0d5750858301515b600019600386901b1c1916600185901b178555612bba565b600085815260208120601f198616915b82811015612c5457888601518255948401946001909101908401612c35565b5085821015612c725787850151600019600388901b60f8161c191681555b5050505050600190811b01905550565b60078110612c9257612c9261289b565b9052565b858152602081018590526040810184905260a08101612cb86060830185612c82565b82151560808301529695505050505050565b8183823760009101908152919050565b634e487b7160e01b600052603260045260246000fd5b6000823561013e19833603018112612d0757600080fd5b9190910192915050565b600082356101de19833603018112612d0757600080fd5b80356003811061250157600080fd5b8035801515811461250157600080fd5b60006101008284031215612d5a57600080fd5b612d626128f0565b905081356001600160401b0380821115612d7b57600080fd5b612d8785838601612945565b83526020840135915080821115612d9d57600080fd5b50612daa84828501612945565b602083015250612dbc60408301612936565b60408201526060820135606082015260808201356080820152612de160a08301612d37565b60a082015260c082013560c0820152612dfc60e08301612d37565b60e082015292915050565b80356005811061250157600080fd5b60006101e08236031215612e2957600080fd5b612e31612913565b823581526020830135602082015260408301356040820152612e5560608401612d28565b606082015260808301356080820152612e7060a08401612d37565b60a0820152612e8160c08401612d37565b60c0820152612e9260e08401612d37565b60e0820152610100612ea5818501612513565b90820152610120838101359082015261014080840135908201526101608084013590820152610180808401356001600160401b0380821115612ee657600080fd5b612ef236838801612d47565b838501526101a09250612f06838701612e07565b838501526101c0925082860135915080821115612f2257600080fd5b50612f2f36828701612945565b918301919091525092915050565b600060208284031215612f4f57600080fd5b81356121a981612506565b600060208284031215612f6c57600080fd5b6121a9826124f2565b6000808335601e19843603018112612f8c57600080fd5b8301803591506001600160401b03821115612fa657600080fd5b6020019150368190038213156124eb57600080fd5b634e487b7160e01b600052601160045260246000fd5b818103818111156109f0576109f0612fbb565b80820281158282048414176109f0576109f0612fbb565b60008261301857634e487b7160e01b600052601260045260246000fd5b500490565b808201808211156109f0576109f0612fbb565b6000815180845260005b818110156130565760208185018101518683018201520161303a565b506000602082860101526020601f19601f83011685010191505092915050565b60038110612c9257612c9261289b565b600481106120795761207961289b565b612c9281613086565b600061010082518185526130b582860182613030565b915050602083015184820360208601526130cf8282613030565b9150506040830151600281106130e7576130e761289b565b80604086015250606083015160608501526080830151608085015260a083015161311560a086018215159052565b5060c083015160c085015260e08301516109ec60e086018215159052565b60058110612c9257612c9261289b565b60006101e082518452602083015160208501526040830151604085015260608301516131726060860182613076565b506080830151608085015260a083015161319060a086018215159052565b5060c08301516131a460c086018215159052565b5060e08301516131b860e086018215159052565b50610100808401516131cc82870182613096565b5050610120838101519085015261014080840151908501526101608084015190850152610180808401518186018390526132088387018261309f565b925050506101a08084015161321f82870182613133565b50506101c080840151858303828701526132398382613030565b9695505050505050565b60068110612c9257612c9261289b565b608081526000855160e06080840152613270610160840182613030565b90506020870151607f19808584030160a086015261328e8383613030565b925060408901519150808584030160c08601526132ab8383613030565b60608a01516001600160a01b031660e087015260808a0151868203909201610100870152925090506132dd8282613143565b60a089015161012086015260c089015161014086015292506133059150506020830186613243565b6133126040830185612c82565b61331f6060830184613096565b95945050505050565b6000808335601e1984360301811261333f57600080fd5b83016020810192503590506001600160401b0381111561335e57600080fd5b8036038213156124eb57600080fd5b81835281816020850137506000828201602090810191909152601f909101601f19169091010190565b60408082528181018490526000906060808401600587901b850182018885805b8a81101561346d57888403605f190185528235368d9003609e190181126133db578283fd5b8c0160a06133e98280613328565b8288526133f9838901828461336d565b92505050602061340b81840184613328565b888403838a015261341d84828461336d565b93505050898301358a880152613434898401612d37565b1515878a01526080928301359261344a84612506565b61345384613086565b9690960191909152948401949392909201916001016133b6565b50505080945050505050826020830152949350505050565b60006020828403121561349757600080fd5b6121a982612d28565b6000602082840312156134b257600080fd5b6121a982612e07565b6000602082840312156134cd57600080fd5b6121a982612d37565b60008083546134e481612b3e565b600182811680156134fc576001811461351157613540565b60ff1984168752821515830287019450613540565b8760005260208060002060005b858110156135375781548a82015290840190820161351e565b50505082870194505b5092969550505050505056fe665a17e15a1574e030de617ea82c2940fc9b62f64f5b5379d9eef1ed2979b379a26469706673582212209eba562c70108b72a99354b8c2bacbf80e113b9c8ed36f161e7b16f2e570fe4a64736f6c63430008170033",
  "linkReferences": {},
  "deployedLinkReferences": {}
}